{
  "_format": "hh-sol-artifact-1",
  "contractName": "PlonkVerifier",
  "sourceName": "contracts/MoneroBridgeVerifier.sol",
  "abi": [
    {
      "inputs": [
        {
          "internalType": "uint256[24]",
          "name": "_proof",
          "type": "uint256[24]"
        },
        {
          "internalType": "uint256[70]",
          "name": "_pubSignals",
          "type": "uint256[70]"
        }
      ],
      "name": "verifyProof",
      "outputs": [
        {
          "internalType": "bool",
          "name": "",
          "type": "bool"
        }
      ],
      "stateMutability": "view",
      "type": "function"
    }
  ],
  "bytecode": "0x60808060405234610016576133ce908161001c8239f35b600080fdfe600436101561000d57600080fd5b6000803560e01c63b36ccadc1461002357600080fd5b3461092257610bc03660031901126109225736610304116109225736610bc41161092257610c6060405261005961024435610a0d565b61006561026435610a0d565b61007161028435610a0d565b61007d6102a435610a0d565b6100896102c435610a0d565b6100956102e435610a0d565b6040517f0c739a90a4c08ede904b4005bb29727f6f47e86ffe9f4b0ad8d91b7293f691778152602081017f0a559483250bf77c5029a9be97616f1776b12b61d45fc30fe6577bd956cc9c579052604081017ec856530ba869aa1dc862d291d1c32bc0ac8785d3fc1f2fc17bf756acf723679052606081017f1938a592f95996082966b6dbb3bc444169629beefdd6d98c8f55738d218407c59052608081017f14de37d04acbb6963a115da78c4e5a7b246806f5f58e92d23fd4926aa6694e59905260a081017f15e9aad27d7632720547230bb73ba77a234e48eeddf1fb675e288ea2c11aa2c9905260c081017f2358bd5fbda5ccea4da7a1572bf8c96929e40a887bfc0027367e406c10028528905260e081017f2adddb8fac2bbaef6691f966f327acb3e0c09ff3985d602a206cabadda8c7459905261010081017f11c1fd31f5e171b7d5ea0e883b6c84dafefc836043c52ebcb5d8f1423a6b5642905261012081017f10164a56f50410ef5766edb5f773f66419721772c8c1b3377629236c09423d4f905261014081017f1f185753a67c5663a749d39714436422510812730f0332cecd9b45e1b6fe5f37905261016081017f05d39da1d81893675f62558c116db3b48b1e3b66a7ca59793d3e559715372173905261018081017f031473d99dd3ebda92c51fff93fa87745786af38e513532c843bc9ca254f012790526101a081017f2fd8dc9fe22489f683537721f1c51cd76926c1ef5a1df0c102102c6789d0832c90526101c081017f1378a49b3f1588ac9c70274218145f75e5ff31f8529f7c1cbccdc2b34ec09b8290526101e081017f14eab88417eaf87e0c1df9f0adf65f125636c1f4417919a582545638f5000ca1905261030435610200820152610324356102208201526103443561024082015261036435610260820152610384356102808201526103a4356102a08201526103c4356102c08201526103e4356102e082015261040435610300820152610424356103208201526104443561034082015261046435610360820152610484356103808201526104a4356103a08201526104c4356103c08201526104e4356103e082015261050435610400820152610524356104208201526105443561044082015261056435610460820152610584356104808201526105a4356104a08201526105c4356104c08201526105e4356104e082015261060435610500820152610624356105208201526106443561054082015261066435610560820152610684356105808201526106a4356105a08201526106c4356105c08201526106e4356105e082015261070435610600820152610724356106208201526107443561064082015261076435610660820152610784356106808201526107a4356106a08201526107c4356106c08201526107e4356106e082015261080435610700820152610824356107208201526108443561074082015261086435610760820152610884356107808201526108a4356107a08201526108c4356107c08201526108e4356107e082015261090435610800820152610924356108208201526109443561084082015261096435610860820152610984356108808201526109a4356108a08201526109c4356108c08201526109e4356108e0820152610a0435610900820152610a2435610920820152610a4435610940820152610a6435610960820152610a8435610980820152610aa4356109a0820152610ac4356109c0820152610ae4356109e0820152610b0435610a00820152610b2435610a20820152610b4435610a40820152610b6435610a60820152610b8435610a80820152610ba435610aa0820152600435610ac0820152602435610ae0820152604435610b00820152606435610b20820152608435610b4082015260a435610b60820152610b80812060008051602061337983398151915290068060a052602060a020600080516020613379833981519152900660c05280825260c051602083015260c435604083015260e4356060830152608082206000805160206133798339815191529006806080526000805160206133798339815191528180096103405282526101043560208301526101243560408301526101443560608301526101643560808301526101843560a08301526101a43560c083015260e0822060008051602061337983398151915290068060e0528083526102443560208401526102643560408401526102843560608401526102a43560808401526102c43560a08401526102e43560c084015260e0832060008051602061337983398151915290069181836101405260008051602061337983398151915291096101205280600080516020613379833981519152910980600080516020613379833981519152910980600080516020613379833981519152910980600080516020613379833981519152910980600080516020613379833981519152910980600080516020613379833981519152910980600080516020613379833981519152910980600080516020613379833981519152910980600080516020613379833981519152910980600080516020613379833981519152910980600080516020613379833981519152910980600080516020613379833981519152910980610100527f30644e72e131a029b85045b68181585d2833e84879b9709143e1f593f00000000160008051602061337983398151915290068061036052610380526000805160206133798339815191528180098181610160526000805160206133798339815191529109818161018052600080516020613379833981519152910990816101a05260008051602061337983398151915291096101c0526101c43581526101e43560208201526102043560408201526102243560608201526080902060008051602061337983398151915290066101e0526108eb610a2e565b6108f3612357565b6108fb6127cc565b610903612d02565b61090b612ef4565b610913612fd4565b61091b613131565b8152602090f35b80fd5b600060019160008051602061337983398151915290805b61096e575060019192501161096957600081126109565790565b6000805160206133798339815191520190565b600080fd5b8082058481029093039392909190820290038061093c565b604051610380516103a0905b610c6082106109e6576109a490610925565b91601f19918201919081015b61038083116109be57505052565b81809160008051602061337983398151915280825188099686519009958552019201916109b0565b80600080516020613379833981519152918493945283519009906020809101920190610992565b6000805160206133798339815191521115610a2457565b6000805260206000f35b600080516020613379833981519152807f1f5912838f01a9db572cd61d1ffca58d5577bbae517f718dbc00bfb77c49078460e05182807f30644e72e131a029b85045b68181585d2833e84879b9709143e1f593f0000000830106611000096103a05282807f273278dc0301cf1ab67275428426c7b3b1427e810ab5d4d8279a8021efbd2bc7830106611000096103c05282807f2dea18ee476c9bfe044dc5dedc4bfaeb6f72bc3105247fc673d79c9a7965d11f830106611000096103e05282807f2f0e732b960386256ff5476b0fe98f3aeb3f017320a2485460b0060489fd7a89830106611000096104005282807f296734b17119fc08cc91898ad0f9e679ee796e87d0e698e631e85fb233d1a6ef830106611000096104205282807f097d2d234ba4772c752f7262e71e05ad7bb6daa27f0222ee227a4f7c7f80532d830106611000096104405282807f12eead87ab9d649a8e7bb9350a23d769f52b66953f101a05e7b1a5611bb8c063830106611000096104605282807f2185c84d03f0ceb116d14b6007c4546cf900de4c0625bcd3b701598571513ade830106611000096104805282807f21466153ea4a70cdb89019a7a3e651e74003be067d41431bbaa775f2a8fea833830106611000096104a05282807f1d75bdd0718fb47a00397a029280a39afeb21a594f1a08b878ac9752fc6b53a5830106611000096104c05282807f070c5f05a668b3398867614e95fdbfbfdd1ba7d4876b4931262159382bd39dbc830106611000096104e05282807f0af4572d0afe5fe1412c7ca6b1b019aaec65d4b6f5fb65d9dd938309093bfac5830106611000096105005282807f0beb5e960ef05f7426f8e9a191f200d0289ec9bc830c975b39e020e39a1c39ad830106611000096105205282807efadda1bdb2b06caab63923f2e07b9174726aade727eaa517ebbad0260a818e830106611000096105405282807f06bcda193c5474ac5fe6b5f74524881525509376a7361c2d447d551eb317c82f830106611000096105605282807f0f40c30277d5052dea5d795749f1e7a1ee2b534339ac64067aa9ca7147f975e7830106611000096105805282807f28b389113b1d1c24c7ca256be24a58acc6baa5f412687e607b4e94027b5a858b830106611000096105a05282807f171f38e9be9d7c94c674ed1bc8e0b3e794481655a07a39f49b7d627962ad5cdf830106611000096105c05282807f19a751be229dd99d826d4959f55737f4d56458062852cd7339c933013ea9bab6830106611000096105e05282807e3c17f5e8907b841c1089a549c7a9d6e43e4b66c4cce12fa221e2df39cca15d830106611000096106005282807f272573c088d418d490fd0c627cd70f2bf77806766c726200edba92865506e6b7830106611000096106205282807f1222f380031a264f9c82dcab8f471ca673ca0bb0511ae6887386fcce73df5836830106611000096106405282807f13ddf80a011cab301dc85b3c5cd19b77c1356871de735cc36a7ff3f12d55b5ff830106611000096106605282807f20fba161f79db17d8cea550296a44ae718a45cebb5ea1ac2fb6859d924497174830106611000096106805282807f1e03a8e524e06bf8e83a3df1b756ed83939d3db6e60ff73ba633d4cb4b490592830106611000096106a05282807f291501f354de0fad242103650e09f95f3e1a9e0d04f70ef0edc00e96cad73a32830106611000096106c05282807f14ff1cbde7180444c6cf15a4f7090659bb50743ed0404cfa5d1db2ae3e57e9b1830106611000096106e05282807f2327845130cdbbd1a1d54f6f499a989a71116dd4e3eff9cf0646bb12f238b99c830106611000096107005282807f20dea1744e4ad8e9b328811ca5cd294a3f8ba4c9d71a249f06c5bd52890a8b6c830106611000096107205282807f1e2c9cfa2f4647152f97a69a014549fe406fcd76ba9f9b2d809fb7bdf9f9ea6a830106611000096107405282807f03415057c9f054d3c9360c4a764d39a1d9af37d42622a5e38dc45f29a45103a3830106611000096107605282807f04522e838edeaf76e13dea88a1de5225d4d21e24a8f31c217828cac4a2957a56830106611000096107805282807f197d107534009697d8f364199928147d0a6892e3c2c72417a6d3ae873562e7f0830106611000096107a05282807f190338a01581b460693a0c0e1c7a66b93d363659a2672c938bcad0b2e35e6dad830106611000096107c05282807f2f24b56eedd4fff326360a90472ad03468d0715b019cf44f410f5555093c2d65830106611000096107e05282807f1ab69c7e115cb4b5ddb8fe53580dba57478331f7276ba86cc3a48c1589d8bfcb830106611000096108005282807f1fbfe4a677f32a14423da30a25e83c868e0297c1b177103171641d57670afd30830106611000096108205282807f0eeb19098b3df11c1fbf20d34bd18356d9ff29fa1bef6479407bb7f094b07f2c830106611000096108405282807f18221fb3b961db5c3eca9ec6d7f4740d3ca7311f45becfe93690acc1370ffd06830106611000096108605282807f3029c14367abdf272c8711ff32b2534d933adf6f146f0cdaee146a4ecfd87aa7830106611000096108805282807f0558c1b32b0a3cb3b42684bc946257994b8708a9b61a3ed8edecae9bccffb440830106611000096108a05282807f12b904e5d7dc06b54af6e053f1387bd4ba831e35bd4e32ad0be25470c82aea4f830106611000096108c05282807f0fc0f26e7571b07d3e069c7b4279ce1400fadc221ab3a9afa3cd539e68b4a56e830106611000096108e05282807f1bb89cfca8a2552c9c299dd2beabc0a61e9a881d514684370e99db6fd420b365830106611000096109005282807f21212a9bd86d52758fe4d28a6f33d1e1594644fd3d6ffae4cfba93302b96472c830106611000096109205282807f09a350961498d17ffd9ce42c0defc9a84ae91f1048533f2f41e10176d02f07ad830106611000096109405282807f294e4dc5090561248a98d6416bc3a443b28badf308f3ce80a61fc378fb2829a1830106611000096109605282807f1076381b931341027112fdfa81ff24204203e09c56f34fdeb2a361d55f43cd61830106611000096109805282807f289781269ee85498875da00dbcbd84300cabf163be600727dd69a7d3762d574d830106611000096109a05282807f1838a5a6094cf464d97895c7dd7653a057322efdf1f3ed007c81ba2d72ceaea8830106611000096109c05282807f0348db597fe96c33eef2db5ddf0dd75fc7c8e15e47a003219ed7020280dc71be830106611000096109e05282807f1759226e9ccc2deae55a2ab93a5bf93d6ed533575b924a256666eda096d18b8a83010661100009610a005282807f0bcea208031fc00503f959c232271bede00c00c208c525608dbb770b283d18ad83010661100009610a205282807f2577483a072cb9ee56e70fe30f3972e1e6969a9c77a88b2557128b8097f6766183010661100009610a405282807f0eb88ee9c76f3c4757e51b3d1e2beaf8af14b3637d2331a5f9609b43959b3e6183010661100009610a605282807f2fad09d0cad58e91ad927744ccfeaddd3db816e25ba94a85c647a5cbeb8a032583010661100009610a805282807f301ecb6f813d5f31725c635bf897a9101aaab66fe034e201294a84802868b8bc83010661100009610aa05282807f16da9b1d020b6155e0b771c688208b6b0bd00a745cfa42940a7a87eee570264083010661100009610ac05282807e31b38f45d4dbdd1052e96525e820646dce03dc54fff9a1ed2138835cf021cd83010661100009610ae05282807f1918ff7ec17699f49d5d436f12d114a5c3012601f0af21f71d824a3fc432c49a83010661100009610b005282807f0d07dddb4de9fe554914398a44c143c4185090a525fd38fbef49c4688e049f3e83010661100009610b205282807f186db40c7de025a7e21a2299bba796aeb74adb265e07fdde0e8fa8d22bef498a83010661100009610b405282807f02806dd6a143b9eb7c7c9f0483d8db708e361d1ed6dc133acda9d6392413f8ca83010661100009610b605282807f2b90f142cfffd0bb89ec861da13ee8b351989ccb2f99733cf8287e00e7ddc4e283010661100009610b805282807f1c4c3a258629905ef6036a4037c3aa6ae18d1d2452d64bd2684cfa8ede70fdc783010661100009610ba05282807f07860ac423eb675b0f58b6a7bb29fcb5685c6e9a41787999198db2f9d055050083010661100009610bc05282807ef21103ef0266d640799f130cbe2e573a267e2ee8818f6cdbeddccbea14e85b83010661100009610be05282807f040f355b7ad8d1226e0e4ec2ef5685be07a702b62eaea51cbd2ded2663b8d9cc83010661100009610c005282807f020874c590d6ef16edd82bfb32a594615bb73f42f510afec6ddd7fd9bd280a3483010661100009610c2052010661100009610c40526116d6610986565b600080516020613379833981519152806103605181816103a051096103a0528180826103c051097f0931d596de2fd10f01ddd073fd5a90a976f169c76f039bb91c4775720042d43a096103c0528180826103e051097f027a358499c5042bb4027fd7a5355d71b8c12c177494f0cad00a58f9769a2ee2096103e05281808261040051097f0155db474b2e1a04485afe4b7197c9223cf4e6d55917283ce331ef8f66028578096104005281808261042051097f06fd19c17017a420ebbebc2bb08771e339ba79c0a8d2d7ab11f995e1bc2e5912096104205281808261044051097f26e7214f958d28fd4320d3539a6352afac7d0da5fab74da32167a617707facd4096104405281808261046051097f1d75a0eb35943b8f29d48c81775d80f3330881b33aa9568b5c305032d4473f9e096104605281808261048051097f0ede8625dd40d178a17efa5679bd03f02f3309fc7393b3bd8ce09c0e7eaec52309610480528180826104a051097f0f1ded1ef6e72f5bffc02c0edd9b0675e8302a41fc782d75893a7fa1470157ce096104a0528180826104c051097f12ee90a26fa1ebafb816cbb3ef00b4c22981cdef2a9f67d8cb355e40f394ac5c096104c0528180826104e051097f2957ef6d3ac8ecf02fe8e467eb83989d4b184073f24e27601dc09c5bc42c6245096104e05281808261050051097f256ff745d63340487723c90fcfd13eb23bce139183be0ab7664e728ae6c4053c096105005281808261052051097f2478efdcd24140b591575c14ef8f578cff951e8bf6acd9360a01d4b055e3c654096105205281808261054051097f2f6970d1237eefbd0d9a0c928ea0dccbb3c17d9a929185ec2bf63ac3c9f57e73096105405281808261056051097f29a77459a4dd2b7d58698fbf3c5cd04802e354d1d2835463ff64a0753ce837d2096105605281808261058051097f21238b70695c9afbcdf2cc5f378f70bb3a089505400d0c8ac9382b22a8068a1a09610580528180826105a051097f07b0c561a6148404f086204a9f36ffb0617942546750f230c893619174a57a76096105a0528180826105c051097f1945158922942394f1db589ab8a0a47593ebd1f2d93f369ca864931a8d52a322096105c0528180826105e051097f16bcfcb4be93c68c35e2fc5c8c2a206852cf90425166a31e0a18c292b156454b096105e05281808261060051097f3028367cf8a124a59c3fbc1137b9ae8643f59ce1b4ec8f61a1c012b4b6335ea4096106005281808261062051097f093edab2585d87552753395404aa493130bbe1d20d470e905627630d9af9194a096106205281808261064051097f1e415af2de1779da1bcd690af23a3bb6b469dc98289e8a08d05af8c57c20a7cb096106405281808261066051097f1c865668e014f4f99a87ea7a24afbce566fe7fd69b4613cdd96201a2c2aa4a02096106605281808261068051097f0f68ad10e993eeac2b65f0b3eadd0d760f8f8b5cc3cf55ce48799bbacbb68e8d09610680528180826106a051097f1260a58dbc513430d01607c4ca2a6ad99496aa9193a979559dae20c8a4b6fa6f096106a0528180826106c051097f074f4c7f8c53907c942f425173775efdea194a3b74c261a05621e6fd2528c5cf096106c0528180826106e051097f1b6531b4fa199be4f18130118a7852036ce37409a9792396e6c442e5b1a81650096106e05281808261070051097f0d3cca21b063e458167af64737e6bfc2b7227a7395c976c23d9b3a80fdc74665096107005281808261072051097f0f85acfe92e6c7400527c499dbb42f12e8a8437ea29f4bf23d1c384166f57495096107205281808261074051097f1237b178b1eb591488b89f1c803c0e5ee7c41ad1bf19d563c3423dd5f6061597096107405281808261076051097f2d22fe1b17414b55ef1a396c0b341ebb4e84b0745396caadb61d966a4baefc5e096107605281808261078051097f2c121fef5252f0b2d7125b2ddfa306375361ca23d0c6546fcbb92acf4d6a85ab09610780528180826107a051097f16e73dfdad310991df5ce19ce85943e01dcb5564b6f24c799d0e470cba9d1811096107a0528180826107c051097f176115d2cbafebc94f1639a86506f1a3eafdb1eed75243fdb81724e10ca19254096107c0528180826107e051097f013f9903f35ca036921a3b263a568828bf6376ed781c7c4202d2a03ee6c3d29c096107e05281808261080051097f15adb1f4cfd4eb73da97476329739e05e0b0b651524dc824803d697e66274036096108005281808261082051097f10a469cc693e76157612a2ac5b991bd69a315086c842605fd27dd83c88f502d1096108205281808261084051097f2179356955f3af0d989124e335afd5064e34be4e5dca0c1803663da35b4f80d5096108405281808261086051097f18422ebf27cfc4cd7985a6efa98ce44feb8cb72933faa0a80d5148d2b8f002fb096108605281808261088051097e3a8d2f7985c1028bc933b74ecf050f94f908d9654a63b655cd8b452027855a09610880528180826108a051097f2b0b8cbfb62763760429c0f9ed1f00c3dcacdf9ec39f31b855f546f823004bc1096108a0528180826108c051097f1dab498d095599746d5965629048dc886db0ca12bc6b3de437ffa12327d515b2096108c0528180826108e051097f20a35c046bbfefac7a49a93b3f078a4927390c265f05c6e1a014a1f5874b5a93096108e05281808261090051097f14abb176388f4afd1c26a7e3c2d597b70999602b2872ec5a35481a241bdf4c9c096109005281808261092051097f0f4323d708c44db4286b732c124d867bceeda34b3c4975ac74276263c469b8d5096109205281808261094051097f26c0fddccc98cea9bab3618a73918eb4dd4ac938316631620200f41d1fd0f854096109405281808261096051097f071600add82c3f052db76f7515bdb41975a83a5570c5a2109dc2321af4d7d660096109605281808261098051097f1fee16574e1e5f27473d47bbff82343ce63007ac22c620b2913e93be90bc32a009610980528180826109a051097f07cccd4c42494b9130f2a5a8c4c3d42d1b87f6e4bb59696966784dc079d2a8b4096109a0528180826109c051097f182ba8ccd7e4abc4ded7afeea40b04bcd101b94a87c58390c7603b667d315159096109c0528180826109e051097f2d1b7319614833f5c95d6a58a27380fd606b06ea32196d6fa50af3916f238e43096109e052818082610a0051097f190b2c044465723ed2f61afd47255f1fb95eb4f11e27266bdd7b07f3592e747709610a0052818082610a2051097f2495ac6ade11e024b456ebf44f5a3c6f4827e78670f44b30b6267e88c7c2e75409610a2052818082610a4051097f0aed0638da04e63b616935d37247e57b419d4dac0210e56beccf6a13580989a009610a4052818082610a6051097f21abbf8919c263e2606b2a7963556d64791f34e4fc963eeb4a815a505a64c1a009610a6052818082610a8051097eb744a2165c11980abdce71b482aa7fea7bd1661e10260b7d9a4fc80475fcdc09610a8052818082610aa051097e4583035ff440f845f3e25a88e9af4d0d8931d899848e901a977113c797474509610aa052818082610ac051097f1989b355df263ed3d798d3eff960ccf21c63ddd41cbf2dfd39676da50a8fd9c109610ac052818082610ae051097f30329ae39b5cc44ca7fd5c515b9937f8ba65e46c24b976ef56c0bd10930fde3409610ae052818082610b0051097f174b4ef41fbb06351af302476eb043b76532c246890a4e9a265fab542bcd3b6709610b0052818082610b2051097f235c70979347a1d46f3c0c2c3cc014990fe357a353bc37955498312b61fb60c309610b2052818082610b4051097f17f69a6663517a81d636231cc5d9c1ae70e90d221bb172b335524cc1c410b67709610b4052818082610b6051097f2de3e09c3fede63e3bd3a6b1fda87cec99fdcb29a2dd5d5676381f5acbec073709610b6052818082610b8051097f04d35d301131cf6e2e63bf98e0426fa9d69b4b7d4a1ffd544bb9779308223b1f09610b8052818082610ba051097f1418144d5b080fcac24cdb7649bdadf246a6cb2426e324bedb94fb05118f023a09610ba052818082610bc051097f28de43aebd4638cea8f78f0ec6575ba7bfd779ae3840f6f82a54429a1faafb0109610bc052818082610be051097f2f723d6ef22f395377d6a6a374c32a05ee0d6a199137e12467f418c805eb17a609610be052818082610c0051097f2c5519176658cf074a41f6f3922ad29f208ce5924b0acb7486b4086d8c47263509610c0052818082610c2051097f2e5bd9ad505ab112ca7819bb4edbc3fbcc7ca90584a8c0a4d60475ba32d7f5cd09610c2052610c4051097f110b3bef522ff64e61236f996184b2cfd2bc2c9a2839ff0387e135dc73b6f87d09610c4052565b6000805160206133798339815191528080808080808080808080808080808080808080808080808080808080808080808080808080808080808080808080808080808080808080808080808080808080808080808080808080808080808080808080808080808080808080808080808080808080808080808080808080808080808080808080808080808080808080808080808080808080808080610304356103a05109600003010681610324356103c051099003010681610344356103e051099003010681610364356104005109900301068161038435610420510990030106816103a435610440510990030106816103c435610460510990030106816103e43561048051099003010681610404356104a051099003010681610424356104c051099003010681610444356104e051099003010681610464356105005109900301068161048435610520510990030106816104a435610540510990030106816104c435610560510990030106816104e43561058051099003010681610504356105a051099003010681610524356105c051099003010681610544356105e051099003010681610564356106005109900301068161058435610620510990030106816105a435610640510990030106816105c435610660510990030106816105e43561068051099003010681610604356106a051099003010681610624356106c051099003010681610644356106e051099003010681610664356107005109900301068161068435610720510990030106816106a435610740510990030106816106c435610760510990030106816106e43561078051099003010681610704356107a051099003010681610724356107c051099003010681610744356107e051099003010681610764356108005109900301068161078435610820510990030106816107a435610840510990030106816107c435610860510990030106816107e43561088051099003010681610804356108a051099003010681610824356108c051099003010681610844356108e051099003010681610864356109005109900301068161088435610920510990030106816108a435610940510990030106816108c435610960510990030106816108e43561098051099003010681610904356109a051099003010681610924356109c051099003010681610944356109e05109900301068161096435610a005109900301068161098435610a20510990030106816109a435610a40510990030106816109c435610a60510990030106816109e435610a8051099003010681610a0435610aa051099003010681610a2435610ac051099003010681610a4435610ae051099003010681610a6435610b0051099003010681610a8435610b2051099003010681610aa435610b4051099003010681610ac435610b6051099003010681610ae435610b8051099003010681610b0435610ba051099003010681610b2435610bc051099003010681610b4435610be051099003010681610b6435610c0051099003010681610b8435610c2051099003010681610ba435610c4051099003010661020052565b61020051600080516020613379833981519152908180610340516103a051099181808060a0518160c051918160805193816102e435938180846102843508938180808381806102c4358909610264350808946102a4359009610244350808090909098103069381030690080861022052565b604090608082516020610240938451835261026051828401528051868401520151606082015260066107cf195a01fa15610a2457565b60409060808251825181526020830151602082015261028051848201526102a051606082015260066107cf195a01fa15610a2457565b6040906080825182518152602083015160208201526102c051848201526102e051606082015260066107cf195a01fa15610a2457565b608060409260208451918451835281850151828401528051868401520151606082015260066107cf195a01fa15610a2457565b604051907f0c739a90a4c08ede904b4005bb29727f6f47e86ffe9f4b0ad8d91b7293f6917782527f0a559483250bf77c5029a9be97616f1776b12b61d45fc30fe6577bd956cc9c576020830152604082019081526107cf196040836060816007855a01fa15610a2457604092600660809261024094855190526102605160608401525a01fa15610a2457565b604051907ec856530ba869aa1dc862d291d1c32bc0ac8785d3fc1f2fc17bf756acf7236782527f1938a592f95996082966b6dbb3bc444169629beefdd6d98c8f55738d218407c56020830152604082019081526107cf196040836060816007855a01fa15610a2457604092600660809261024094855190526102605160608401525a01fa15610a2457565b604051907f14de37d04acbb6963a115da78c4e5a7b246806f5f58e92d23fd4926aa6694e5982527f15e9aad27d7632720547230bb73ba77a234e48eeddf1fb675e288ea2c11aa2c96020830152604082019081526107cf196040836060816007855a01fa15610a2457604092600660809261024094855190526102605160608401525a01fa15610a2457565b604051907f2358bd5fbda5ccea4da7a1572bf8c96929e40a887bfc0027367e406c1002852882527f2adddb8fac2bbaef6691f966f327acb3e0c09ff3985d602a206cabadda8c74596020830152604082019081526107cf196040836060816007855a01fa15610a2457604092600660809261024094855190526102605160608401525a01fa15610a2457565b604051907f031473d99dd3ebda92c51fff93fa87745786af38e513532c843bc9ca254f012782527f2fd8dc9fe22489f683537721f1c51cd76926c1ef5a1df0c102102c6789d0832c6020830152604082019081526107cf196040836060816007855a01fa15610a2457604092600660809261028094855190526102a05160608401525a01fa15610a2457565b91906040519283526020830152604082019081526107cf196040836060816007855a01fa15610a2457604092600660809261028094855190526102a05160608401525a01fa15610a2457565b916040519182526020820152604081019283526107cf19906040816060816007865a01fa15610a2457600660809260409585519052602085015160608401525a01fa15610a2457565b60606040928351907f1378a49b3f1588ac9c70274218145f75e5ff31f8529f7c1cbccdc2b34ec09b8282527f14eab88417eaf87e0c1df9f0adf65f125636c1f4417919a582545638f5000ca160208301528482015260076107cf195a01fa15610a2457565b9190604093606092855192835260208301528482015260076107cf195a01fa15610a2457565b60208201519151612d00939291612cc8565b565b612d0060c051612eef60405191612eef61010093848101604052612d6b7f11c1fd31f5e171b7d5ea0e883b6c84dafefc836043c52ebcb5d8f1423a6b5642610240527f10164a56f50410ef5766edb5f773f66419721772c8c1b3377629236c09423d4f61026052565b612e9f6000805160206133798339815191528094612d9182610264356102443509612913565b612d9d6102443561299f565b612da961026435612a2a565b612db561028435612ab6565b612e1f6101205183608051918180610340516103a051098160c08b0195612de58760c4358152602060e435910152565b816101e0519581808c81806003860961028435080891818d8180828180600288096102643508089361024435080809090908089086612cee565b8160a05181806102e43581846080510909938180808381806102c4358909610264350808946102a4359009610244350808090993612e61604084019586612c63565b6080830196612e7b88610104358152602061012435910152565b612e8e815161016435610144358b612c1a565b5180096101a4356101843588612c1a565b61036051612eb560a08301918251885189612cc8565b606082017f30644e72e131a029b85045b68181585d97816a916871ca8d3c208c16d87cfd479081815181030690528151810306905261283e565b61283e565b6102405161028090815261026051906102a0918252612f1b61014051602435600435612bce565b612f2d61016051606435604435612bce565b612f3f6101805160a435608435612bce565b6101a051916040517f1f185753a67c5663a749d39714436422510812730f0332cecd9b45e1b6fe5f3781527f05d39da1d81893675f62558c116db3b48b1e3b66a7ca59793d3e5597153721736020820152604081019384526107cf19936040826060816007895a01fa15610a2457604094608093600692865190525160608401525a01fa15610a2457612d006101c051612b42565b610220516000805160206133798339815191520360008051602061337983398151915290066101405161016051610180516101a051916101c051936101e05195604051966001885260208801600290526102e43590600080516020613379833981519152910995600080516020613379833981519152906102c4350994600080516020613379833981519152906102a43509936000805160206133798339815191529061028435099260008051602061337983398151915290610264350991600080516020613379833981519152906102443509600080516020613379833981519152910890600080516020613379833981519152910890600080516020613379833981519152910890600080516020613379833981519152910890600080516020613379833981519152910890600080516020613379833981519152910860408201526107cf195a01606060409260076102c093fa15610a2457565b60405161024081016040526020816101806132cc8183016101c084016132b3610200860161316a846101c435815260206101e435910152565b6102043583526102243560208401526132ad6101e09361318c8551828b612cee565b613196868a6128e0565b898901947f30644e72e131a029b85045b68181585d97816a916871ca8d3c208c16d87cfd479586815181030690527f26186a2d65ee4d2f9c9a5b91f86597d35f192cd120caf7e935d8443d1938e23d60408b01527f30441fd1b5d3370482c42152a8899027716989a6996c2535bc9f7fee8aaef79e60608b01527f1970ea81dd6992adfbc571effb03503adbbb6a857f578403c6c40e22d65b3c0260808b01527f054793348f12c0cf5622c340573cb277586319de359ab9389778f689786b1e4860a08b015261326d60e05160c08c019889612cee565b7f0931d596de2fd10f01ddd073fd5a90a976f169c76f039bb91c4775720042d43a600080516020613379833981519152809260e051905109099083612cee565b836128e0565b6132bc82612874565b6102e090815181030690526128aa565b7f198e9393920d483a7260bfb731fb5d25f1aa493335a9e71297e485b7aef312c26101008301527f1800deef121f1e76426a00665e5c4479674322d4f75edadd46debd5cd992f6ed6101208301527f090689d0585ff075ec9e99ad690c3395bc4b313370b38ef355acdadcd122975b6101408301527f12c85ea5db8c6deb4aab71808dcb408fe3d1e7690c43d37b4ce6cc0166fa7daa6101608301528160086107cf195a01fa9051169056fe30644e72e131a029b85045b68181585d2833e84879b9709143e1f593f0000001a26469706673582212202e74030b46babc814c1a05089d2c2c147b12cdaef84fbfa2fb82602fe334aad364736f6c63430008180033",
  "linkReferences": {},
  "deployedLinkReferences": {}
}