{
  "_format": "hh-sol-artifact-1",
  "contractName": "MockWstETH",
  "sourceName": "contracts/mocks/MockWstETH.sol",
  "abi": [
    {
      "inputs": [],
      "stateMutability": "nonpayable",
      "type": "constructor"
    },
    {
      "inputs": [
        {
          "internalType": "address",
          "name": "spender",
          "type": "address"
        },
        {
          "internalType": "uint256",
          "name": "allowance",
          "type": "uint256"
        },
        {
          "internalType": "uint256",
          "name": "needed",
          "type": "uint256"
        }
      ],
      "name": "ERC20InsufficientAllowance",
      "type": "error"
    },
    {
      "inputs": [
        {
          "internalType": "address",
          "name": "sender",
          "type": "address"
        },
        {
          "internalType": "uint256",
          "name": "balance",
          "type": "uint256"
        },
        {
          "internalType": "uint256",
          "name": "needed",
          "type": "uint256"
        }
      ],
      "name": "ERC20InsufficientBalance",
      "type": "error"
    },
    {
      "inputs": [
        {
          "internalType": "address",
          "name": "approver",
          "type": "address"
        }
      ],
      "name": "ERC20InvalidApprover",
      "type": "error"
    },
    {
      "inputs": [
        {
          "internalType": "address",
          "name": "receiver",
          "type": "address"
        }
      ],
      "name": "ERC20InvalidReceiver",
      "type": "error"
    },
    {
      "inputs": [
        {
          "internalType": "address",
          "name": "sender",
          "type": "address"
        }
      ],
      "name": "ERC20InvalidSender",
      "type": "error"
    },
    {
      "inputs": [
        {
          "internalType": "address",
          "name": "spender",
          "type": "address"
        }
      ],
      "name": "ERC20InvalidSpender",
      "type": "error"
    },
    {
      "anonymous": false,
      "inputs": [
        {
          "indexed": true,
          "internalType": "address",
          "name": "owner",
          "type": "address"
        },
        {
          "indexed": true,
          "internalType": "address",
          "name": "spender",
          "type": "address"
        },
        {
          "indexed": false,
          "internalType": "uint256",
          "name": "value",
          "type": "uint256"
        }
      ],
      "name": "Approval",
      "type": "event"
    },
    {
      "anonymous": false,
      "inputs": [
        {
          "indexed": true,
          "internalType": "address",
          "name": "user",
          "type": "address"
        },
        {
          "indexed": false,
          "internalType": "uint256",
          "name": "ethAmount",
          "type": "uint256"
        },
        {
          "indexed": false,
          "internalType": "uint256",
          "name": "wstETHAmount",
          "type": "uint256"
        }
      ],
      "name": "Deposited",
      "type": "event"
    },
    {
      "anonymous": false,
      "inputs": [
        {
          "indexed": true,
          "internalType": "address",
          "name": "from",
          "type": "address"
        },
        {
          "indexed": true,
          "internalType": "address",
          "name": "to",
          "type": "address"
        },
        {
          "indexed": false,
          "internalType": "uint256",
          "name": "value",
          "type": "uint256"
        }
      ],
      "name": "Transfer",
      "type": "event"
    },
    {
      "anonymous": false,
      "inputs": [
        {
          "indexed": true,
          "internalType": "address",
          "name": "user",
          "type": "address"
        },
        {
          "indexed": false,
          "internalType": "uint256",
          "name": "wstETHAmount",
          "type": "uint256"
        },
        {
          "indexed": false,
          "internalType": "uint256",
          "name": "ethAmount",
          "type": "uint256"
        }
      ],
      "name": "Withdrawn",
      "type": "event"
    },
    {
      "inputs": [
        {
          "internalType": "address",
          "name": "owner",
          "type": "address"
        },
        {
          "internalType": "address",
          "name": "spender",
          "type": "address"
        }
      ],
      "name": "allowance",
      "outputs": [
        {
          "internalType": "uint256",
          "name": "",
          "type": "uint256"
        }
      ],
      "stateMutability": "view",
      "type": "function"
    },
    {
      "inputs": [
        {
          "internalType": "address",
          "name": "spender",
          "type": "address"
        },
        {
          "internalType": "uint256",
          "name": "value",
          "type": "uint256"
        }
      ],
      "name": "approve",
      "outputs": [
        {
          "internalType": "bool",
          "name": "",
          "type": "bool"
        }
      ],
      "stateMutability": "nonpayable",
      "type": "function"
    },
    {
      "inputs": [
        {
          "internalType": "address",
          "name": "account",
          "type": "address"
        }
      ],
      "name": "balanceOf",
      "outputs": [
        {
          "internalType": "uint256",
          "name": "",
          "type": "uint256"
        }
      ],
      "stateMutability": "view",
      "type": "function"
    },
    {
      "inputs": [],
      "name": "decimals",
      "outputs": [
        {
          "internalType": "uint8",
          "name": "",
          "type": "uint8"
        }
      ],
      "stateMutability": "view",
      "type": "function"
    },
    {
      "inputs": [],
      "name": "deposit",
      "outputs": [],
      "stateMutability": "payable",
      "type": "function"
    },
    {
      "inputs": [
        {
          "internalType": "uint256",
          "name": "wstETHAmount",
          "type": "uint256"
        }
      ],
      "name": "getStETHByWstETH",
      "outputs": [
        {
          "internalType": "uint256",
          "name": "",
          "type": "uint256"
        }
      ],
      "stateMutability": "pure",
      "type": "function"
    },
    {
      "inputs": [
        {
          "internalType": "uint256",
          "name": "stETHAmount",
          "type": "uint256"
        }
      ],
      "name": "getWstETHByStETH",
      "outputs": [
        {
          "internalType": "uint256",
          "name": "",
          "type": "uint256"
        }
      ],
      "stateMutability": "pure",
      "type": "function"
    },
    {
      "inputs": [],
      "name": "name",
      "outputs": [
        {
          "internalType": "string",
          "name": "",
          "type": "string"
        }
      ],
      "stateMutability": "view",
      "type": "function"
    },
    {
      "inputs": [],
      "name": "symbol",
      "outputs": [
        {
          "internalType": "string",
          "name": "",
          "type": "string"
        }
      ],
      "stateMutability": "view",
      "type": "function"
    },
    {
      "inputs": [],
      "name": "totalSupply",
      "outputs": [
        {
          "internalType": "uint256",
          "name": "",
          "type": "uint256"
        }
      ],
      "stateMutability": "view",
      "type": "function"
    },
    {
      "inputs": [
        {
          "internalType": "address",
          "name": "to",
          "type": "address"
        },
        {
          "internalType": "uint256",
          "name": "value",
          "type": "uint256"
        }
      ],
      "name": "transfer",
      "outputs": [
        {
          "internalType": "bool",
          "name": "",
          "type": "bool"
        }
      ],
      "stateMutability": "nonpayable",
      "type": "function"
    },
    {
      "inputs": [
        {
          "internalType": "address",
          "name": "from",
          "type": "address"
        },
        {
          "internalType": "address",
          "name": "to",
          "type": "address"
        },
        {
          "internalType": "uint256",
          "name": "value",
          "type": "uint256"
        }
      ],
      "name": "transferFrom",
      "outputs": [
        {
          "internalType": "bool",
          "name": "",
          "type": "bool"
        }
      ],
      "stateMutability": "nonpayable",
      "type": "function"
    },
    {
      "inputs": [
        {
          "internalType": "uint256",
          "name": "wstETHAmount",
          "type": "uint256"
        }
      ],
      "name": "withdraw",
      "outputs": [],
      "stateMutability": "nonpayable",
      "type": "function"
    },
    {
      "stateMutability": "payable",
      "type": "receive"
    }
  ],
  "bytecode": "0x6080346200031a576040906001600160401b0390808301828111828210176200021a57835260128152602091710aee4c2e0e0cac840a6e8c2d6cac8408aa8960731b838301528351848101818110838211176200021a57855260068152650eee6e88aa8960d31b8482015282518281116200021a576003918254916001958684811c941680156200030f575b88851014620002f9578190601f94858111620002a3575b5088908583116001146200023c5760009262000230575b505060001982861b1c191690861b1783555b80519384116200021a5760049586548681811c911680156200020f575b82821014620001fa57838111620001af575b508092851160011462000141575093839491849260009562000135575b50501b92600019911b1c19161790555b51610a209081620003208239f35b01519350388062000117565b92919084601f1981168860005285600020956000905b8983831062000194575050501062000179575b50505050811b01905562000127565b01519060f884600019921b161c19169055388080806200016a565b85870151895590970196948501948893509081019062000157565b87600052816000208480880160051c820192848910620001f0575b0160051c019087905b828110620001e3575050620000fa565b60008155018790620001d3565b92508192620001ca565b602288634e487b7160e01b6000525260246000fd5b90607f1690620000e8565b634e487b7160e01b600052604160045260246000fd5b015190503880620000b9565b90889350601f19831691876000528a6000209260005b8c8282106200028c575050841162000273575b505050811b018355620000cb565b015160001983881b60f8161c1916905538808062000265565b8385015186558c9790950194938401930162000252565b90915085600052886000208580850160051c8201928b8610620002ef575b918a91869594930160051c01915b828110620002df575050620000a2565b600081558594508a9101620002cf565b92508192620002c1565b634e487b7160e01b600052602260045260246000fd5b93607f16936200008b565b600080fdfe608060408181526004918236101561002a575b505050361561002057600080fd5b610028610830565b005b600092833560e01c91826306fdde031461066c57508163095ea7b3146105c257816318160ddd146105a357816323b872dd146104af5781632e1a7d4d146102bb578163313ce5671461029f57816370a082311461026857816395d89b411461016357508063a9059cbb14610133578063b0e389001461012e578063bb2952fc1461012e578063d0e30db0146101145763dd62ed3e146100c95780610012565b34610110578060031936011261011057806020926100e56107aa565b6100ed6107c5565b6001600160a01b0391821683526001865283832091168252845220549051908152f35b5080fd5b828060031936011261012b57610128610830565b80f35b80fd5b6107db565b503461011057806003193601126101105760209061015c6101526107aa565b6024359033610925565b5160018152f35b83833461011057816003193601126101105780519180938054916001908360011c926001851694851561025e575b602095868610811461024b5785895290811561022757506001146101cf575b6101cb87876101c1828c03836107f8565b5191829182610761565b0390f35b81529295507f8a35acfbc15ff81a39ae7d344fd709f28e8600b4aa8c65c6b64bfe7fe36bd19b5b82841061021457505050826101cb946101c1928201019486806101b0565b80548685018801529286019281016101f6565b60ff19168887015250505050151560051b83010192506101c1826101cb86806101b0565b634e487b7160e01b845260228352602484fd5b93607f1693610191565b5050346101105760203660031901126101105760209181906001600160a01b036102906107aa565b16815280845220549051908152f35b5050346101105781600319360112610110576020905160128152f35b83833461011057602090816003193601126104ab57833593841561047c5733845283835284828520541061044457331561042f5733845283835281842054858110610404578590338652858552038285205584600254036002558382518681527fddf252ad1be2c89b69c2b068fc378daa952ba7f163c4a11628f55a4df523b3ef853392a38380808088335af13d156103ff573d67ffffffffffffffff81116103ec57835190610374601f8201601f19168701836107f8565b815285853d92013e5b156103b5575080847f92ccf450a286a957af52509bc1c9939d1a6a481783e142e41e2499f0bb66ebc69251938185528401523392a280f35b82606492519162461bcd60e51b83528201526013602482015272115512081d1c985b9cd9995c8819985a5b1959606a1b6044820152fd5b634e487b7160e01b865260418352602486fd5b61037d565b915163391434e360e21b81523391810191825260208201929092526040810185905281906060010390fd5b836024925191634b637e8f60e11b8352820152fd5b82606492519162461bcd60e51b83528201526014602482015273496e73756666696369656e742062616c616e636560601b6044820152fd5b82606492519162461bcd60e51b8352820152600b60248201526a16995c9bc8185b5bdd5b9d60aa1b6044820152fd5b8280fd5b9050823461012b57606036600319011261012b576104cb6107aa565b6104d36107c5565b916044359360018060a01b03831680835260016020528683203384526020528683205491600019831061050f575b60208861015c898989610925565b8683106105775781156105605733156105495750825260016020908152868320338452815291869020908590039055829061015c87610501565b8751634a1406b160e11b8152908101849052602490fd5b875163e602df0560e01b8152908101849052602490fd5b8751637dc7a0d960e11b8152339181019182526020820193909352604081018790528291506060010390fd5b5050346101105781600319360112610110576020906002549051908152f35b9050346104ab57816003193601126104ab576105dc6107aa565b602435903315610655576001600160a01b031691821561063e57508083602095338152600187528181208582528752205582519081527f8c5be1e5ebec7d5bd14f71427d1e84f3dd0314c0f7b2291e5b200ac8c7c3b925843392a35160018152f35b8351634a1406b160e11b8152908101859052602490fd5b835163e602df0560e01b8152808401869052602490fd5b9291503461075d578360031936011261075d57600354600181811c9186908281168015610753575b6020958686108214610740575084885290811561071e57506001146106c5575b6101cb86866101c1828b03836107f8565b929550600383527fc2575a0e9e593c00f959f8c92f12db2869c3395a3b0502d05e2516446f71f85b5b82841061070b57505050826101cb946101c19282010194386106b4565b80548685018801529286019281016106ee565b60ff191687860152505050151560051b83010192506101c1826101cb386106b4565b634e487b7160e01b845260229052602483fd5b93607f1693610694565b8380fd5b6020808252825181830181905290939260005b82811061079657505060409293506000838284010152601f8019910116010190565b818101860151848201604001528501610774565b600435906001600160a01b03821682036107c057565b600080fd5b602435906001600160a01b03821682036107c057565b346107c05760203660031901126107c05760206040516004358152f35b90601f8019910116810190811067ffffffffffffffff82111761081a57604052565b634e487b7160e01b600052604160045260246000fd5b34156108f15733156108d8576002543481018091116108c257600255336000526000602052604060002034815401905560405134815260007fddf252ad1be2c89b69c2b068fc378daa952ba7f163c4a11628f55a4df523b3ef60203393a36040513481523460208201527f73a19dd210f1a7f902193214c0ee91dd35ee5b4d920cba8d519eca65a7b488ca60403392a2565b634e487b7160e01b600052601160045260246000fd5b60405163ec442f0560e01b815260006004820152602490fd5b60405162461bcd60e51b815260206004820152600c60248201526b16995c9bc819195c1bdcda5d60a21b6044820152606490fd5b916001600160a01b038084169283156109d157169283156108d8576000908382528160205260408220549083821061099f575091604082827fddf252ad1be2c89b69c2b068fc378daa952ba7f163c4a11628f55a4df523b3ef958760209652828652038282205586815220818154019055604051908152a3565b60405163391434e360e21b81526001600160a01b03919091166004820152602481019190915260448101839052606490fd5b604051634b637e8f60e11b815260006004820152602490fdfea264697066735822122095e6e2400cbdbf53e6ef492195125b842bc4450f2e72f5ad620d18a3e95aca3f64736f6c63430008180033",
  "linkReferences": {},
  "deployedLinkReferences": {}
}