{
  "_format": "hh-sol-artifact-1",
  "contractName": "PrivacySwapHook",
  "sourceName": "contracts/PrivacySwapHook.sol",
  "abi": [
    {
      "inputs": [
        {
          "internalType": "contract IPoolManager",
          "name": "_poolManager",
          "type": "address"
        },
        {
          "internalType": "address",
          "name": "_wrappedMonero",
          "type": "address"
        },
        {
          "internalType": "address",
          "name": "_mintRelayer",
          "type": "address"
        }
      ],
      "stateMutability": "nonpayable",
      "type": "constructor"
    },
    {
      "inputs": [],
      "name": "HookNotImplemented",
      "type": "error"
    },
    {
      "inputs": [],
      "name": "InsufficientOutput",
      "type": "error"
    },
    {
      "inputs": [],
      "name": "InvalidRecipient",
      "type": "error"
    },
    {
      "inputs": [],
      "name": "InvalidSwapParams",
      "type": "error"
    },
    {
      "inputs": [],
      "name": "NotPoolManager",
      "type": "error"
    },
    {
      "inputs": [
        {
          "internalType": "address",
          "name": "token",
          "type": "address"
        }
      ],
      "name": "SafeERC20FailedOperation",
      "type": "error"
    },
    {
      "inputs": [],
      "name": "SlippageTooHigh",
      "type": "error"
    },
    {
      "inputs": [],
      "name": "SwapFailed",
      "type": "error"
    },
    {
      "inputs": [],
      "name": "Unauthorized",
      "type": "error"
    },
    {
      "anonymous": false,
      "inputs": [
        {
          "indexed": true,
          "internalType": "address",
          "name": "recipient",
          "type": "address"
        },
        {
          "indexed": true,
          "internalType": "address",
          "name": "outputToken",
          "type": "address"
        },
        {
          "indexed": false,
          "internalType": "uint256",
          "name": "wXMRAmount",
          "type": "uint256"
        },
        {
          "indexed": false,
          "internalType": "uint256",
          "name": "outputAmount",
          "type": "uint256"
        },
        {
          "indexed": false,
          "internalType": "bytes32",
          "name": "moneroTxHash",
          "type": "bytes32"
        }
      ],
      "name": "PrivacySwapExecuted",
      "type": "event"
    },
    {
      "anonymous": false,
      "inputs": [
        {
          "indexed": true,
          "internalType": "bytes32",
          "name": "intentHash",
          "type": "bytes32"
        },
        {
          "indexed": false,
          "internalType": "address",
          "name": "recipient",
          "type": "address"
        },
        {
          "indexed": false,
          "internalType": "address",
          "name": "outputToken",
          "type": "address"
        },
        {
          "indexed": false,
          "internalType": "uint256",
          "name": "minAmountOut",
          "type": "uint256"
        }
      ],
      "name": "SwapIntentRegistered",
      "type": "event"
    },
    {
      "inputs": [
        {
          "internalType": "address",
          "name": "sender",
          "type": "address"
        },
        {
          "components": [
            {
              "internalType": "Currency",
              "name": "currency0",
              "type": "address"
            },
            {
              "internalType": "Currency",
              "name": "currency1",
              "type": "address"
            },
            {
              "internalType": "uint24",
              "name": "fee",
              "type": "uint24"
            },
            {
              "internalType": "int24",
              "name": "tickSpacing",
              "type": "int24"
            },
            {
              "internalType": "contract IHooks",
              "name": "hooks",
              "type": "address"
            }
          ],
          "internalType": "struct PoolKey",
          "name": "key",
          "type": "tuple"
        },
        {
          "components": [
            {
              "internalType": "int24",
              "name": "tickLower",
              "type": "int24"
            },
            {
              "internalType": "int24",
              "name": "tickUpper",
              "type": "int24"
            },
            {
              "internalType": "int256",
              "name": "liquidityDelta",
              "type": "int256"
            },
            {
              "internalType": "bytes32",
              "name": "salt",
              "type": "bytes32"
            }
          ],
          "internalType": "struct ModifyLiquidityParams",
          "name": "params",
          "type": "tuple"
        },
        {
          "internalType": "BalanceDelta",
          "name": "delta",
          "type": "int256"
        },
        {
          "internalType": "BalanceDelta",
          "name": "feesAccrued",
          "type": "int256"
        },
        {
          "internalType": "bytes",
          "name": "hookData",
          "type": "bytes"
        }
      ],
      "name": "afterAddLiquidity",
      "outputs": [
        {
          "internalType": "bytes4",
          "name": "",
          "type": "bytes4"
        },
        {
          "internalType": "BalanceDelta",
          "name": "",
          "type": "int256"
        }
      ],
      "stateMutability": "nonpayable",
      "type": "function"
    },
    {
      "inputs": [
        {
          "internalType": "address",
          "name": "sender",
          "type": "address"
        },
        {
          "components": [
            {
              "internalType": "Currency",
              "name": "currency0",
              "type": "address"
            },
            {
              "internalType": "Currency",
              "name": "currency1",
              "type": "address"
            },
            {
              "internalType": "uint24",
              "name": "fee",
              "type": "uint24"
            },
            {
              "internalType": "int24",
              "name": "tickSpacing",
              "type": "int24"
            },
            {
              "internalType": "contract IHooks",
              "name": "hooks",
              "type": "address"
            }
          ],
          "internalType": "struct PoolKey",
          "name": "key",
          "type": "tuple"
        },
        {
          "internalType": "uint256",
          "name": "amount0",
          "type": "uint256"
        },
        {
          "internalType": "uint256",
          "name": "amount1",
          "type": "uint256"
        },
        {
          "internalType": "bytes",
          "name": "hookData",
          "type": "bytes"
        }
      ],
      "name": "afterDonate",
      "outputs": [
        {
          "internalType": "bytes4",
          "name": "",
          "type": "bytes4"
        }
      ],
      "stateMutability": "nonpayable",
      "type": "function"
    },
    {
      "inputs": [
        {
          "internalType": "address",
          "name": "sender",
          "type": "address"
        },
        {
          "components": [
            {
              "internalType": "Currency",
              "name": "currency0",
              "type": "address"
            },
            {
              "internalType": "Currency",
              "name": "currency1",
              "type": "address"
            },
            {
              "internalType": "uint24",
              "name": "fee",
              "type": "uint24"
            },
            {
              "internalType": "int24",
              "name": "tickSpacing",
              "type": "int24"
            },
            {
              "internalType": "contract IHooks",
              "name": "hooks",
              "type": "address"
            }
          ],
          "internalType": "struct PoolKey",
          "name": "key",
          "type": "tuple"
        },
        {
          "internalType": "uint160",
          "name": "sqrtPriceX96",
          "type": "uint160"
        },
        {
          "internalType": "int24",
          "name": "tick",
          "type": "int24"
        }
      ],
      "name": "afterInitialize",
      "outputs": [
        {
          "internalType": "bytes4",
          "name": "",
          "type": "bytes4"
        }
      ],
      "stateMutability": "nonpayable",
      "type": "function"
    },
    {
      "inputs": [
        {
          "internalType": "address",
          "name": "sender",
          "type": "address"
        },
        {
          "components": [
            {
              "internalType": "Currency",
              "name": "currency0",
              "type": "address"
            },
            {
              "internalType": "Currency",
              "name": "currency1",
              "type": "address"
            },
            {
              "internalType": "uint24",
              "name": "fee",
              "type": "uint24"
            },
            {
              "internalType": "int24",
              "name": "tickSpacing",
              "type": "int24"
            },
            {
              "internalType": "contract IHooks",
              "name": "hooks",
              "type": "address"
            }
          ],
          "internalType": "struct PoolKey",
          "name": "key",
          "type": "tuple"
        },
        {
          "components": [
            {
              "internalType": "int24",
              "name": "tickLower",
              "type": "int24"
            },
            {
              "internalType": "int24",
              "name": "tickUpper",
              "type": "int24"
            },
            {
              "internalType": "int256",
              "name": "liquidityDelta",
              "type": "int256"
            },
            {
              "internalType": "bytes32",
              "name": "salt",
              "type": "bytes32"
            }
          ],
          "internalType": "struct ModifyLiquidityParams",
          "name": "params",
          "type": "tuple"
        },
        {
          "internalType": "BalanceDelta",
          "name": "delta",
          "type": "int256"
        },
        {
          "internalType": "BalanceDelta",
          "name": "feesAccrued",
          "type": "int256"
        },
        {
          "internalType": "bytes",
          "name": "hookData",
          "type": "bytes"
        }
      ],
      "name": "afterRemoveLiquidity",
      "outputs": [
        {
          "internalType": "bytes4",
          "name": "",
          "type": "bytes4"
        },
        {
          "internalType": "BalanceDelta",
          "name": "",
          "type": "int256"
        }
      ],
      "stateMutability": "nonpayable",
      "type": "function"
    },
    {
      "inputs": [
        {
          "internalType": "address",
          "name": "sender",
          "type": "address"
        },
        {
          "components": [
            {
              "internalType": "Currency",
              "name": "currency0",
              "type": "address"
            },
            {
              "internalType": "Currency",
              "name": "currency1",
              "type": "address"
            },
            {
              "internalType": "uint24",
              "name": "fee",
              "type": "uint24"
            },
            {
              "internalType": "int24",
              "name": "tickSpacing",
              "type": "int24"
            },
            {
              "internalType": "contract IHooks",
              "name": "hooks",
              "type": "address"
            }
          ],
          "internalType": "struct PoolKey",
          "name": "key",
          "type": "tuple"
        },
        {
          "components": [
            {
              "internalType": "bool",
              "name": "zeroForOne",
              "type": "bool"
            },
            {
              "internalType": "int256",
              "name": "amountSpecified",
              "type": "int256"
            },
            {
              "internalType": "uint160",
              "name": "sqrtPriceLimitX96",
              "type": "uint160"
            }
          ],
          "internalType": "struct SwapParams",
          "name": "params",
          "type": "tuple"
        },
        {
          "internalType": "BalanceDelta",
          "name": "delta",
          "type": "int256"
        },
        {
          "internalType": "bytes",
          "name": "hookData",
          "type": "bytes"
        }
      ],
      "name": "afterSwap",
      "outputs": [
        {
          "internalType": "bytes4",
          "name": "",
          "type": "bytes4"
        },
        {
          "internalType": "int128",
          "name": "",
          "type": "int128"
        }
      ],
      "stateMutability": "nonpayable",
      "type": "function"
    },
    {
      "inputs": [
        {
          "internalType": "address",
          "name": "sender",
          "type": "address"
        },
        {
          "components": [
            {
              "internalType": "Currency",
              "name": "currency0",
              "type": "address"
            },
            {
              "internalType": "Currency",
              "name": "currency1",
              "type": "address"
            },
            {
              "internalType": "uint24",
              "name": "fee",
              "type": "uint24"
            },
            {
              "internalType": "int24",
              "name": "tickSpacing",
              "type": "int24"
            },
            {
              "internalType": "contract IHooks",
              "name": "hooks",
              "type": "address"
            }
          ],
          "internalType": "struct PoolKey",
          "name": "key",
          "type": "tuple"
        },
        {
          "components": [
            {
              "internalType": "int24",
              "name": "tickLower",
              "type": "int24"
            },
            {
              "internalType": "int24",
              "name": "tickUpper",
              "type": "int24"
            },
            {
              "internalType": "int256",
              "name": "liquidityDelta",
              "type": "int256"
            },
            {
              "internalType": "bytes32",
              "name": "salt",
              "type": "bytes32"
            }
          ],
          "internalType": "struct ModifyLiquidityParams",
          "name": "params",
          "type": "tuple"
        },
        {
          "internalType": "bytes",
          "name": "hookData",
          "type": "bytes"
        }
      ],
      "name": "beforeAddLiquidity",
      "outputs": [
        {
          "internalType": "bytes4",
          "name": "",
          "type": "bytes4"
        }
      ],
      "stateMutability": "nonpayable",
      "type": "function"
    },
    {
      "inputs": [
        {
          "internalType": "address",
          "name": "sender",
          "type": "address"
        },
        {
          "components": [
            {
              "internalType": "Currency",
              "name": "currency0",
              "type": "address"
            },
            {
              "internalType": "Currency",
              "name": "currency1",
              "type": "address"
            },
            {
              "internalType": "uint24",
              "name": "fee",
              "type": "uint24"
            },
            {
              "internalType": "int24",
              "name": "tickSpacing",
              "type": "int24"
            },
            {
              "internalType": "contract IHooks",
              "name": "hooks",
              "type": "address"
            }
          ],
          "internalType": "struct PoolKey",
          "name": "key",
          "type": "tuple"
        },
        {
          "internalType": "uint256",
          "name": "amount0",
          "type": "uint256"
        },
        {
          "internalType": "uint256",
          "name": "amount1",
          "type": "uint256"
        },
        {
          "internalType": "bytes",
          "name": "hookData",
          "type": "bytes"
        }
      ],
      "name": "beforeDonate",
      "outputs": [
        {
          "internalType": "bytes4",
          "name": "",
          "type": "bytes4"
        }
      ],
      "stateMutability": "nonpayable",
      "type": "function"
    },
    {
      "inputs": [
        {
          "internalType": "address",
          "name": "sender",
          "type": "address"
        },
        {
          "components": [
            {
              "internalType": "Currency",
              "name": "currency0",
              "type": "address"
            },
            {
              "internalType": "Currency",
              "name": "currency1",
              "type": "address"
            },
            {
              "internalType": "uint24",
              "name": "fee",
              "type": "uint24"
            },
            {
              "internalType": "int24",
              "name": "tickSpacing",
              "type": "int24"
            },
            {
              "internalType": "contract IHooks",
              "name": "hooks",
              "type": "address"
            }
          ],
          "internalType": "struct PoolKey",
          "name": "key",
          "type": "tuple"
        },
        {
          "internalType": "uint160",
          "name": "sqrtPriceX96",
          "type": "uint160"
        }
      ],
      "name": "beforeInitialize",
      "outputs": [
        {
          "internalType": "bytes4",
          "name": "",
          "type": "bytes4"
        }
      ],
      "stateMutability": "nonpayable",
      "type": "function"
    },
    {
      "inputs": [
        {
          "internalType": "address",
          "name": "sender",
          "type": "address"
        },
        {
          "components": [
            {
              "internalType": "Currency",
              "name": "currency0",
              "type": "address"
            },
            {
              "internalType": "Currency",
              "name": "currency1",
              "type": "address"
            },
            {
              "internalType": "uint24",
              "name": "fee",
              "type": "uint24"
            },
            {
              "internalType": "int24",
              "name": "tickSpacing",
              "type": "int24"
            },
            {
              "internalType": "contract IHooks",
              "name": "hooks",
              "type": "address"
            }
          ],
          "internalType": "struct PoolKey",
          "name": "key",
          "type": "tuple"
        },
        {
          "components": [
            {
              "internalType": "int24",
              "name": "tickLower",
              "type": "int24"
            },
            {
              "internalType": "int24",
              "name": "tickUpper",
              "type": "int24"
            },
            {
              "internalType": "int256",
              "name": "liquidityDelta",
              "type": "int256"
            },
            {
              "internalType": "bytes32",
              "name": "salt",
              "type": "bytes32"
            }
          ],
          "internalType": "struct ModifyLiquidityParams",
          "name": "params",
          "type": "tuple"
        },
        {
          "internalType": "bytes",
          "name": "hookData",
          "type": "bytes"
        }
      ],
      "name": "beforeRemoveLiquidity",
      "outputs": [
        {
          "internalType": "bytes4",
          "name": "",
          "type": "bytes4"
        }
      ],
      "stateMutability": "nonpayable",
      "type": "function"
    },
    {
      "inputs": [
        {
          "internalType": "address",
          "name": "sender",
          "type": "address"
        },
        {
          "components": [
            {
              "internalType": "Currency",
              "name": "currency0",
              "type": "address"
            },
            {
              "internalType": "Currency",
              "name": "currency1",
              "type": "address"
            },
            {
              "internalType": "uint24",
              "name": "fee",
              "type": "uint24"
            },
            {
              "internalType": "int24",
              "name": "tickSpacing",
              "type": "int24"
            },
            {
              "internalType": "contract IHooks",
              "name": "hooks",
              "type": "address"
            }
          ],
          "internalType": "struct PoolKey",
          "name": "key",
          "type": "tuple"
        },
        {
          "components": [
            {
              "internalType": "bool",
              "name": "zeroForOne",
              "type": "bool"
            },
            {
              "internalType": "int256",
              "name": "amountSpecified",
              "type": "int256"
            },
            {
              "internalType": "uint160",
              "name": "sqrtPriceLimitX96",
              "type": "uint160"
            }
          ],
          "internalType": "struct SwapParams",
          "name": "params",
          "type": "tuple"
        },
        {
          "internalType": "bytes",
          "name": "hookData",
          "type": "bytes"
        }
      ],
      "name": "beforeSwap",
      "outputs": [
        {
          "internalType": "bytes4",
          "name": "",
          "type": "bytes4"
        },
        {
          "internalType": "BeforeSwapDelta",
          "name": "",
          "type": "int256"
        },
        {
          "internalType": "uint24",
          "name": "",
          "type": "uint24"
        }
      ],
      "stateMutability": "nonpayable",
      "type": "function"
    },
    {
      "inputs": [
        {
          "internalType": "bytes32",
          "name": "",
          "type": "bytes32"
        }
      ],
      "name": "completedSwaps",
      "outputs": [
        {
          "internalType": "bool",
          "name": "",
          "type": "bool"
        }
      ],
      "stateMutability": "view",
      "type": "function"
    },
    {
      "inputs": [],
      "name": "getHookPermissions",
      "outputs": [
        {
          "components": [
            {
              "internalType": "bool",
              "name": "beforeInitialize",
              "type": "bool"
            },
            {
              "internalType": "bool",
              "name": "afterInitialize",
              "type": "bool"
            },
            {
              "internalType": "bool",
              "name": "beforeAddLiquidity",
              "type": "bool"
            },
            {
              "internalType": "bool",
              "name": "afterAddLiquidity",
              "type": "bool"
            },
            {
              "internalType": "bool",
              "name": "beforeRemoveLiquidity",
              "type": "bool"
            },
            {
              "internalType": "bool",
              "name": "afterRemoveLiquidity",
              "type": "bool"
            },
            {
              "internalType": "bool",
              "name": "beforeSwap",
              "type": "bool"
            },
            {
              "internalType": "bool",
              "name": "afterSwap",
              "type": "bool"
            },
            {
              "internalType": "bool",
              "name": "beforeDonate",
              "type": "bool"
            },
            {
              "internalType": "bool",
              "name": "afterDonate",
              "type": "bool"
            },
            {
              "internalType": "bool",
              "name": "beforeSwapReturnDelta",
              "type": "bool"
            },
            {
              "internalType": "bool",
              "name": "afterSwapReturnDelta",
              "type": "bool"
            },
            {
              "internalType": "bool",
              "name": "afterAddLiquidityReturnDelta",
              "type": "bool"
            },
            {
              "internalType": "bool",
              "name": "afterRemoveLiquidityReturnDelta",
              "type": "bool"
            }
          ],
          "internalType": "struct Hooks.Permissions",
          "name": "",
          "type": "tuple"
        }
      ],
      "stateMutability": "pure",
      "type": "function"
    },
    {
      "inputs": [],
      "name": "mintRelayer",
      "outputs": [
        {
          "internalType": "contract IMintRelayer",
          "name": "",
          "type": "address"
        }
      ],
      "stateMutability": "view",
      "type": "function"
    },
    {
      "inputs": [],
      "name": "poolManager",
      "outputs": [
        {
          "internalType": "contract IPoolManager",
          "name": "",
          "type": "address"
        }
      ],
      "stateMutability": "view",
      "type": "function"
    },
    {
      "inputs": [
        {
          "components": [
            {
              "internalType": "address",
              "name": "signer",
              "type": "address"
            },
            {
              "internalType": "address",
              "name": "recipient",
              "type": "address"
            },
            {
              "internalType": "address",
              "name": "lp",
              "type": "address"
            },
            {
              "internalType": "uint256",
              "name": "expectedAmount",
              "type": "uint256"
            },
            {
              "internalType": "uint256",
              "name": "nonce",
              "type": "uint256"
            },
            {
              "internalType": "uint256",
              "name": "deadline",
              "type": "uint256"
            },
            {
              "internalType": "uint256",
              "name": "maxRelayerFee",
              "type": "uint256"
            }
          ],
          "internalType": "struct IMintRelayer.MintIntent",
          "name": "mintIntent",
          "type": "tuple"
        },
        {
          "internalType": "bytes",
          "name": "mintSignature",
          "type": "bytes"
        },
        {
          "internalType": "bytes",
          "name": "proof",
          "type": "bytes"
        },
        {
          "internalType": "uint256[]",
          "name": "publicSignals",
          "type": "uint256[]"
        },
        {
          "components": [
            {
              "internalType": "bytes32",
              "name": "c",
              "type": "bytes32"
            },
            {
              "internalType": "bytes32",
              "name": "s",
              "type": "bytes32"
            },
            {
              "internalType": "bytes32",
              "name": "K1",
              "type": "bytes32"
            },
            {
              "internalType": "bytes32",
              "name": "K2",
              "type": "bytes32"
            }
          ],
          "internalType": "struct IMintRelayer.DLEQProof",
          "name": "dleqProof",
          "type": "tuple"
        },
        {
          "components": [
            {
              "internalType": "bytes32",
              "name": "R_x",
              "type": "bytes32"
            },
            {
              "internalType": "bytes32",
              "name": "R_y",
              "type": "bytes32"
            },
            {
              "internalType": "bytes32",
              "name": "S_x",
              "type": "bytes32"
            },
            {
              "internalType": "bytes32",
              "name": "S_y",
              "type": "bytes32"
            },
            {
              "internalType": "bytes32",
              "name": "P_x",
              "type": "bytes32"
            },
            {
              "internalType": "bytes32",
              "name": "P_y",
              "type": "bytes32"
            },
            {
              "internalType": "bytes32",
              "name": "B_x",
              "type": "bytes32"
            },
            {
              "internalType": "bytes32",
              "name": "B_y",
              "type": "bytes32"
            },
            {
              "internalType": "bytes32",
              "name": "G_x",
              "type": "bytes32"
            },
            {
              "internalType": "bytes32",
              "name": "G_y",
              "type": "bytes32"
            },
            {
              "internalType": "bytes32",
              "name": "A_x",
              "type": "bytes32"
            },
            {
              "internalType": "bytes32",
              "name": "A_y",
              "type": "bytes32"
            }
          ],
          "internalType": "struct IMintRelayer.Ed25519Proof",
          "name": "ed25519Proof",
          "type": "tuple"
        },
        {
          "components": [
            {
              "internalType": "bytes32",
              "name": "key",
              "type": "bytes32"
            },
            {
              "internalType": "bytes32",
              "name": "commitment",
              "type": "bytes32"
            },
            {
              "internalType": "bytes32",
              "name": "ecdhAmount",
              "type": "bytes32"
            }
          ],
          "internalType": "struct IMintRelayer.MoneroOutput",
          "name": "output",
          "type": "tuple"
        },
        {
          "internalType": "uint256",
          "name": "blockHeight",
          "type": "uint256"
        },
        {
          "internalType": "bytes32[]",
          "name": "txMerkleProof",
          "type": "bytes32[]"
        },
        {
          "internalType": "uint256",
          "name": "txIndex",
          "type": "uint256"
        },
        {
          "internalType": "bytes32[]",
          "name": "outputMerkleProof",
          "type": "bytes32[]"
        },
        {
          "internalType": "uint256",
          "name": "outputGlobalIndex",
          "type": "uint256"
        },
        {
          "components": [
            {
              "internalType": "address",
              "name": "recipient",
              "type": "address"
            },
            {
              "internalType": "address",
              "name": "outputToken",
              "type": "address"
            },
            {
              "internalType": "uint256",
              "name": "minAmountOut",
              "type": "uint256"
            },
            {
              "internalType": "uint256",
              "name": "deadline",
              "type": "uint256"
            },
            {
              "internalType": "bool",
              "name": "zeroForOne",
              "type": "bool"
            },
            {
              "internalType": "bytes32",
              "name": "moneroTxHash",
              "type": "bytes32"
            }
          ],
          "internalType": "struct PrivacySwapHook.SwapIntent",
          "name": "swapIntent",
          "type": "tuple"
        },
        {
          "components": [
            {
              "internalType": "Currency",
              "name": "currency0",
              "type": "address"
            },
            {
              "internalType": "Currency",
              "name": "currency1",
              "type": "address"
            },
            {
              "internalType": "uint24",
              "name": "fee",
              "type": "uint24"
            },
            {
              "internalType": "int24",
              "name": "tickSpacing",
              "type": "int24"
            },
            {
              "internalType": "contract IHooks",
              "name": "hooks",
              "type": "address"
            }
          ],
          "internalType": "struct PoolKey",
          "name": "poolKey",
          "type": "tuple"
        }
      ],
      "name": "privateMintAndSwap",
      "outputs": [],
      "stateMutability": "payable",
      "type": "function"
    },
    {
      "inputs": [
        {
          "internalType": "address",
          "name": "recipient",
          "type": "address"
        },
        {
          "internalType": "address",
          "name": "outputToken",
          "type": "address"
        },
        {
          "internalType": "uint256",
          "name": "minAmountOut",
          "type": "uint256"
        },
        {
          "internalType": "uint256",
          "name": "deadline",
          "type": "uint256"
        },
        {
          "internalType": "bool",
          "name": "zeroForOne",
          "type": "bool"
        },
        {
          "internalType": "bytes32",
          "name": "moneroTxHash",
          "type": "bytes32"
        }
      ],
      "name": "registerSwapIntent",
      "outputs": [
        {
          "internalType": "bytes32",
          "name": "intentHash",
          "type": "bytes32"
        }
      ],
      "stateMutability": "nonpayable",
      "type": "function"
    },
    {
      "inputs": [
        {
          "internalType": "bytes32",
          "name": "",
          "type": "bytes32"
        }
      ],
      "name": "swapIntents",
      "outputs": [
        {
          "internalType": "address",
          "name": "recipient",
          "type": "address"
        },
        {
          "internalType": "address",
          "name": "outputToken",
          "type": "address"
        },
        {
          "internalType": "uint256",
          "name": "minAmountOut",
          "type": "uint256"
        },
        {
          "internalType": "uint256",
          "name": "deadline",
          "type": "uint256"
        },
        {
          "internalType": "bool",
          "name": "zeroForOne",
          "type": "bool"
        },
        {
          "internalType": "bytes32",
          "name": "moneroTxHash",
          "type": "bytes32"
        }
      ],
      "stateMutability": "view",
      "type": "function"
    },
    {
      "inputs": [],
      "name": "wrappedMonero",
      "outputs": [
        {
          "internalType": "contract IWrappedMonero",
          "name": "",
          "type": "address"
        }
      ],
      "stateMutability": "view",
      "type": "function"
    }
  ],
  "bytecode": "0x60e0346200030c57601f620019be38819003918201601f191683019291906001600160401b03841183851017620003115781606092849260409687528339810103126200030c5780516001600160a01b039182821682036200030c5762000076846200006e6020840162000348565b920162000348565b916080526200008462000327565b60009081815281602082015281868201528160608201528160808201528160a08201528160c08201528160e0820152816101009181838201528782610120818185015281610140818187015281610160918183890152816101809581878b0152816101a0809b015281620000f762000327565b99818b528160208c01528a01528160608a01528160808a01528160a08a0152600160c08a0152600160e08a0152818c8a0152880152860152840152820152015261200030161590811591620002fd575b8115620002ee575b8115620002df575b8115620002d0575b8115620002c3575b508015620002b2575b8015620002a2575b801562000295575b801562000288575b80156200027b575b80156200026e575b801562000261575b801562000254575b620002415750821660a0521660c0525161166090816200035e823960805181818160fa01528181610186015281816101dc0152818161062f015281816106d10152818161075601528181610d8901528181610f260152818161125a015281816112ba0152611313015260a0518181816103d901528181610cbf0152610dca015260c05181818161068e01528181610a8e0152610c6c0152f35b630732d7b560e51b815230600452602490fd5b50600130161515620001a8565b50600230161515620001a0565b5060043016151562000198565b5060083016151562000190565b5060103016151562000188565b5060203016151562000180565b5084301615156001141562000178565b506080301615156001141562000170565b9050301615153862000167565b3061020016151591506200015f565b30610400161515915062000157565b3061080016151591506200014f565b30611000161515915062000147565b600080fd5b634e487b7160e01b600052604160045260246000fd5b604051906101c082016001600160401b038111838210176200031157604052565b51906001600160a01b03821682036200030c5756fe608080604052600436101561001357600080fd5b600090813560e01c90816321d0ee70146112fe57508063259982e5146112a6578063575e24b4146112025780635e813df81461080757806363f42c8c146107965780636c2bbe7e146106bd5780636fe7e6eb146107175780639f063efc146106bd578063a6c9d77014610678578063b47b2fb1146105d7578063b6a8b0fa146105c8578063b6da606914610408578063bcbb3f27146103c3578063c4d7fe0514610394578063c4e833ce1461020b578063dc4c90d3146101c6578063dc98354e146101545763e1b4af69146100e757600080fd5b34610151576100f5366114d1565b5050507f00000000000000000000000000000000000000000000000000000000000000006001600160a01b03163303925061013f91505057604051630a85dc2960e01b8152600490fd5b60405163570c108560e11b8152600490fd5b80fd5b50346101515760e03660031901126101515761016e611366565b5060a0366023190112610151576101836114bb565b507f00000000000000000000000000000000000000000000000000000000000000006001600160a01b0316330361013f57604051630a85dc2960e01b8152600490fd5b50346101515780600319360112610151576040517f00000000000000000000000000000000000000000000000000000000000000006001600160a01b03168152602090f35b5034610151578060031936011261015157806101c0916101a060405161023081611571565b8281528260208201528260408201528260608201528260808201528260a08201528260c08201528260e0820152826101008201528261012082015282610140820152826101608201528261018082015201526101a060405161029181611571565b8281528260208201528260408201528260608201528260808201528260a0820152600160c0820152600160e08201528261010082015282610120820152826101408201528261016082015282610180820152828282015260405192835260208101511515602084015260408101511515604084015260608101511515606084015260808101511515608084015260a0810151151560a084015260c0810151151560c084015260e0810151151560e084015261010081015115156101008401526101208101511515610120840152610140810151151561014084015261016081015115156101608401526101808101511515610180840152015115156101a0820152f35b50346101515760203660031901126101515760ff60406020926004358152600184522054166040519015158152f35b50346101515780600319360112610151576040517f00000000000000000000000000000000000000000000000000000000000000006001600160a01b03168152602090f35b50346101515760c036600319011261015157610422611366565b9061042b61137c565b604435606435936084358015158091036105c3576001600160a01b0382811694909160a4359186156105b15783811694851561059f57428a1061059f576040516bffffffffffffffffffffffff19606092831b8116602083019081529390921b909116603482015260488101879052606881018a9052608881018490524260a88083019190915281526104bf60c88261158d565b519020978897604051946104d286611556565b88865260208601908782528060408801938a8552606089019586526080890196875260a089019788528c81528060205260409020975116906bffffffffffffffffffffffff60a01b918289541617885560018801925116908254161790555160028501555160038401555115156004830190610559919060ff801983541691151516179055565b5190600501556040519283526020830152604082015260607f77524559ce4bd3b5e367d3e9f27d8cac31c8cdae6c412dea529096e45ccc260491a2604051908152602090f35b604051635037072d60e01b8152600490fd5b604051634e46966960e11b8152600490fd5b600080fd5b5034610151576100f5366114d1565b503461015157610160366003190112610151576105f2611366565b5060a03660231901126101515760603660c319011261015157610144356001600160401b0381116106745761062b903690600401611392565b50507f00000000000000000000000000000000000000000000000000000000000000006001600160a01b0316330361013f5760409081519063b47b2fb160e01b82526020820152f35b5080fd5b50346101515780600319360112610151576040517f00000000000000000000000000000000000000000000000000000000000000006001600160a01b03168152602090f35b5034610151576106cc36611452565b5050507f00000000000000000000000000000000000000000000000000000000000000006001600160a01b03163303935061013f9250505057604051630a85dc2960e01b8152600490fd5b50346101515761010036600319011261015157610732611366565b5060a0366023190112610151576107476114bb565b5060e4358060020b036105c3577f00000000000000000000000000000000000000000000000000000000000000006001600160a01b0316330361013f57604051630a85dc2960e01b8152600490fd5b503461015157602036600319011261015157604060c0916004358152806020522060018060a01b03908181541691600182015416906002810154600382015490600560ff600485015416930154936040519586526020860152604085015260608401521515608083015260a0820152f35b5036600319016105a081126106745760e0136101515760e4356001600160401b0381116106745761083c903690600401611392565b9091610104356001600160401b0381116106745761085e903690600401611392565b939092610124356001600160401b03811161114b57610881903690600401611422565b94906080366101431901126110c757610180366101c31901126110c7576060366103431901126110c7576103c4356001600160401b0381116111fe576108cb903690600401611422565b90610404356001600160401b0381116111fa576108ec903690600401611422565b92909360c0610443193601126110d35760a0366105031901126110d357610911611528565b61097861091c61153f565b6040516bffffffffffffffffffffffff19606094851b811660208301529190931b1660348301526104843560488301526104a43560688301526104e43560888301524260a88301528160c881015b03601f19810183528261158d565b60208151910120998a8a528960205260408a2060018060a01b0361099a611528565b166bffffffffffffffffffffffff60a01b9081835416178255600182019060018060a01b036109c761153f565b16908254161790556104843560028201556104a43560038201556104c43515156104c435036111e257610a0c6104c435600483019060ff801983541691151516179055565b60056104e435910155604051968760e08101106001600160401b0360e08a0111176111e65760e08801604052610a40611366565b8852610a4a61137c565b506044356001600160a01b03811690036111e25760443560408901526064356060890152608435608089015260a43560a089015260c43560c08901523060208901527f00000000000000000000000000000000000000000000000000000000000000006001600160a01b03163b156111e25760408051631aa8867360e21b815289516001600160a01b03908116600483015260208b015181166024830152918a01519091166044820152606089015160648201526080890151608482015260a089015160a482015260c09098015160c489015261044060e48901529a9b999a96998b998b998a999291610b42916104448c01916115ae565b906003198a8303016101048b0152610b59926115ae565b9060031988830301610124890152610b70926115cf565b90610144356101448701526101648035908701526101848035908701526101a48035908701526101c48035908701526101e48035908701526102048035908701526102248035908701526102448035908701526102648035908701526102848035908701526102a48035908701526102c48035908701526102e48035908701526103048035908701526103248035908701526103448035908701526103648035908701526103848035908701526103a4356103a4870152600319868303016103c4870152610c3d926115cf565b906103e4356103e485015260031984830301610404850152610c5e926115cf565b6104248035908301520381347f00000000000000000000000000000000000000000000000000000000000000006001600160a01b03165af180156111d7576111ac575b506040516370a0823160e01b815230600482015290916020826024817f00000000000000000000000000000000000000000000000000000000000000006001600160a01b03165afa9182156111a1578392611169575b5060405191610d0583611556565b610444356001600160a01b03811681036105c3578352610464356001600160a01b03811690036105c3576104643560208401526104843560408401526104a43560608401526104c43560808401526104e43560a08401526104a435421161059f57818452600160205260ff6040852054166111575760405163095ea7b360e01b81527f00000000000000000000000000000000000000000000000000000000000000006001600160a01b031660048201526024810182905260208180604481010381887f00000000000000000000000000000000000000000000000000000000000000006001600160a01b03165af1801561106b5761111b575b5060808301511515600160ff1b8214611107576080840151156110ed576401000276a45b604051918260608101106001600160401b036060850111176110d757606083016040528252602082018387038152604083019160018060a01b0316825260405192633cf3645360e21b84526105043560018060a01b0381168091036105c3576004850152610524356001600160a01b038116908190036105c35760248501526105443562ffffff81168091036110d3576044850152610564358060020b8091036105c3576064850152610584356001600160a01b038116908190036110d357608485015251151560a48401525160c4830152516001600160a01b0390811660e48301526101206101048301526101248201869052602090829061014490829089907f0000000000000000000000000000000000000000000000000000000000000000165af190811561106b57859161109d575b5060808401511561108857610f6d90600f0b6115f3565b600f0b915b6040840151831061107657602084810151855160405163a9059cbb60e01b8185019081526001600160a01b039283166024830152604482018890529290911692918891610fc2816064810161096a565b519082855af11561106b5785513d6110625750803b155b61104a57507fd9eb74b1331076cc5e8d1b1999e80eddb88b6c40c9c7c02bc3e1794765e028f1916060918652600160205260408620600160ff1982541617905560018060a01b038551169360a0600180821b036020880151169601519060405192835260208301526040820152a380f35b60249060405190635274afe760e01b82526004820152fd5b60011415610fd9565b6040513d87823e3d90fd5b60405163bb2875c360e01b8152600490fd5b6110949060801d6115f3565b600f0b91610f72565b90506020813d6020116110cb575b816110b86020938361158d565b810103126110c7575138610f56565b8480fd5b3d91506110ab565b8880fd5b634e487b7160e01b600052604160045260246000fd5b73fffd8963efd1fc6a506488495d951d5263988d25610e23565b634e487b7160e01b85526011600452602485fd5b6020813d60201161114f575b816111346020938361158d565b810103126110c757518015150361114b5738610dff565b8380fd5b3d9150611127565b60405163081ceff360e41b8152600490fd5b9091506020813d602011611199575b816111856020938361158d565b8101031261119557519038610cf7565b8280fd5b3d9150611178565b6040513d85823e3d90fd5b6001600160401b0381116111c35760405238610ca1565b634e487b7160e01b82526041600452602482fd5b6040513d84823e3d90fd5b8a80fd5b634e487b7160e01b8b52604160045260248bfd5b8780fd5b8580fd5b5034610151576101403660031901126101515761121d611366565b5060a03660231901126101515760603660c319011261015157610124356001600160401b03811161067457611256903690600401611392565b50507f00000000000000000000000000000000000000000000000000000000000000006001600160a01b0316330361013f57606090604051906315d7892d60e21b82528060208301526040820152f35b5034610151576112b5366113bf565b5050507f00000000000000000000000000000000000000000000000000000000000000006001600160a01b03163303915061013f905057604051630a85dc2960e01b8152600490fd5b8234610151575061130e366113bf565b5050507f00000000000000000000000000000000000000000000000000000000000000006001600160a01b031633039150611357905057604051630a85dc2960e01b8152600490fd5b63570c108560e11b8152600490fd5b600435906001600160a01b03821682036105c357565b602435906001600160a01b03821682036105c357565b9181601f840112156105c3578235916001600160401b0383116105c357602083818601950101116105c357565b906101606003198301126105c3576004356001600160a01b03811681036105c3579160a06023198201126105c357602491608060c3198301126105c35760c49161014435906001600160401b0382116105c35761141e91600401611392565b9091565b9181601f840112156105c3578235916001600160401b0383116105c3576020808501948460051b0101116105c357565b906101a06003198301126105c3576004356001600160a01b03811681036105c3579160a06023198201126105c357602491608060c3198301126105c35760c4916101443591610164359161018435906001600160401b0382116105c35761141e91600401611392565b60c435906001600160a01b03821682036105c357565b6101206003198201126105c3576004356001600160a01b03811681036105c3579160a06023198301126105c35760249160c4359160e4359161010435906001600160401b0382116105c35761141e91600401611392565b610444356001600160a01b03811681036105c35790565b610464356001600160a01b03811681036105c35790565b60c081019081106001600160401b038211176110d757604052565b6101c081019081106001600160401b038211176110d757604052565b90601f801991011681019081106001600160401b038211176110d757604052565b908060209392818452848401376000828201840152601f01601f1916010190565b81835290916001600160fb1b0383116105c35760209260051b809284830137010190565b600f0b6f7fffffffffffffffffffffffffffffff1981146116145760000390565b634e487b7160e01b600052601160045260246000fdfea26469706673582212201a786e348cee3fc55b047d4824e29788bf27017e1ad1ae310d8e4192c275065964736f6c63430008180033",
  "linkReferences": {},
  "deployedLinkReferences": {}
}