{
  "_format": "hh-sol-artifact-1",
  "contractName": "WrappedMonero",
  "sourceName": "contracts/WrappedMonero.sol",
  "abi": [
    {
      "inputs": [
        {
          "internalType": "address",
          "name": "_verifier",
          "type": "address"
        },
        {
          "internalType": "address",
          "name": "_wstETH",
          "type": "address"
        },
        {
          "internalType": "address",
          "name": "_pyth",
          "type": "address"
        },
        {
          "internalType": "uint256",
          "name": "_initialMoneroBlock",
          "type": "uint256"
        }
      ],
      "stateMutability": "nonpayable",
      "type": "constructor"
    },
    {
      "inputs": [],
      "name": "ECDSAInvalidSignature",
      "type": "error"
    },
    {
      "inputs": [
        {
          "internalType": "uint256",
          "name": "length",
          "type": "uint256"
        }
      ],
      "name": "ECDSAInvalidSignatureLength",
      "type": "error"
    },
    {
      "inputs": [
        {
          "internalType": "bytes32",
          "name": "s",
          "type": "bytes32"
        }
      ],
      "name": "ECDSAInvalidSignatureS",
      "type": "error"
    },
    {
      "inputs": [
        {
          "internalType": "address",
          "name": "spender",
          "type": "address"
        },
        {
          "internalType": "uint256",
          "name": "allowance",
          "type": "uint256"
        },
        {
          "internalType": "uint256",
          "name": "needed",
          "type": "uint256"
        }
      ],
      "name": "ERC20InsufficientAllowance",
      "type": "error"
    },
    {
      "inputs": [
        {
          "internalType": "address",
          "name": "sender",
          "type": "address"
        },
        {
          "internalType": "uint256",
          "name": "balance",
          "type": "uint256"
        },
        {
          "internalType": "uint256",
          "name": "needed",
          "type": "uint256"
        }
      ],
      "name": "ERC20InsufficientBalance",
      "type": "error"
    },
    {
      "inputs": [
        {
          "internalType": "address",
          "name": "approver",
          "type": "address"
        }
      ],
      "name": "ERC20InvalidApprover",
      "type": "error"
    },
    {
      "inputs": [
        {
          "internalType": "address",
          "name": "receiver",
          "type": "address"
        }
      ],
      "name": "ERC20InvalidReceiver",
      "type": "error"
    },
    {
      "inputs": [
        {
          "internalType": "address",
          "name": "sender",
          "type": "address"
        }
      ],
      "name": "ERC20InvalidSender",
      "type": "error"
    },
    {
      "inputs": [
        {
          "internalType": "address",
          "name": "spender",
          "type": "address"
        }
      ],
      "name": "ERC20InvalidSpender",
      "type": "error"
    },
    {
      "inputs": [
        {
          "internalType": "uint256",
          "name": "deadline",
          "type": "uint256"
        }
      ],
      "name": "ERC2612ExpiredSignature",
      "type": "error"
    },
    {
      "inputs": [
        {
          "internalType": "address",
          "name": "signer",
          "type": "address"
        },
        {
          "internalType": "address",
          "name": "owner",
          "type": "address"
        }
      ],
      "name": "ERC2612InvalidSigner",
      "type": "error"
    },
    {
      "inputs": [
        {
          "internalType": "address",
          "name": "account",
          "type": "address"
        },
        {
          "internalType": "uint256",
          "name": "currentNonce",
          "type": "uint256"
        }
      ],
      "name": "InvalidAccountNonce",
      "type": "error"
    },
    {
      "inputs": [],
      "name": "InvalidShortString",
      "type": "error"
    },
    {
      "inputs": [],
      "name": "ReentrancyGuardReentrantCall",
      "type": "error"
    },
    {
      "inputs": [
        {
          "internalType": "string",
          "name": "str",
          "type": "string"
        }
      ],
      "name": "StringTooLong",
      "type": "error"
    },
    {
      "anonymous": false,
      "inputs": [
        {
          "indexed": true,
          "internalType": "address",
          "name": "owner",
          "type": "address"
        },
        {
          "indexed": true,
          "internalType": "address",
          "name": "spender",
          "type": "address"
        },
        {
          "indexed": false,
          "internalType": "uint256",
          "name": "value",
          "type": "uint256"
        }
      ],
      "name": "Approval",
      "type": "event"
    },
    {
      "anonymous": false,
      "inputs": [
        {
          "indexed": true,
          "internalType": "uint256",
          "name": "burnId",
          "type": "uint256"
        },
        {
          "indexed": false,
          "internalType": "uint256",
          "name": "collateralSeized",
          "type": "uint256"
        }
      ],
      "name": "BurnDefaulted",
      "type": "event"
    },
    {
      "anonymous": false,
      "inputs": [
        {
          "indexed": true,
          "internalType": "uint256",
          "name": "burnId",
          "type": "uint256"
        },
        {
          "indexed": false,
          "internalType": "bytes32",
          "name": "xmrTxHash",
          "type": "bytes32"
        }
      ],
      "name": "BurnFulfilled",
      "type": "event"
    },
    {
      "anonymous": false,
      "inputs": [
        {
          "indexed": true,
          "internalType": "uint256",
          "name": "burnId",
          "type": "uint256"
        },
        {
          "indexed": true,
          "internalType": "address",
          "name": "user",
          "type": "address"
        },
        {
          "indexed": true,
          "internalType": "address",
          "name": "lp",
          "type": "address"
        },
        {
          "indexed": false,
          "internalType": "uint256",
          "name": "amount",
          "type": "uint256"
        },
        {
          "indexed": false,
          "internalType": "string",
          "name": "xmrAddress",
          "type": "string"
        }
      ],
      "name": "BurnRequested",
      "type": "event"
    },
    {
      "anonymous": false,
      "inputs": [],
      "name": "EIP712DomainChanged",
      "type": "event"
    },
    {
      "anonymous": false,
      "inputs": [
        {
          "indexed": true,
          "internalType": "address",
          "name": "lp",
          "type": "address"
        },
        {
          "indexed": false,
          "internalType": "uint256",
          "name": "ethAmount",
          "type": "uint256"
        },
        {
          "indexed": false,
          "internalType": "uint256",
          "name": "wstETHAmount",
          "type": "uint256"
        }
      ],
      "name": "LPDeposited",
      "type": "event"
    },
    {
      "anonymous": false,
      "inputs": [
        {
          "indexed": true,
          "internalType": "address",
          "name": "lp",
          "type": "address"
        },
        {
          "indexed": true,
          "internalType": "address",
          "name": "liquidator",
          "type": "address"
        },
        {
          "indexed": false,
          "internalType": "uint256",
          "name": "collateralAdded",
          "type": "uint256"
        }
      ],
      "name": "LPLiquidated",
      "type": "event"
    },
    {
      "anonymous": false,
      "inputs": [
        {
          "indexed": true,
          "internalType": "address",
          "name": "lp",
          "type": "address"
        },
        {
          "indexed": false,
          "internalType": "uint256",
          "name": "mintFeeBps",
          "type": "uint256"
        },
        {
          "indexed": false,
          "internalType": "uint256",
          "name": "burnFeeBps",
          "type": "uint256"
        }
      ],
      "name": "LPRegistered",
      "type": "event"
    },
    {
      "anonymous": false,
      "inputs": [
        {
          "indexed": true,
          "internalType": "address",
          "name": "lp",
          "type": "address"
        },
        {
          "indexed": false,
          "internalType": "uint256",
          "name": "mintFeeBps",
          "type": "uint256"
        },
        {
          "indexed": false,
          "internalType": "uint256",
          "name": "burnFeeBps",
          "type": "uint256"
        },
        {
          "indexed": false,
          "internalType": "bool",
          "name": "active",
          "type": "bool"
        }
      ],
      "name": "LPUpdated",
      "type": "event"
    },
    {
      "anonymous": false,
      "inputs": [
        {
          "indexed": true,
          "internalType": "address",
          "name": "lp",
          "type": "address"
        },
        {
          "indexed": false,
          "internalType": "uint256",
          "name": "wstETHAmount",
          "type": "uint256"
        },
        {
          "indexed": false,
          "internalType": "uint256",
          "name": "ethValue",
          "type": "uint256"
        }
      ],
      "name": "LPWithdrew",
      "type": "event"
    },
    {
      "anonymous": false,
      "inputs": [
        {
          "indexed": true,
          "internalType": "bytes32",
          "name": "intentId",
          "type": "bytes32"
        }
      ],
      "name": "MintIntentCancelled",
      "type": "event"
    },
    {
      "anonymous": false,
      "inputs": [
        {
          "indexed": true,
          "internalType": "bytes32",
          "name": "intentId",
          "type": "bytes32"
        },
        {
          "indexed": true,
          "internalType": "address",
          "name": "user",
          "type": "address"
        },
        {
          "indexed": true,
          "internalType": "address",
          "name": "lp",
          "type": "address"
        },
        {
          "indexed": false,
          "internalType": "uint256",
          "name": "expectedAmount",
          "type": "uint256"
        }
      ],
      "name": "MintIntentCreated",
      "type": "event"
    },
    {
      "anonymous": false,
      "inputs": [
        {
          "indexed": true,
          "internalType": "bytes32",
          "name": "intentId",
          "type": "bytes32"
        },
        {
          "indexed": false,
          "internalType": "uint256",
          "name": "actualAmount",
          "type": "uint256"
        }
      ],
      "name": "MintIntentFulfilled",
      "type": "event"
    },
    {
      "anonymous": false,
      "inputs": [
        {
          "indexed": true,
          "internalType": "address",
          "name": "recipient",
          "type": "address"
        },
        {
          "indexed": true,
          "internalType": "address",
          "name": "lp",
          "type": "address"
        },
        {
          "indexed": false,
          "internalType": "uint256",
          "name": "amount",
          "type": "uint256"
        },
        {
          "indexed": false,
          "internalType": "uint256",
          "name": "fee",
          "type": "uint256"
        },
        {
          "indexed": true,
          "internalType": "bytes32",
          "name": "outputId",
          "type": "bytes32"
        }
      ],
      "name": "Minted",
      "type": "event"
    },
    {
      "anonymous": false,
      "inputs": [
        {
          "indexed": true,
          "internalType": "uint256",
          "name": "blockHeight",
          "type": "uint256"
        },
        {
          "indexed": true,
          "internalType": "bytes32",
          "name": "blockHash",
          "type": "bytes32"
        }
      ],
      "name": "MoneroBlockPosted",
      "type": "event"
    },
    {
      "anonymous": false,
      "inputs": [
        {
          "indexed": true,
          "internalType": "address",
          "name": "oracle",
          "type": "address"
        },
        {
          "indexed": false,
          "internalType": "uint256",
          "name": "amount",
          "type": "uint256"
        }
      ],
      "name": "OracleYieldClaimed",
      "type": "event"
    },
    {
      "anonymous": false,
      "inputs": [
        {
          "indexed": false,
          "internalType": "uint256",
          "name": "xmrPrice",
          "type": "uint256"
        },
        {
          "indexed": false,
          "internalType": "uint256",
          "name": "ethPrice",
          "type": "uint256"
        },
        {
          "indexed": false,
          "internalType": "uint256",
          "name": "timestamp",
          "type": "uint256"
        }
      ],
      "name": "PriceUpdated",
      "type": "event"
    },
    {
      "anonymous": false,
      "inputs": [
        {
          "indexed": true,
          "internalType": "address",
          "name": "from",
          "type": "address"
        },
        {
          "indexed": true,
          "internalType": "address",
          "name": "to",
          "type": "address"
        },
        {
          "indexed": false,
          "internalType": "uint256",
          "name": "value",
          "type": "uint256"
        }
      ],
      "name": "Transfer",
      "type": "event"
    },
    {
      "inputs": [],
      "name": "BURN_TIMEOUT",
      "outputs": [
        {
          "internalType": "uint256",
          "name": "",
          "type": "uint256"
        }
      ],
      "stateMutability": "view",
      "type": "function"
    },
    {
      "inputs": [],
      "name": "DOMAIN_SEPARATOR",
      "outputs": [
        {
          "internalType": "bytes32",
          "name": "",
          "type": "bytes32"
        }
      ],
      "stateMutability": "view",
      "type": "function"
    },
    {
      "inputs": [],
      "name": "ETH_USD_PRICE_ID",
      "outputs": [
        {
          "internalType": "bytes32",
          "name": "",
          "type": "bytes32"
        }
      ],
      "stateMutability": "view",
      "type": "function"
    },
    {
      "inputs": [],
      "name": "LIQUIDATION_THRESHOLD",
      "outputs": [
        {
          "internalType": "uint256",
          "name": "",
          "type": "uint256"
        }
      ],
      "stateMutability": "view",
      "type": "function"
    },
    {
      "inputs": [],
      "name": "MAX_FEE_BPS",
      "outputs": [
        {
          "internalType": "uint256",
          "name": "",
          "type": "uint256"
        }
      ],
      "stateMutability": "view",
      "type": "function"
    },
    {
      "inputs": [],
      "name": "MAX_PRICE_AGE",
      "outputs": [
        {
          "internalType": "uint256",
          "name": "",
          "type": "uint256"
        }
      ],
      "stateMutability": "view",
      "type": "function"
    },
    {
      "inputs": [],
      "name": "MINT_INTENT_TIMEOUT",
      "outputs": [
        {
          "internalType": "uint256",
          "name": "",
          "type": "uint256"
        }
      ],
      "stateMutability": "view",
      "type": "function"
    },
    {
      "inputs": [],
      "name": "MIN_MINT_BPS",
      "outputs": [
        {
          "internalType": "uint256",
          "name": "",
          "type": "uint256"
        }
      ],
      "stateMutability": "view",
      "type": "function"
    },
    {
      "inputs": [],
      "name": "PICONERO_PER_XMR",
      "outputs": [
        {
          "internalType": "uint256",
          "name": "",
          "type": "uint256"
        }
      ],
      "stateMutability": "view",
      "type": "function"
    },
    {
      "inputs": [],
      "name": "SAFE_RATIO",
      "outputs": [
        {
          "internalType": "uint256",
          "name": "",
          "type": "uint256"
        }
      ],
      "stateMutability": "view",
      "type": "function"
    },
    {
      "inputs": [],
      "name": "XMR_USD_PRICE_ID",
      "outputs": [
        {
          "internalType": "bytes32",
          "name": "",
          "type": "bytes32"
        }
      ],
      "stateMutability": "view",
      "type": "function"
    },
    {
      "inputs": [
        {
          "internalType": "uint256",
          "name": "",
          "type": "uint256"
        }
      ],
      "name": "allLPs",
      "outputs": [
        {
          "internalType": "address",
          "name": "",
          "type": "address"
        }
      ],
      "stateMutability": "view",
      "type": "function"
    },
    {
      "inputs": [
        {
          "internalType": "address",
          "name": "owner",
          "type": "address"
        },
        {
          "internalType": "address",
          "name": "spender",
          "type": "address"
        }
      ],
      "name": "allowance",
      "outputs": [
        {
          "internalType": "uint256",
          "name": "",
          "type": "uint256"
        }
      ],
      "stateMutability": "view",
      "type": "function"
    },
    {
      "inputs": [
        {
          "internalType": "address",
          "name": "spender",
          "type": "address"
        },
        {
          "internalType": "uint256",
          "name": "value",
          "type": "uint256"
        }
      ],
      "name": "approve",
      "outputs": [
        {
          "internalType": "bool",
          "name": "",
          "type": "bool"
        }
      ],
      "stateMutability": "nonpayable",
      "type": "function"
    },
    {
      "inputs": [
        {
          "internalType": "address",
          "name": "account",
          "type": "address"
        }
      ],
      "name": "balanceOf",
      "outputs": [
        {
          "internalType": "uint256",
          "name": "",
          "type": "uint256"
        }
      ],
      "stateMutability": "view",
      "type": "function"
    },
    {
      "inputs": [
        {
          "internalType": "uint256",
          "name": "",
          "type": "uint256"
        }
      ],
      "name": "burnRequests",
      "outputs": [
        {
          "internalType": "address",
          "name": "user",
          "type": "address"
        },
        {
          "internalType": "address",
          "name": "lp",
          "type": "address"
        },
        {
          "internalType": "uint256",
          "name": "amount",
          "type": "uint256"
        },
        {
          "internalType": "uint256",
          "name": "depositAmount",
          "type": "uint256"
        },
        {
          "internalType": "string",
          "name": "xmrAddress",
          "type": "string"
        },
        {
          "internalType": "uint256",
          "name": "requestTime",
          "type": "uint256"
        },
        {
          "internalType": "uint256",
          "name": "collateralLocked",
          "type": "uint256"
        },
        {
          "internalType": "bool",
          "name": "fulfilled",
          "type": "bool"
        },
        {
          "internalType": "bool",
          "name": "defaulted",
          "type": "bool"
        }
      ],
      "stateMutability": "view",
      "type": "function"
    },
    {
      "inputs": [
        {
          "internalType": "uint256",
          "name": "burnId",
          "type": "uint256"
        }
      ],
      "name": "claimDefault",
      "outputs": [],
      "stateMutability": "nonpayable",
      "type": "function"
    },
    {
      "inputs": [
        {
          "internalType": "bytes32",
          "name": "intentId",
          "type": "bytes32"
        }
      ],
      "name": "claimExpiredIntent",
      "outputs": [],
      "stateMutability": "nonpayable",
      "type": "function"
    },
    {
      "inputs": [],
      "name": "claimOracleYield",
      "outputs": [],
      "stateMutability": "nonpayable",
      "type": "function"
    },
    {
      "inputs": [
        {
          "internalType": "address",
          "name": "lp",
          "type": "address"
        },
        {
          "internalType": "uint256",
          "name": "expectedAmount",
          "type": "uint256"
        }
      ],
      "name": "createMintIntent",
      "outputs": [
        {
          "internalType": "bytes32",
          "name": "intentId",
          "type": "bytes32"
        }
      ],
      "stateMutability": "payable",
      "type": "function"
    },
    {
      "inputs": [],
      "name": "decimals",
      "outputs": [
        {
          "internalType": "uint8",
          "name": "",
          "type": "uint8"
        }
      ],
      "stateMutability": "pure",
      "type": "function"
    },
    {
      "inputs": [],
      "name": "eip712Domain",
      "outputs": [
        {
          "internalType": "bytes1",
          "name": "fields",
          "type": "bytes1"
        },
        {
          "internalType": "string",
          "name": "name",
          "type": "string"
        },
        {
          "internalType": "string",
          "name": "version",
          "type": "string"
        },
        {
          "internalType": "uint256",
          "name": "chainId",
          "type": "uint256"
        },
        {
          "internalType": "address",
          "name": "verifyingContract",
          "type": "address"
        },
        {
          "internalType": "bytes32",
          "name": "salt",
          "type": "bytes32"
        },
        {
          "internalType": "uint256[]",
          "name": "extensions",
          "type": "uint256[]"
        }
      ],
      "stateMutability": "view",
      "type": "function"
    },
    {
      "inputs": [],
      "name": "ethUsdPrice",
      "outputs": [
        {
          "internalType": "uint256",
          "name": "",
          "type": "uint256"
        }
      ],
      "stateMutability": "view",
      "type": "function"
    },
    {
      "inputs": [
        {
          "internalType": "uint256",
          "name": "burnId",
          "type": "uint256"
        },
        {
          "internalType": "bytes32",
          "name": "xmrTxHash",
          "type": "bytes32"
        },
        {
          "internalType": "uint256",
          "name": "blockHeight",
          "type": "uint256"
        },
        {
          "internalType": "bytes32[]",
          "name": "txMerkleProof",
          "type": "bytes32[]"
        },
        {
          "internalType": "uint256",
          "name": "txIndex",
          "type": "uint256"
        }
      ],
      "name": "fulfillBurn",
      "outputs": [],
      "stateMutability": "nonpayable",
      "type": "function"
    },
    {
      "inputs": [],
      "name": "getActiveLPs",
      "outputs": [
        {
          "internalType": "address[]",
          "name": "addresses",
          "type": "address[]"
        },
        {
          "internalType": "string[]",
          "name": "moneroAddresses",
          "type": "string[]"
        },
        {
          "internalType": "uint256[]",
          "name": "mintFees",
          "type": "uint256[]"
        },
        {
          "internalType": "uint256[]",
          "name": "capacities",
          "type": "uint256[]"
        }
      ],
      "stateMutability": "view",
      "type": "function"
    },
    {
      "inputs": [],
      "name": "getEthUsdPrice",
      "outputs": [
        {
          "internalType": "uint256",
          "name": "",
          "type": "uint256"
        }
      ],
      "stateMutability": "view",
      "type": "function"
    },
    {
      "inputs": [
        {
          "internalType": "address",
          "name": "lp",
          "type": "address"
        }
      ],
      "name": "getLPAvailableCapacity",
      "outputs": [
        {
          "internalType": "uint256",
          "name": "",
          "type": "uint256"
        }
      ],
      "stateMutability": "view",
      "type": "function"
    },
    {
      "inputs": [],
      "name": "getLPCount",
      "outputs": [
        {
          "internalType": "uint256",
          "name": "",
          "type": "uint256"
        }
      ],
      "stateMutability": "view",
      "type": "function"
    },
    {
      "inputs": [
        {
          "internalType": "address",
          "name": "lp",
          "type": "address"
        }
      ],
      "name": "getLPRatio",
      "outputs": [
        {
          "internalType": "uint256",
          "name": "",
          "type": "uint256"
        }
      ],
      "stateMutability": "view",
      "type": "function"
    },
    {
      "inputs": [
        {
          "internalType": "address",
          "name": "user",
          "type": "address"
        }
      ],
      "name": "getUserMintIntents",
      "outputs": [
        {
          "internalType": "bytes32[]",
          "name": "intentIds",
          "type": "bytes32[]"
        },
        {
          "internalType": "address[]",
          "name": "lps",
          "type": "address[]"
        },
        {
          "internalType": "uint256[]",
          "name": "amounts",
          "type": "uint256[]"
        },
        {
          "internalType": "uint256[]",
          "name": "deposits",
          "type": "uint256[]"
        },
        {
          "internalType": "uint256[]",
          "name": "timestamps",
          "type": "uint256[]"
        }
      ],
      "stateMutability": "view",
      "type": "function"
    },
    {
      "inputs": [],
      "name": "getXmrEthPrice",
      "outputs": [
        {
          "internalType": "uint256",
          "name": "",
          "type": "uint256"
        }
      ],
      "stateMutability": "view",
      "type": "function"
    },
    {
      "inputs": [],
      "name": "getXmrUsdPrice",
      "outputs": [
        {
          "internalType": "uint256",
          "name": "",
          "type": "uint256"
        }
      ],
      "stateMutability": "view",
      "type": "function"
    },
    {
      "inputs": [],
      "name": "lastPriceUpdate",
      "outputs": [
        {
          "internalType": "uint256",
          "name": "",
          "type": "uint256"
        }
      ],
      "stateMutability": "view",
      "type": "function"
    },
    {
      "inputs": [],
      "name": "lastYieldSnapshot",
      "outputs": [
        {
          "internalType": "uint256",
          "name": "",
          "type": "uint256"
        }
      ],
      "stateMutability": "view",
      "type": "function"
    },
    {
      "inputs": [],
      "name": "latestMoneroBlock",
      "outputs": [
        {
          "internalType": "uint256",
          "name": "",
          "type": "uint256"
        }
      ],
      "stateMutability": "view",
      "type": "function"
    },
    {
      "inputs": [
        {
          "internalType": "address",
          "name": "lp",
          "type": "address"
        }
      ],
      "name": "liquidateLP",
      "outputs": [],
      "stateMutability": "payable",
      "type": "function"
    },
    {
      "inputs": [],
      "name": "lpDeposit",
      "outputs": [],
      "stateMutability": "payable",
      "type": "function"
    },
    {
      "inputs": [
        {
          "internalType": "uint256",
          "name": "wstETHAmount",
          "type": "uint256"
        }
      ],
      "name": "lpDepositWstETH",
      "outputs": [],
      "stateMutability": "nonpayable",
      "type": "function"
    },
    {
      "inputs": [
        {
          "internalType": "address",
          "name": "",
          "type": "address"
        }
      ],
      "name": "lpInfo",
      "outputs": [
        {
          "internalType": "uint256",
          "name": "collateralAmount",
          "type": "uint256"
        },
        {
          "internalType": "uint256",
          "name": "backedAmount",
          "type": "uint256"
        },
        {
          "internalType": "uint256",
          "name": "mintFeeBps",
          "type": "uint256"
        },
        {
          "internalType": "uint256",
          "name": "burnFeeBps",
          "type": "uint256"
        },
        {
          "internalType": "uint256",
          "name": "intentDepositBps",
          "type": "uint256"
        },
        {
          "internalType": "string",
          "name": "moneroAddress",
          "type": "string"
        },
        {
          "internalType": "bytes32",
          "name": "privateViewKey",
          "type": "bytes32"
        },
        {
          "internalType": "bool",
          "name": "active",
          "type": "bool"
        },
        {
          "internalType": "bool",
          "name": "registered",
          "type": "bool"
        }
      ],
      "stateMutability": "view",
      "type": "function"
    },
    {
      "inputs": [
        {
          "internalType": "uint256",
          "name": "amount",
          "type": "uint256"
        }
      ],
      "name": "lpWithdraw",
      "outputs": [],
      "stateMutability": "nonpayable",
      "type": "function"
    },
    {
      "inputs": [
        {
          "internalType": "uint256[24]",
          "name": "proof",
          "type": "uint256[24]"
        },
        {
          "internalType": "uint256[70]",
          "name": "publicSignals",
          "type": "uint256[70]"
        },
        {
          "components": [
            {
              "internalType": "bytes32",
              "name": "c",
              "type": "bytes32"
            },
            {
              "internalType": "bytes32",
              "name": "s",
              "type": "bytes32"
            },
            {
              "internalType": "bytes32",
              "name": "K1",
              "type": "bytes32"
            },
            {
              "internalType": "bytes32",
              "name": "K2",
              "type": "bytes32"
            }
          ],
          "internalType": "struct WrappedMonero.DLEQProof",
          "name": "dleqProof",
          "type": "tuple"
        },
        {
          "components": [
            {
              "internalType": "bytes32",
              "name": "R_x",
              "type": "bytes32"
            },
            {
              "internalType": "bytes32",
              "name": "R_y",
              "type": "bytes32"
            },
            {
              "internalType": "bytes32",
              "name": "S_x",
              "type": "bytes32"
            },
            {
              "internalType": "bytes32",
              "name": "S_y",
              "type": "bytes32"
            },
            {
              "internalType": "bytes32",
              "name": "P_x",
              "type": "bytes32"
            },
            {
              "internalType": "bytes32",
              "name": "P_y",
              "type": "bytes32"
            },
            {
              "internalType": "bytes32",
              "name": "B_x",
              "type": "bytes32"
            },
            {
              "internalType": "bytes32",
              "name": "B_y",
              "type": "bytes32"
            },
            {
              "internalType": "bytes32",
              "name": "G_x",
              "type": "bytes32"
            },
            {
              "internalType": "bytes32",
              "name": "G_y",
              "type": "bytes32"
            },
            {
              "internalType": "bytes32",
              "name": "A_x",
              "type": "bytes32"
            },
            {
              "internalType": "bytes32",
              "name": "A_y",
              "type": "bytes32"
            }
          ],
          "internalType": "struct WrappedMonero.Ed25519Proof",
          "name": "ed25519Proof",
          "type": "tuple"
        },
        {
          "components": [
            {
              "internalType": "bytes32",
              "name": "txHash",
              "type": "bytes32"
            },
            {
              "internalType": "uint256",
              "name": "outputIndex",
              "type": "uint256"
            },
            {
              "internalType": "bytes32",
              "name": "ecdhAmount",
              "type": "bytes32"
            },
            {
              "internalType": "bytes32",
              "name": "outputPubKey",
              "type": "bytes32"
            },
            {
              "internalType": "bytes32",
              "name": "commitment",
              "type": "bytes32"
            }
          ],
          "internalType": "struct WrappedMonero.MoneroTxOutput",
          "name": "output",
          "type": "tuple"
        },
        {
          "internalType": "uint256",
          "name": "blockHeight",
          "type": "uint256"
        },
        {
          "internalType": "bytes32[]",
          "name": "txMerkleProof",
          "type": "bytes32[]"
        },
        {
          "internalType": "uint256",
          "name": "txIndex",
          "type": "uint256"
        },
        {
          "internalType": "bytes32[]",
          "name": "outputMerkleProof",
          "type": "bytes32[]"
        },
        {
          "internalType": "uint256",
          "name": "outputIndex",
          "type": "uint256"
        },
        {
          "internalType": "address",
          "name": "recipient",
          "type": "address"
        },
        {
          "internalType": "address",
          "name": "lp",
          "type": "address"
        },
        {
          "internalType": "bytes32",
          "name": "txPublicKey",
          "type": "bytes32"
        },
        {
          "internalType": "bytes[]",
          "name": "priceUpdateData",
          "type": "bytes[]"
        }
      ],
      "name": "mint",
      "outputs": [],
      "stateMutability": "payable",
      "type": "function"
    },
    {
      "inputs": [
        {
          "internalType": "bytes32",
          "name": "",
          "type": "bytes32"
        }
      ],
      "name": "mintIntents",
      "outputs": [
        {
          "internalType": "address",
          "name": "user",
          "type": "address"
        },
        {
          "internalType": "address",
          "name": "lp",
          "type": "address"
        },
        {
          "internalType": "uint256",
          "name": "expectedAmount",
          "type": "uint256"
        },
        {
          "internalType": "uint256",
          "name": "depositAmount",
          "type": "uint256"
        },
        {
          "internalType": "uint256",
          "name": "createdAt",
          "type": "uint256"
        },
        {
          "internalType": "bool",
          "name": "fulfilled",
          "type": "bool"
        },
        {
          "internalType": "bool",
          "name": "cancelled",
          "type": "bool"
        }
      ],
      "stateMutability": "view",
      "type": "function"
    },
    {
      "inputs": [
        {
          "internalType": "uint256",
          "name": "",
          "type": "uint256"
        }
      ],
      "name": "moneroBlocks",
      "outputs": [
        {
          "internalType": "bytes32",
          "name": "blockHash",
          "type": "bytes32"
        },
        {
          "internalType": "bytes32",
          "name": "txMerkleRoot",
          "type": "bytes32"
        },
        {
          "internalType": "bytes32",
          "name": "outputMerkleRoot",
          "type": "bytes32"
        },
        {
          "internalType": "uint256",
          "name": "timestamp",
          "type": "uint256"
        },
        {
          "internalType": "bool",
          "name": "exists",
          "type": "bool"
        }
      ],
      "stateMutability": "view",
      "type": "function"
    },
    {
      "inputs": [],
      "name": "name",
      "outputs": [
        {
          "internalType": "string",
          "name": "",
          "type": "string"
        }
      ],
      "stateMutability": "view",
      "type": "function"
    },
    {
      "inputs": [],
      "name": "nextBurnId",
      "outputs": [
        {
          "internalType": "uint256",
          "name": "",
          "type": "uint256"
        }
      ],
      "stateMutability": "view",
      "type": "function"
    },
    {
      "inputs": [
        {
          "internalType": "address",
          "name": "owner",
          "type": "address"
        }
      ],
      "name": "nonces",
      "outputs": [
        {
          "internalType": "uint256",
          "name": "",
          "type": "uint256"
        }
      ],
      "stateMutability": "view",
      "type": "function"
    },
    {
      "inputs": [],
      "name": "oracle",
      "outputs": [
        {
          "internalType": "address",
          "name": "",
          "type": "address"
        }
      ],
      "stateMutability": "view",
      "type": "function"
    },
    {
      "inputs": [
        {
          "internalType": "address",
          "name": "owner",
          "type": "address"
        },
        {
          "internalType": "address",
          "name": "spender",
          "type": "address"
        },
        {
          "internalType": "uint256",
          "name": "value",
          "type": "uint256"
        },
        {
          "internalType": "uint256",
          "name": "deadline",
          "type": "uint256"
        },
        {
          "internalType": "uint8",
          "name": "v",
          "type": "uint8"
        },
        {
          "internalType": "bytes32",
          "name": "r",
          "type": "bytes32"
        },
        {
          "internalType": "bytes32",
          "name": "s",
          "type": "bytes32"
        }
      ],
      "name": "permit",
      "outputs": [],
      "stateMutability": "nonpayable",
      "type": "function"
    },
    {
      "inputs": [
        {
          "internalType": "uint256",
          "name": "blockHeight",
          "type": "uint256"
        },
        {
          "internalType": "bytes32",
          "name": "blockHash",
          "type": "bytes32"
        },
        {
          "internalType": "bytes32",
          "name": "txMerkleRoot",
          "type": "bytes32"
        },
        {
          "internalType": "bytes32",
          "name": "outputMerkleRoot",
          "type": "bytes32"
        }
      ],
      "name": "postMoneroBlock",
      "outputs": [],
      "stateMutability": "nonpayable",
      "type": "function"
    },
    {
      "inputs": [],
      "name": "pyth",
      "outputs": [
        {
          "internalType": "contract IPyth",
          "name": "",
          "type": "address"
        }
      ],
      "stateMutability": "view",
      "type": "function"
    },
    {
      "inputs": [
        {
          "internalType": "uint256",
          "name": "mintFeeBps",
          "type": "uint256"
        },
        {
          "internalType": "uint256",
          "name": "burnFeeBps",
          "type": "uint256"
        },
        {
          "internalType": "uint256",
          "name": "intentDepositBps",
          "type": "uint256"
        },
        {
          "internalType": "string",
          "name": "moneroAddress",
          "type": "string"
        },
        {
          "internalType": "bytes32",
          "name": "privateViewKey",
          "type": "bytes32"
        },
        {
          "internalType": "bool",
          "name": "active",
          "type": "bool"
        }
      ],
      "name": "registerLP",
      "outputs": [],
      "stateMutability": "nonpayable",
      "type": "function"
    },
    {
      "inputs": [
        {
          "internalType": "uint256",
          "name": "amount",
          "type": "uint256"
        },
        {
          "internalType": "string",
          "name": "xmrAddress",
          "type": "string"
        },
        {
          "internalType": "address",
          "name": "lp",
          "type": "address"
        }
      ],
      "name": "requestBurn",
      "outputs": [],
      "stateMutability": "payable",
      "type": "function"
    },
    {
      "inputs": [],
      "name": "symbol",
      "outputs": [
        {
          "internalType": "string",
          "name": "",
          "type": "string"
        }
      ],
      "stateMutability": "view",
      "type": "function"
    },
    {
      "inputs": [],
      "name": "totalLPCollateral",
      "outputs": [
        {
          "internalType": "uint256",
          "name": "",
          "type": "uint256"
        }
      ],
      "stateMutability": "view",
      "type": "function"
    },
    {
      "inputs": [],
      "name": "totalSupply",
      "outputs": [
        {
          "internalType": "uint256",
          "name": "",
          "type": "uint256"
        }
      ],
      "stateMutability": "view",
      "type": "function"
    },
    {
      "inputs": [
        {
          "internalType": "address",
          "name": "to",
          "type": "address"
        },
        {
          "internalType": "uint256",
          "name": "value",
          "type": "uint256"
        }
      ],
      "name": "transfer",
      "outputs": [
        {
          "internalType": "bool",
          "name": "",
          "type": "bool"
        }
      ],
      "stateMutability": "nonpayable",
      "type": "function"
    },
    {
      "inputs": [
        {
          "internalType": "address",
          "name": "from",
          "type": "address"
        },
        {
          "internalType": "address",
          "name": "to",
          "type": "address"
        },
        {
          "internalType": "uint256",
          "name": "value",
          "type": "uint256"
        }
      ],
      "name": "transferFrom",
      "outputs": [
        {
          "internalType": "bool",
          "name": "",
          "type": "bool"
        }
      ],
      "stateMutability": "nonpayable",
      "type": "function"
    },
    {
      "inputs": [
        {
          "internalType": "address",
          "name": "newOracle",
          "type": "address"
        }
      ],
      "name": "transferOracle",
      "outputs": [],
      "stateMutability": "nonpayable",
      "type": "function"
    },
    {
      "inputs": [
        {
          "internalType": "bytes[]",
          "name": "priceUpdateData",
          "type": "bytes[]"
        }
      ],
      "name": "updatePythPrice",
      "outputs": [],
      "stateMutability": "payable",
      "type": "function"
    },
    {
      "inputs": [
        {
          "internalType": "bytes32",
          "name": "",
          "type": "bytes32"
        }
      ],
      "name": "usedOutputs",
      "outputs": [
        {
          "internalType": "bool",
          "name": "",
          "type": "bool"
        }
      ],
      "stateMutability": "view",
      "type": "function"
    },
    {
      "inputs": [
        {
          "internalType": "address",
          "name": "",
          "type": "address"
        },
        {
          "internalType": "uint256",
          "name": "",
          "type": "uint256"
        }
      ],
      "name": "userMintIntents",
      "outputs": [
        {
          "internalType": "bytes32",
          "name": "",
          "type": "bytes32"
        }
      ],
      "stateMutability": "view",
      "type": "function"
    },
    {
      "inputs": [],
      "name": "verifier",
      "outputs": [
        {
          "internalType": "contract IPlonkVerifier",
          "name": "",
          "type": "address"
        }
      ],
      "stateMutability": "view",
      "type": "function"
    },
    {
      "inputs": [
        {
          "internalType": "bytes32",
          "name": "leaf",
          "type": "bytes32"
        },
        {
          "internalType": "bytes32",
          "name": "root",
          "type": "bytes32"
        },
        {
          "internalType": "bytes32[]",
          "name": "proof",
          "type": "bytes32[]"
        },
        {
          "internalType": "uint256",
          "name": "index",
          "type": "uint256"
        }
      ],
      "name": "verifyMerkleProof",
      "outputs": [
        {
          "internalType": "bool",
          "name": "",
          "type": "bool"
        }
      ],
      "stateMutability": "pure",
      "type": "function"
    },
    {
      "inputs": [
        {
          "internalType": "bytes32",
          "name": "leaf",
          "type": "bytes32"
        },
        {
          "internalType": "bytes32",
          "name": "root",
          "type": "bytes32"
        },
        {
          "internalType": "bytes32[]",
          "name": "proof",
          "type": "bytes32[]"
        },
        {
          "internalType": "uint256",
          "name": "index",
          "type": "uint256"
        }
      ],
      "name": "verifyMerkleProofSHA256",
      "outputs": [
        {
          "internalType": "bool",
          "name": "",
          "type": "bool"
        }
      ],
      "stateMutability": "pure",
      "type": "function"
    },
    {
      "inputs": [
        {
          "internalType": "bytes32",
          "name": "txHash",
          "type": "bytes32"
        },
        {
          "internalType": "uint256",
          "name": "blockHeight",
          "type": "uint256"
        },
        {
          "internalType": "bytes32[]",
          "name": "merkleProof",
          "type": "bytes32[]"
        },
        {
          "internalType": "uint256",
          "name": "index",
          "type": "uint256"
        }
      ],
      "name": "verifyTxInBlock",
      "outputs": [
        {
          "internalType": "bool",
          "name": "",
          "type": "bool"
        }
      ],
      "stateMutability": "view",
      "type": "function"
    },
    {
      "inputs": [],
      "name": "wstETH",
      "outputs": [
        {
          "internalType": "contract IWstETH",
          "name": "",
          "type": "address"
        }
      ],
      "stateMutability": "view",
      "type": "function"
    },
    {
      "inputs": [],
      "name": "xmrUsdPrice",
      "outputs": [
        {
          "internalType": "uint256",
          "name": "",
          "type": "uint256"
        }
      ],
      "stateMutability": "view",
      "type": "function"
    },
    {
      "stateMutability": "payable",
      "type": "receive"
    }
  ],
  "bytecode": "0x6101c08060405234620007195760808162005c6480380380916200002482856200073a565b83398101031262000719576200003a816200075e565b62000048602083016200075e565b90606062000059604085016200075e565b93015191604051916200006c836200071e565b601083526f5772617073796e7468204d6f6e65726f60801b92836020820152604051936200009a856200071e565b601085526020850152604051620000b1816200071e565b60058152643bb9ac26a960d91b602082015260405194620000d2866200071e565b60018652603160f81b60208701528051906001600160401b038211620004c15760035490600182811c921680156200070e575b6020831014620005e45781601f8493116200069c575b50602090601f8311600114620006115760009262000605575b50508160011b916000199060031b1c1916176003555b8051906001600160401b038211620004c15760045490600182811c92168015620005fa575b6020831014620005e45781601f84931162000572575b50602090601f8311600114620004e357600092620004d7575b50508160011b916000199060031b1c1916176004555b620001bf81620007e4565b94610120958652620001d185620009a8565b9161014092835260208151910120948560e05260208151910120610100978189524660a0526040519160208301977f8b73c3c69bb8fe3d512ecc4cf759cc79239f7b179b0ffacaa9a75d522b39400f8952604084015260608301524660808301523060a083015260a0825260c082019682881060018060401b03891117620004c15787604052825190206080523060c052600160085560018060a01b0380918161016097168752816101809816885216906101a0978289523360018060a01b031960095416176009556080816024816396834ad360e01b968782527f46b8cc9347f04391764a0361e0b17c3ba394b001e7c304f7650f6376e37c321d60c48a01525afa938415620004765760009462000482575b50506080908851169160246040518094819382527fff61491a931112ddf1bd8147cd1b641375f79f5825126d665480874634fd0ace60048301525afa908115620004765760009162000440575b506000825160070b138062000431575b15620003ec5762000357620003609262000b9f565b60155562000b9f565b6016554260175560145560405194614faa968762000cba88396080518761499e015260a05187614a59015260c05187614968015260e051876149ed01525186614a1301525185611cdb01525184611d0401525183818161042c01526133dd015251828181610d190152818161232d015281816125c70152612e63015251818181610c7b0152612fe20152f35b60405162461bcd60e51b815260206004820152601360248201527f496e76616c6964205079746820707269636573000000000000000000000000006044820152606490fd5b506000815160070b1362000342565b62000467915060803d6080116200046e575b6200045e81836200073a565b81019062000773565b3862000332565b503d62000452565b6040513d6000823e3d90fd5b60809294509060c0620004af9284903d8611620004b8575b620004a682856200073a565b01019062000773565b929038620002e5565b3d91506200049a565b634e487b7160e01b600052604160045260246000fd5b0151905038806200019e565b6004600090815293507f8a35acfbc15ff81a39ae7d344fd709f28e8600b4aa8c65c6b64bfe7fe36bd19b91905b601f198416851062000556576001945083601f198116106200053c575b505050811b01600455620001b4565b015160001960f88460031b161c191690553880806200052d565b8181015183556020948501946001909301929091019062000510565b60046000529091507f8a35acfbc15ff81a39ae7d344fd709f28e8600b4aa8c65c6b64bfe7fe36bd19b601f840160051c810160208510620005dc575b90849392915b601f830160051c82018110620005cc57505062000185565b60008155859450600101620005b4565b5080620005ae565b634e487b7160e01b600052602260045260246000fd5b91607f16916200016f565b01519050388062000134565b600360009081527fc2575a0e9e593c00f959f8c92f12db2869c3395a3b0502d05e2516446f71f85b9350601f198516905b81811062000683575090846001959493921062000669575b505050811b016003556200014a565b015160001960f88460031b161c191690553880806200065a565b9293602060018192878601518155019501930162000642565b60036000529091507fc2575a0e9e593c00f959f8c92f12db2869c3395a3b0502d05e2516446f71f85b601f840160051c81016020851062000706575b90849392915b601f830160051c82018110620006f65750506200011b565b60008155859450600101620006de565b5080620006d8565b91607f169162000105565b600080fd5b604081019081106001600160401b03821117620004c157604052565b601f909101601f19168101906001600160401b03821190821017620004c157604052565b51906001600160a01b03821682036200071957565b908160809103126200071957604051906001600160401b036080830181811184821017620004c15760405281518060070b81036200071957835260208201519081168103620007195760208301526040810151908160030b8203620007195760609160408401520151606082015290565b8051602091908281101562000883575090601f8251116200082257808251920151908083106200081357501790565b82600019910360031b1b161790565b90604051809263305a27a960e01b82528060048301528251908160248401526000935b82851062000869575050604492506000838284010152601f80199101168101030190fd5b848101820151868601604401529381019385935062000845565b6001600160401b038111620004c1576005928354926001938481811c911680156200099d575b83821014620005e457601f811162000966575b5081601f8411600114620008fc5750928293918392600094620008f0575b50501b916000199060031b1c191617905560ff90565b015192503880620008da565b919083601f1981168760005284600020946000905b888383106200094b575050501062000931575b505050811b01905560ff90565b015160001960f88460031b161c1916905538808062000924565b85870151885590960195948501948793509081019062000911565b8560005284601f846000209201871c820191601f8601881c015b82811062000990575050620008bc565b6000815501859062000980565b90607f1690620008a9565b80516020908181101562000a365750601f825111620009d557808251920151908083106200081357501790565b90604051809263305a27a960e01b82528060048301528251908160248401526000935b82851062000a1c575050604492506000838284010152601f80199101168101030190fd5b8481018201518686016044015293810193859350620009f8565b906001600160401b038211620004c157600654926001938481811c9116801562000b55575b83821014620005e457601f811162000b1b575b5081601f841160011462000aaf575092829391839260009462000aa3575b50501b916000199060031b1c19161760065560ff90565b01519250388062000a8c565b919083601f198116600660005284600020946000905b8883831062000b00575050501062000ae6575b505050811b0160065560ff90565b015160001960f88460031b161c1916905538808062000ad8565b85870151885590960195948501948793509081019062000ac5565b600660005284601f84600020920160051c820191601f860160051c015b82811062000b4857505062000a6e565b6000815501859062000b38565b90607f169062000a5b565b63ffffffff16604d811162000b7557600a0a90565b634e487b7160e01b600052601160045260246000fd5b8181029291811591840414171562000b7557565b805160409091015160009160070b90600381900b83811262000c0d57509062000bd262000bd99263ffffffff1662000b60565b9062000b8b565b90670de0b6b3a76400009182810292818404149015171562000bf9575090565b634e487b7160e01b81526011600452602490fd5b601201929050637fffffff19637fffffff84138185121762000ca557600384900b9082821262000c525750505062000bd262000c4f9263ffffffff1662000b60565b90565b90809294501462000c915762000c7090830363ffffffff1662000b60565b91821562000c7d57500490565b634e487b7160e01b81526012600452602490fd5b634e487b7160e01b83526011600452602483fd5b634e487b7160e01b82526011600452602482fdfe608080604052600436101561001d575b50361561001b57600080fd5b005b600090813560e01c90816306fdde0314613cf857508063095ea7b314613cd157806309a5d5bf14613b1857806311067f6a14613a6457806318160ddd14613a465780631c5d5141146136bd5780631e1ad6f1146136795780631f185fba146134fa57806323b872dd1461340c5780632b7ac3f3146133c75780632bc2ba2a146133a95780632e4b34af14612fa4578063313ce56714612f8857806331789d1814612e1c57806332bd826114612df857806333dfd90414612ddc5780633644e51514612dc157806336644a3c14612da35780633af66bb414612bbc57806343e8338b14612b2a5780634a8946d7146125f65780634aa07e64146125b157806352826db81461259357806355798623146122a457806359a892831461220d5780635bbf7491146121d25780635d48f61e146121975780636406c10c146120e85780636638e153146120c857806366ae7fc2146120ac5780636949faeb1461208e5780636f3ef29614611e3957806370a0823114611e015780637dc0d1d014611dd85780637ecebe0014611d9f57806384b0196e14611cc5578063868b080514611c7057806386da8ce814611c145780638c22f80114611b9357806390a8ae9b14611b775780639478ab8c146119e657806395d89b4114611a945780639841500914611a765780639c66ca4f14611a205780639d7f7e8614611a04578063a0a8045e146119e6578063a3836b5b14610e4b578063a42b261814610e50578063a9059cbb146119b4578063b0be02f414611935578063b490d7f51461190e578063bbbf744d146115fc578063c2668fc41461132e578063d41f515214611079578063d505accf14610f09578063d55be8c614610eec578063dd62ed3e14610e9d578063e0d5b8cc14610e6e578063e177b86b14610e50578063e349395814610e4b578063e60ab84b14610e1f578063e732680614610dd6578063f21fecc014610cc8578063f3b218a714610caa578063f98d06f014610c65578063facd66c714610aa25763fcd154ed0361000f57610f80366003190112610a9f573661030411610a9f5736610bc411610a9f57608036610bc3190112610a9f5761018036610c43190112610a9f5760a036610dc3190112610a9f576001600160401b03610e8435818111610a9b5761036f90369060040161401a565b91610ec435818111610a975761038990369060040161401a565b929091610f04356001600160a01b0381169003610a9257610f24356001600160a01b0381169003610a9257610f6435908111610a8e576103cd90369060040161401a565b50506103d76147be565b610f24356001600160a01b03168552600c6020526040852060078101549094906104039060ff16614678565b604051632cdb32b760e21b81526103006004808301376108c061030480830137602081610bc4817f00000000000000000000000000000000000000000000000000000000000000006001600160a01b03165afa908115610a83578791610a54575b5015610a1c57610f443561032435036109b1576104a86104b592610e64358852601360205261049c60ff600460408b200154166144b3565b610ea43592369161410c565b610e6435610dc4356144f2565b1561097a5761051e916040516020810190610dc4358252610de4356040820152610e04356060820152610e24356080820152610e443560a082015260a081526104fd81613e8c565b519020610e6435865260136020526040862060020154610ee43593916145b0565b1561093f5760405160208101906105588161054a62015180420461030435610f2435610f0435886146b4565b03601f198101835282613ec2565b5190208252600e60205260408220908291835b6007811080610937575b1561061b5761058981620151804204614177565b6040516105aa8161054a602082019461030435610f2435610f0435886146b4565b5190208552600e602052604085208054610f04356001600160a01b039081169116148061060c575b806105fa575b6105ec575b506105e790614414565b61056b565b6001945091506105e76105dd565b5060ff600582015460081c16156105d8565b5060ff600582015416156105d2565b509091156108f25780546001600160a01b03610f043581169116036108b65760018101546001600160a01b03610f2435811691160361087c576005810180549160ff83166108375760ff8360081c166107ff576002015461030435036107ba57600160ff198093161790556040516020810190610dc4358252610de4356040820152604081526106aa81613e71565b519020808452601060205260ff6040852054166107865783526010602052600160408420918254161790556127106106e960028301546103043561419a565b0460016106f98261030435614177565b92016107096103043582546143c7565b905561071882610f0435614ab9565b80610774575b6040519182526020820152610dc4359060018060a01b03610f243516907fd47eba6edaf2c9857fe4f9d2c619a4768f34d99b0a444305f97cf47a1652453a604060018060a01b03610f04351692a4600160085580f35b61078181610f2435614ab9565b61071e565b60405162461bcd60e51b815260206004820152600c60248201526b13dd5d1c1d5d081cdc195b9d60a21b6044820152606490fd5b60405162461bcd60e51b815260206004820152601c60248201527f416d6f756e7420646f6573206e6f74206d6174636820696e74656e74000000006044820152606490fd5b60405162461bcd60e51b815260206004820152601060248201526f125b9d195b9d0818d85b98d95b1b195960821b6044820152606490fd5b60405162461bcd60e51b815260206004820152601860248201527f496e74656e7420616c72656164792066756c66696c6c656400000000000000006044820152606490fd5b60405162461bcd60e51b8152602060048201526012602482015271092dce8cadce84098a040dad2e6dac2e8c6d60731b6044820152606490fd5b60405162461bcd60e51b8152602060048201526014602482015273092dce8cadce840eae6cae440dad2e6dac2e8c6d60631b6044820152606490fd5b60405162461bcd60e51b815260206004820152601a60248201527f4e6f2076616c6964206d696e7420696e74656e7420666f756e640000000000006044820152606490fd5b508315610575565b60405162461bcd60e51b81526020600482015260136024820152724f7574707574206e6f7420696e20626c6f636b60681b6044820152606490fd5b60405162461bcd60e51b815260206004820152600f60248201526e5458206e6f7420696e20626c6f636b60881b6044820152606490fd5b60405162461bcd60e51b815260206004820152603f60248201527f5472616e73616374696f6e207075626c6963206b6579206d69736d617463682060448201527f2d207573657220646f6573206e6f74206f776e2074686973204d6f6e65726f006064820152608490fd5b60405162461bcd60e51b815260206004820152601060248201526f24b73b30b634b2102d2590383937b7b360811b6044820152606490fd5b610a76915060203d602011610a7c575b610a6e8183613ec2565b81019061435a565b38610464565b503d610a64565b6040513d89823e3d90fd5b8580fd5b600080fd5b8480fd5b8280fd5b80fd5b5034610a9f57602080600319360112610c615760043590610ac16147be565b818352601181526040832080546001600160a01b03908116919033839003610c2d5760078201805460ff81161580610c1e575b610afd906146e2565b6005840154611c208101809111610c0a57421115610bd7576101009061ff0019161790558580808060068601968754905af1610b376141e8565b5015610b925785808080856003610b82967f6b2f4ea785119703276a53cdc8b34b5467a8171e92c8b40d6666673f2440efb09a99985416910154905af1610b7c6141e8565b50614722565b54604051908152a2600160085580f35b60405162461bcd60e51b815260048101859052601a60248201527f436f6c6c61746572616c207472616e73666572206661696c65640000000000006044820152606490fd5b60405162461bcd60e51b815260048101879052600b60248201526a139bdd08195e1c1a5c995960aa1b6044820152606490fd5b634e487b7160e01b89526011600452602489fd5b50600881901c60ff1615610af4565b60405162461bcd60e51b815260048101859052600c60248201526b2737ba103a3432903ab9b2b960a11b6044820152606490fd5b5080fd5b5034610a9f5780600319360112610a9f576040517f00000000000000000000000000000000000000000000000000000000000000006001600160a01b03168152602090f35b5034610a9f5780600319360112610a9f576020601254604051908152f35b5034610a9f57602080600319360112610c6157600435610ce66147be565b610cf1811515614423565b6040516323b872dd60e01b8152336004820152306024820152604481018290528281606481877f00000000000000000000000000000000000000000000000000000000000000006001600160a01b03165af18015610dcb57610dae575b50338352600c825260408320610d658282546143c7565b9055610d7381600a546143c7565b600a55604051918383528201527f68110eff112678c2b41e26b6f6fb09e80adcf42e4c096268137d5633787b071560403392a2600160085580f35b610dc490833d8511610a7c57610a6e8183613ec2565b5038610d4e565b6040513d86823e3d90fd5b5034610a9f576020366003190112610a9f57610df0613e0b565b600954906001600160a01b0390610e0a338385161461426e565b16906001600160601b0360a01b161760095580f35b5034610a9f576020366003190112610a9f576020610e43610e3e613e0b565b614766565b604051908152f35b61415a565b5034610a9f5780600319360112610a9f576020601554604051908152f35b5034610a9f576020366003190112610a9f5760ff60406020926004358152601084522054166040519015158152f35b5034610a9f576040366003190112610a9f57610eb7613e0b565b6040610ec1613e21565b9260018060a01b03809316815260016020522091166000526020526020604060002054604051908152f35b5034610a9f5780600319360112610a9f5760206040516101f48152f35b5034610a9f5760e0366003190112610a9f57610f23613e0b565b90610f2c613e21565b60443590606435936084359460ff86168603610a97578042116110615760018060a01b039081831696878752600760205260408720908154916001830190556040519260208401927f6e71edae12b1b97f4d1f60370fef10105fa2faae0126114a169c64845d6126c984528a6040860152858816606086015288608086015260a085015260c084015260c0835260e08301918383106001600160401b0384111761104b576110169361100d93604052519020610fe6614965565b906040519161190160f01b83526002830152602282015260c43591604260a4359220614e5f565b90929192614eef565b1685810361102d575061102a939450614b17565b80f35b60449086604051916325c0072360e11b835260048301526024820152fd5b634e487b7160e01b600052604160045260246000fd5b6024906040519063313c898160e11b82526004820152fd5b5034610a9f5780600319360112610a9f578081600d54905b8181106112c457506110a28261446d565b916110ac816140f5565b906110ba6040519283613ec2565b8082526110c6816140f5565b60209590601f19908101825b8181106112b55750506110ed6110e78461446d565b9361446d565b9482805b8282106111995750505061111396604051978897608089526080890190614084565b878103828901528551928382528282019083808660051b850101980195925b858410611163578a8061115f8c6111518d8d85820360408701526140c1565b9083820360608501526140c1565b0390f35b91938080979a9b506111838a8486600196989a9c9d030188528c51613de6565b9a0194019401918a999897969491959395611132565b6111aa829a9594969798999a613fb5565b60018060a01b0391549060031b1c16808552600c8652604085209060ff600783015416806112ab575b6111ec575b5050906001019098979695949293986110f1565b6111f6838d61449f565b5261120360058201613ee3565b61120d838b61449f565b52611218828a61449f565b506002810154611228838a61449f565b52611238600182549201546147e1565b9060649081810291818304149015171561129757916112839160966001940481811160001461128a576112739161126e91614177565b614a7f565b61127d828d61449f565b52614414565b90386111d8565b50508561127d828d61449f565b634e487b7160e01b86526011600452602486fd5b50815415156111d3565b60608682018a015288016110d2565b6112d18194929394613fb5565b905460039190911b1c6001600160a01b03168252600c60205260408220600781015460ff169081611323575b5061130f575b60010192919092611091565b9261131b600191614414565b939050611303565b9050541515386112fd565b5034610a9f5760a0366003190112610a9f576004356064356001600160401b038111610a9b5761136290369060040161401a565b61136a6147be565b82845260116020526040842060018101546001600160a01b031691338390036115ca5760078201549360ff851615806115bb575b6113a7906146e2565b600583015491611c208301808411610c0a57421161158c576044358852601360205260ff600460408a2001541615611547576113eb6113f69260843592369161410c565b6044356024356144f2565b156114ed57604435865260136020526003604087200154106114a8578480809392611455829460016114749860ff191617600784015560068301908154908552600c60205261144a604086209182546143c7565b905554600a546143c7565b600a558054600390910154906001600160a01b03165af1610b7c6141e8565b7fd316402f8986a8e0872a1ba5db4644c80181df241f9f81da60349d7904b26c6a60206040516024358152a2600160085580f35b60405162461bcd60e51b815260206004820152601860248201527f5458207072656461746573206275726e207265717565737400000000000000006044820152606490fd5b60405162461bcd60e51b815260206004820152602c60248201527f5458206e6f7420696e20626c6f636b202d204c50206d7573742070726f76652060448201526b161354881dd85cc81cd95b9d60a21b6064820152608490fd5b60405162461bcd60e51b815260206004820152601a60248201527f426c6f636b206e6f7420706f73746564206279206f7261636c650000000000006044820152606490fd5b60405162461bcd60e51b8152602060048201526007602482015266151a5b595bdd5d60ca1b6044820152606490fd5b50600885901c60ff161561139e565b60405162461bcd60e51b815260206004820152600a60248201526904e6f7420746865204c560b41b6044820152606490fd5b506040366003190112610a9f57611611613e0b565b6024803561161d6147be565b60018060a01b039384841692838252602095600c8752604083209561164860ff600789015416614678565b611668611671611657876147e1565b61271092839160048c01549061419a565b043410156143d4565b611680600189549901546147e1565b606498898102908082048b14901517156118fb5760969004818111156118f0576116ad9161126e91614177565b888102908082048a14901517156118dd57048510611889576040516116dd8161054a8b82019489429133886146b4565b51902095868452600e88528160408520541661185857506040519060e082018281106001600160401b0382111761184357604052338252878201918683526040810186815260608201348152608083019142835260a084019588875260c08501958987528d8d8b52600e90528060408b20965116906001600160601b0360a01b91828854161787556001870192511690825416179055516002840155516003830155516004820155600501915115156117a290839060ff801983541691151516179055565b51815461ff00191690151560081b61ff0016179055338252600f86526040822090815492600160401b841015611832575050906117e491600182018155614002565b81549060031b9085821b91600019901b1916179055604051908152827fdf99ec279a34d643cf08cf4322baebbf36d99a35e3c32aa18a9d02e279f868ec853393a46001600855604051908152f35b634e487b7160e01b81526041600452fd5b83634e487b7160e01b60005260416004526000fd5b60405162461bcd60e51b815260048101899052600d818501526c496e74656e742065786973747360981b6044820152fd5b60405162461bcd60e51b8152600481018990526028818501527f416d6f756e742062656c6f77206d696e696d756d20283125206f66204c502063604482015267617061636974792960c01b81890152608490fd5b634e487b7160e01b865260116004528486fd5b50506116ad85614a7f565b634e487b7160e01b875260116004528587fd5b5034610a9f57602061192b6119223661404a565b939290926145b0565b6040519015158152f35b5034610a9f576020366003190112610a9f57604060e0916004358152600e6020522060ff60018060a01b0391828154169260018201541690600281015460038201549060056004840154930154936040519687526020870152604086015260608501526080840152818116151560a084015260081c16151560c0820152f35b5034610a9f576040366003190112610a9f576119db6119d1613e0b565b602435903361481b565b602060405160018152f35b5034610a9f5780600319360112610a9f576020601654604051908152f35b5034610a9f5780600319360112610a9f576020604051603c8152f35b5034610a9f576040366003190112610a9f57611a3a613e0b565b6001600160a01b03168152600f6020526040812080546024359290831015610a9f576020611a688484614002565b90546040519160031b1c8152f35b5034610a9f5780600319360112610a9f576020600a54604051908152f35b5034610a9f5780600319360112610a9f57604051600454600082611ab783613e37565b9182825260209360019085600182169182600014611b57575050600114611afa575b50611ae692500383613ec2565b61115f604051928284938452830190613de6565b84915060046000527f8a35acfbc15ff81a39ae7d344fd709f28e8600b4aa8c65c6b64bfe7fe36bd19b906000915b858310611b3f575050611ae6935082010185611ad9565b80548389018501528794508693909201918101611b28565b60ff191685820152611ae695151560051b8501019250879150611ad99050565b5034610a9f5780600319360112610a9f57602060405160788152f35b5080600319360112610a9f57611ba76147be565b611bb2341515614423565b338152600c60205260408120611bc93482546143c7565b9055611bd734600a546143c7565b600a556040513481523460208201527f68110eff112678c2b41e26b6f6fb09e80adcf42e4c096268137d5633787b071560403392a2600160085580f35b5034610a9f576020366003190112610a9f57604060a0916004358152601360205220805490600181015490600281015460ff60046003840154930154169260405194855260208501526040840152606083015215156080820152f35b5034610a9f576080366003190112610a9f57604435906001600160401b038211610a9f5736602383011215610a9f57602061192b611cb63660048601356024870161410c565b606435906024356004356144f2565b5034610a9f5780600319360112610a9f57611cff7f0000000000000000000000000000000000000000000000000000000000000000614c9e565b611d287f0000000000000000000000000000000000000000000000000000000000000000614d9f565b6040519260208401938085106001600160401b0386111761104b57611d8061115f93611d7296604052838352604051968796600f60f81b885260e0602089015260e0880190613de6565b908682036040880152613de6565b9146606086015230608086015260a085015283820360c08501526140c1565b5034610a9f576020366003190112610a9f576020906040906001600160a01b03611dc7613e0b565b168152600783522054604051908152f35b5034610a9f5780600319360112610a9f576009546040516001600160a01b039091168152602090f35b5034610a9f576020366003190112610a9f576020906040906001600160a01b03611e29613e0b565b1681528083522054604051908152f35b5034610a9f5760209081600319360112610a9f57906001600160a01b0380611e5f613e0b565b168352600f8252604083208390848154905b81811061202b5750611e82836140f5565b94611e906040519687613ec2565b838652611e9c846140f5565b8682019790601f1901368937611eb18561446d565b92611ebb8661446d565b94611ece611ec88861446d565b9761446d565b978391845b848110611f5e5750505050506040519660a088019060a089525180915260c0880198915b818110611f4a57505050611f3c92611f208861115f979694611f2e948a809c03908b0152614084565b9087820360408901526140c1565b9085820360608701526140c1565b9083820360808501526140c1565b82518a529883019891830191600101611ef7565b8a878b600e899f998c60408f92611f75898b614002565b959054600396871b1c978883525220948c600587015460ff80821615918261201d575b5050611fb2575b50505050505050506001019a949a611ed3565b946120048c61127d968199949660019c9f97968f84611fea9161200d9f9d9a611fdd8360049d61449f565b5260018a0154169261449f565b52611ffa8360028801549261449f565b528401549261449f565b5201549261449f565b9390508a388b818c8c828c611f9f565b60081c161590503880611f98565b6120388184989798614002565b90549060031b1c8652600e8752600560408720015460ff808216159182612080575b505061206c575b600101959495611e71565b92612078600191614414565b939050612061565b60081c16159050388061205a565b5034610a9f5780600319360112610a9f576020601754604051908152f35b5034610a9f5780600319360112610a9f57602060405160648152f35b5034610a9f5780600319360112610a9f57602060405164e8d4a510008152f35b5034610a9f576020366003190112610a9f57604090600435815260116020522060018060a01b0380825416906001830154169060ff60028401549360038101549061217261213860048301613ee3565b6005830154956007600685015494015494604051998a99610120938b5260208b015260408a01526060890152806080890152870190613de6565b9360a086015260c0850152818116151560e085015260081c1615156101008301520390f35b5034610a9f5780600319360112610a9f5760206040517f46b8cc9347f04391764a0361e0b17c3ba394b001e7c304f7650f6376e37c321d8152f35b5034610a9f5780600319360112610a9f5760206040517fff61491a931112ddf1bd8147cd1b641375f79f5825126d665480874634fd0ace8152f35b5034610a9f5761221c3661404a565b929491925b818310612235576020858760405191148152f35b60019061224384848761445d565b359582968783161560001461227d57604051906020820192835260408201526040815261226f81613e71565b519020955b1c920191612221565b90604051906020820192835260408201526040815261229b81613e71565b51902095612274565b50602080600319360112610c61576122ba613e0b565b6122c26147be565b6122cd341515614423565b6001600160a01b03908116808452600c8352604084206001810154919290918015612559576122fd8354916147e1565b90606481029080820460641490151715612545579061231b916141ad565b609681101561250a576078116124c5577f0000000000000000000000000000000000000000000000000000000000000000166040516370a0823160e01b8082523060048301528582602481865afa918215610a83578792612496575b508680808034875af16123886141e8565b501561245c57859060246040518095819382523060048301525afa8015612451578690612422575b6123ba9250614177565b906123c68282546143c7565b90556123d481600a546143c7565b600a55338452600c83526123ed604085209182546143c7565b90557fbaf208336a39727bf216d1a5b6a1d16ce220bc2258658e74658670260f0398e6604051923484523393a3600160085580f35b508482813d831161244a575b6124388183613ec2565b81010312610a92576123ba91516123b0565b503d61242e565b6040513d88823e3d90fd5b60405162461bcd60e51b81526004810187905260126024820152711ddcdd115512081ddc985c0819985a5b195960721b6044820152606490fd5b9091508581813d83116124be575b6124ae8183613ec2565b81010312610a9257519038612377565b503d6124a4565b60405162461bcd60e51b815260048101859052601b60248201527f42656c6f77206c69717569646174696f6e207468726573686f6c6400000000006044820152606490fd5b60405162461bcd60e51b81526004810186905260136024820152724c50206e6f7420696e207269736b206d6f646560681b6044820152606490fd5b634e487b7160e01b87526011600452602487fd5b60405162461bcd60e51b81526004810186905260126024820152712628103430b9903737903837b9b4ba34b7b760711b6044820152606490fd5b5034610a9f5780600319360112610a9f576020601454604051908152f35b5034610a9f5780600319360112610a9f576040517f00000000000000000000000000000000000000000000000000000000000000006001600160a01b03168152602090f35b506060366003190112610a9f576024356001600160401b038111610c6157612622903690600401613f88565b6044356001600160a01b0381168103610a925761263d6147be565b33845283602052600435604085205410612aee576001600160a01b0381168452600c602052604084209061268661271061166861267b6004356147e1565b60048601549061419a565b60018201600435815410612ab75761269f6004356147e1565b926096840293808504609614901517156125455760648404815410612a72573315612a59573360005260006020526040600020546004358110612a2e57336000526000602052600435900360406000205560043560025403600255600060405160043581527fddf252ad1be2c89b69c2b068fc378daa952ba7f163c4a11628f55a4df523b3ef60203392a3612738606485048254614177565b90556127476004358254614177565b905561275860648304600a54614177565b600a556012549161276883614414565b60125560405190816101208101106001600160401b036101208401111761104b57610120820160409081523383526001600160a01b0384166020840152600435908301523460608301526127bb856141cd565b906127c96040519283613ec2565b8582523686880111612a2a5781868860206064950137886020888301015260808401524260a08401520460c08201528560e08201528561010082015282865260116020526040862060018060a01b038251166001600160601b0360a01b9081835416178255600182019060018060a01b0360208501511690825416179055604082015160028201556060820151600382015560808201518051906001600160401b038211612a165761288b826128826004860154613e37565b60048601614218565b60209089601f8411600114612979577f9db6d246bceaf6e0c474647c8887bdf26300b787958d393ff878cbcfdccd03be96946128ec8561293c966129639996610100966007969261296e575b50508160011b916000199060031b1c19161790565b60048201555b60a0840151600582015560c08401516006820155019161292460e08201511515849060ff801983541691151516179055565b0151815461ff00191690151560081b61ff0016179055565b60405191829160043583526040602084015260018060a01b031696339660408401916142a8565b0390a4600160085580f35b0151905038806128d7565b5090600484018a5260208a20918a5b601f19851681106129fe57507f9db6d246bceaf6e0c474647c8887bdf26300b787958d393ff878cbcfdccd03be969460018561296398956101009560079561293c99601f198116106129e5575b505050811b0160048201556128f2565b015160001960f88460031b161c191690553880806129d5565b91926020600181928685015181550194019201612988565b634e487b7160e01b89526041600452602489fd5b8780fd5b60405163391434e360e21b815233600480830191909152602482019290925290356044820152606490fd5b604051634b637e8f60e11b815260048101889052602490fd5b60405162461bcd60e51b815260206004820152601a60248201527f4c5020696e73756666696369656e7420636f6c6c61746572616c0000000000006044820152606490fd5b60405162461bcd60e51b815260206004820152600f60248201526e26281031b0b73737ba1031b7bb32b960891b6044820152606490fd5b60405162461bcd60e51b8152602060048201526014602482015273496e73756666696369656e742062616c616e636560601b6044820152606490fd5b5034610a9f5780600319360112610a9f57601654908115612b835760155490670de0b6b3a764000091828102928184041490151715612b6f576020610e4384846141ad565b634e487b7160e01b81526011600452602490fd5b60405162461bcd60e51b8152602060048201526011602482015270115512081c1c9a58d9481b9bdd081cd95d607a1b6044820152606490fd5b5034610a9f57602080600319360112610c615760043590612bdb6147be565b818352600e81526040832060018101546001600160a01b03163303612d5e5760058101805460ff8116612d255760ff8160081c16612cec576004830154611c20810180911161254557421115612cb55785600381948294610100849561ff0019161790550154335af1612c4c6141e8565b5015612c7f57507f619acd1201fae3aa7c6b609db5ab07d49cd677cc0f153e9f4433e421b5c166c38280a2600160085580f35b6064906040519062461bcd60e51b82526004820152600f60248201526e151c985b9cd9995c8819985a5b1959608a1b6044820152fd5b60405162461bcd60e51b815260048101859052600f60248201526e139bdd08195e1c1a5c9959081e595d608a1b6044820152606490fd5b60405162461bcd60e51b8152600481018590526011602482015270105b1c9958591e4818d85b98d95b1b1959607a1b6044820152606490fd5b60405162461bcd60e51b8152600481018590526011602482015270105b1c9958591e48199d5b199a5b1b1959607a1b6044820152606490fd5b60405162461bcd60e51b815260048101839052601a60248201527f4e6f7420746865204c5020666f72207468697320696e74656e740000000000006044820152606490fd5b5034610a9f5780600319360112610a9f576020600d54604051908152f35b5034610a9f5780600319360112610a9f576020610e43614965565b5034610a9f5780600319360112610a9f57602060405160968152f35b5034610a9f576020366003190112610a9f576020610e43612e17613e0b565b614372565b5034610a9f5780600319360112610a9f576009546001600160a01b0390612e46908216331461426e565b612e4e6147be565b6040516370a0823160e01b81523060048201527f00000000000000000000000000000000000000000000000000000000000000008216918391602091908281602481885afa908115610dcb578491612f57575b50600a5490818111612eb7575b84600160085580f35b8391612ec291614177565b9460448360095416604051968793849263a9059cbb60e01b845260048401528960248401525af1928315612f4c577f11c71826e26b41b911cb9086341b970409be016b761fa45f3bef3ae4aa3f0fc193612f2f575b506009541692604051908152a2388181808080612eae565b612f4590833d8511610a7c57610a6e8183613ec2565b5038612f17565b6040513d87823e3d90fd5b809450838092503d8311612f81575b612f708183613ec2565b81010312610a925784925138612ea1565b503d612f66565b5034610a9f5780600319360112610a9f576020604051600c8152f35b50602080600319360112610c61576001600160401b03906004358281116133a557612fd390369060040161401a565b60405163d47eed4560e01b81527f00000000000000000000000000000000000000000000000000000000000000006001600160a01b03169490929184848061301f8487600484016142c9565b0381895afa938415610a83578794613372575b5083341061333a578690863b15610c6157604051631df3cbc560e31b815293849182916130639190600484016142c9565b038186895af1801561245157613312575b505080849134116132b9575b505060405163052571af60e51b8082527f46b8cc9347f04391764a0361e0b17c3ba394b001e7c304f7650f6376e37c321d6004830152603c602483015260809390918481604481855afa928315612451578591879461329a575b5060446040518094819382527fff61491a931112ddf1bd8147cd1b641375f79f5825126d665480874634fd0ace6004830152603c60248301525afa938415612f4c57859461326b575b505083815160070b138061325e575b156132285761314361314991614bbe565b92614bbe565b9160155480156000146132075750915b8260155560165480156000146131ad5750916060917f15819dd2fd9f6418b142e798d08a18d0bf06ea368f4480b7b0d3f75bd966bc4893905b8160165542601755604051928352820152426040820152a180f35b600981029081046009036131f35791600a6131ec7f15819dd2fd9f6418b142e798d08a18d0bf06ea368f4480b7b0d3f75bd966bc4895936060956143c7565b0490613192565b634e487b7160e01b85526011600452602485fd5b600981029081046009036131f357600a91613221916143c7565b0491613159565b60405162461bcd60e51b815260048101839052600e60248201526d496e76616c69642070726963657360901b6044820152606490fd5b5083835160070b13613132565b61328b929450803d10613293575b6132838183613ec2565b8101906148f9565b913880613123565b503d613279565b6132b2919450823d8411613293576132838183613ec2565b92386130da565b81806132c6819334614177565b335af16132d16141e8565b50156132de578238613080565b6064906040519062461bcd60e51b82526004820152600d60248201526c1499599d5b990819985a5b1959609a1b6044820152fd5b819592951161332657604052923880613074565b634e487b7160e01b82526041600452602482fd5b60405162461bcd60e51b815260048101869052601060248201526f496e73756666696369656e742066656560801b6044820152606490fd5b9093508481813d831161339e575b61338a8183613ec2565b8101031261339a57519238613032565b8680fd5b503d613380565b8380fd5b5034610a9f5780600319360112610a9f576020600b54604051908152f35b5034610a9f5780600319360112610a9f576040517f00000000000000000000000000000000000000000000000000000000000000006001600160a01b03168152602090f35b5034610a9f576060366003190112610a9f57613426613e0b565b61342e613e21565b6001600160a01b0382168084526001602090815260408086203387529091528420546044359391600019821061346b575b50506119db935061481b565b8482106134d45780156134bb5733156134a2578486926040926119db9852600160205282842033855260205203912055388061345f565b604051634a1406b160e11b815260048101879052602490fd5b60405163e602df0560e01b815260048101879052602490fd5b604051637dc7a0d960e11b81523360048201526024810183905260448101869052606490fd5b5034610a9f576080366003190112610a9f576004356024359061352860018060a01b0360095416331461426e565b60145481111561363d57808352601360205260ff6004604085200154166136095760405160a081018181106001600160401b038211176135f557906135ca9160405283815260046020820160443581526040830160643581526060840190428252608085019260018452878a52601360205260408a209551865551600186015551600285015551600384015551151591019060ff801983541691151516179055565b806014557f5a51732cdfb285c7c717632520cc5b23bf2ba9dbbd031965cad919ba3b2cea048380a380f35b634e487b7160e01b85526041600452602485fd5b60405162461bcd60e51b815260206004820152600c60248201526b426c6f636b2065786973747360a01b6044820152606490fd5b60405162461bcd60e51b8152602060048201526014602482015273486569676874206d75737420696e63726561736560601b6044820152606490fd5b5034610a9f576020366003190112610a9f5760043590600d54821015610a9f5760206136a483613fb5565b905460405160039290921b1c6001600160a01b03168152f35b5034610a9f5760c0366003190112610a9f57600435602480359060448035916064906001600160401b03908235828111613a42576136ff903690600401613f88565b916084359460a435968715158803613a3e576101f4808c11613a08578a116139d3576103e88911613992578415613958578615613917575050338a52602096600c885260ff600760408d20015460081c16156138a3575b60059060408c20908b60028301558a6003830155600482015501938311613891575061378c826137868554613e37565b85614218565b8890601f831160011461382657826137e9969593600795936137c3938d9261381b5750508160011b916000199060031b1c19161790565b90555b338852600c855260408820906006820155019060ff801983541691151516179055565b6040519283528201527f7466a07322cbc2ad82822154376ebc97874c5541372b6936d18580fbc940d23260403392a280f35b0135905038806128d7565b838a52868a2091601f1984168b5b8982821061387b5750509260019285926137e99998966007989610613861575b505050811b0190556137c6565b0135600019600384901b60f8161c19169055388080613854565b6001849682939587013581550195019201613834565b634e487b7160e01b8a52604160045289fd5b600d54600160401b81101561390457906138c582600160059401600d55613fb5565b81546001600160a01b0360039290921b91821b1916339182901b179091558c52600c895260408c20600701805461ff0019166101001790559050613756565b634e487b7160e01b8c526041600452828cfd5b7f496e76616c696420707269766174652076696577206b65790000000000000000839160186040519362461bcd60e51b855260206004860152840152820152fd5b75496e76616c6964204d6f6e65726f206164647265737360501b839160166040519362461bcd60e51b855260206004860152840152820152fd5b7f496e74656e74206465706f73697420746f6f2068696768000000000000000000839160176040519362461bcd60e51b855260206004860152840152820152fd5b70084eae4dc40cccaca40e8dede40d0d2ced607b1b839160116040519362461bcd60e51b855260206004860152840152820152fd5b507009ad2dce840cccaca40e8dede40d0d2ced607b1b839160116040519362461bcd60e51b855260206004860152840152820152fd5b8b80fd5b8880fd5b5034610a9f5780600319360112610a9f576020600254604051908152f35b5034610a9f576020366003190112610a9f576040906001600160a01b03613a89613e0b565b168152600c6020522080549060018101549060ff600282015493613af8600384015491600485015490613abe60058701613ee3565b916007600688015497015494604051998a99610120948b5260208b015260408a0152606089015260808801528060a0880152860190613de6565b9260c0850152818116151560e085015260081c1615156101008301520390f35b5034610a9f57602080600319360112610c615760043590613b376147be565b338352600c81526040832090815491838310613c8c57613b578484614177565b92846001830154613b67816147e1565b90613c0f575b50613b7791614177565b9055613b8583600a54614177565b600a558380808086335af1613b986141e8565b5015613bd5576040519283528201527fc06369051df7cc33e4fadbfdac49c5feeb146dfacf3f6ee03dda8d67473bd12660403392a2600160085580f35b6064906040519062461bcd60e51b825260048201526013602482015272115512081d1c985b9cd9995c8819985a5b1959606a1b6044820152fd5b90506064850285810460641486151715613c7857609691613c2f916141ad565b10613c3b578438613b6d565b60405162461bcd60e51b8152600481018490526015602482015274576f756c642064726f702062656c6f77203135302560581b6044820152606490fd5b634e487b7160e01b88526011600452602488fd5b60405162461bcd60e51b815260048101839052601760248201527f496e73756666696369656e7420636f6c6c61746572616c0000000000000000006044820152606490fd5b5034610a9f576040366003190112610a9f576119db613cee613e0b565b6024359033614b17565b8234610a9f5780600319360112610a9f576003548282613d1783613e37565b9283835260209460019186600182169182600014613da1575050600114613d47575b5050611ae692500383613ec2565b90859250600382527fc2575a0e9e593c00f959f8c92f12db2869c3395a3b0502d05e2516446f71f85b5b858310613d89575050611ae693508201018580613d39565b80548389018501528794508693909201918101613d71565b9250935050611ae694915060ff191682840152151560051b8201018580613d39565b60005b838110613dd65750506000910152565b8181015183820152602001613dc6565b90602091613dff81518092818552858086019101613dc3565b601f01601f1916010190565b600435906001600160a01b0382168203610a9257565b602435906001600160a01b0382168203610a9257565b90600182811c92168015613e67575b6020831014613e5157565b634e487b7160e01b600052602260045260246000fd5b91607f1691613e46565b606081019081106001600160401b0382111761104b57604052565b60c081019081106001600160401b0382111761104b57604052565b604081019081106001600160401b0382111761104b57604052565b90601f801991011681019081106001600160401b0382111761104b57604052565b90604051918260008254613ef681613e37565b90818452602094600191600181169081600014613f665750600114613f27575b505050613f2592500383613ec2565b565b600090815285812095935091905b818310613f4e575050613f259350820101388080613f16565b85548884018501529485019487945091830191613f35565b92505050613f2594925060ff191682840152151560051b820101388080613f16565b9181601f84011215610a92578235916001600160401b038311610a925760208381860195010111610a9257565b600d54811015613fec57600d6000527fd7b6990105719101dabeb77144f2a3385c8033acd3af97e9423a695e81ad1eb50190600090565b634e487b7160e01b600052603260045260246000fd5b8054821015613fec5760005260206000200190600090565b9181601f84011215610a92578235916001600160401b038311610a92576020808501948460051b010111610a9257565b6080600319820112610a92576004359160243591604435906001600160401b038211610a925761407c9160040161401a565b909160643590565b90815180825260208080930193019160005b8281106140a4575050505090565b83516001600160a01b031685529381019392810192600101614096565b90815180825260208080930193019160005b8281106140e1575050505090565b8351855293810193928101926001016140d3565b6001600160401b03811161104b5760051b60200190565b9291614117826140f5565b916141256040519384613ec2565b829481845260208094019160051b8101928311610a9257905b82821061414b5750505050565b8135815290830190830161413e565b34610a92576000366003190112610a92576020604051611c208152f35b9190820391821161418457565b634e487b7160e01b600052601160045260246000fd5b8181029291811591840414171561418457565b81156141b7570490565b634e487b7160e01b600052601260045260246000fd5b6001600160401b03811161104b57601f01601f191660200190565b3d15614213573d906141f9826141cd565b916142076040519384613ec2565b82523d6000602084013e565b606090565b90601f811161422657505050565b6000916000526020600020906020601f850160051c83019410614264575b601f0160051c01915b82811061425957505050565b81815560010161424d565b9092508290614244565b1561427557565b60405162461bcd60e51b815260206004820152600b60248201526a4f6e6c79206f7261636c6560a81b6044820152606490fd5b908060209392818452848401376000828201840152601f01601f1916010190565b91602081602085016020865252604084019360408360051b82010194846000925b8584106142fb575050505050505090565b90919293949596603f198282030184528735601e1984360301811215610a925783018681019190356001600160401b038111610a92578036038313610a9257614349889283926001956142a8565b9901940194019295949391906142ea565b90816020910312610a9257518015158103610a925790565b6001600160a01b03166000908152600c6020526040902060018101549081156143bf576143a09054916147e1565b606482029180830460641490151715614184576143bc916141ad565b90565b505060001990565b9190820180921161418457565b156143db57565b60405162461bcd60e51b815260206004820152601160248201527011195c1bdcda5d081d1bdbc81cdb585b1b607a1b6044820152606490fd5b60001981146141845760010190565b1561442a57565b60405162461bcd60e51b815260206004820152600b60248201526a16995c9bc8185b5bdd5b9d60aa1b6044820152606490fd5b9190811015613fec5760051b0190565b90614477826140f5565b6144846040519182613ec2565b8281528092614495601f19916140f5565b0190602036910137565b8051821015613fec5760209160051b010190565b156144ba57565b60405162461bcd60e51b815260206004820152601060248201526f109b1bd8dac81b9bdd081c1bdcdd195960821b6044820152606490fd5b929080600052602090601360205260409061451660ff6004846000200154166144b3565b60005260136020526001918160018493600020015496956000935b614540575b5050505050501490565b80518410156145ab5784809697614557868461449f565b51898316614588578451908682019283528582015284815261457881613e71565b519020975b811c94019395614531565b90845190868201928352858201528481526145a281613e71565b5190209761457d565b614536565b939093926000915b8183106145c757505050501490565b6145d283838661445d565b600195903582871661463a57600061461160409384516020948582019283528682015285815261460181613e71565b8551928392839251928391613dc3565b8101039060025afa156146305750600190600051955b1c9201916145b8565b513d6000823e3d90fd5b90600061465e60409384516020948582019283528682015285815261460181613e71565b8101039060025afa15614630575060019060005195614627565b1561467f57565b60405162461bcd60e51b815260206004820152600d60248201526c4c50206e6f742061637469766560981b6044820152606490fd5b9290606894926001600160601b0319809260601b16855260601b166014840152602883015260488201520190565b156146e957565b60405162461bcd60e51b8152602060048201526011602482015270105b1c9958591e481c1c9bd8d95cdcd959607a1b6044820152606490fd5b1561472957565b60405162461bcd60e51b815260206004820152601560248201527411195c1bdcda5d081c99599d5b990819985a5b1959605a1b6044820152606490fd5b60018060a01b0316600052600c602052604060002061478a600182549201546147e1565b906064810290808204606414901517156141845760969004818111156147b7576143bc9161126e91614177565b5050600090565b6002600854146147cf576002600855565b604051633ee5aeb560e01b8152600490fd5b6147f464e8d4a51000916015549061419a565b04670de0b6b3a764000090818102918183041490151715614184576016546143bc916141ad565b916001600160a01b038084169283156148e057169283156148c75760009083825281602052604082205490838210614895575091604082827fddf252ad1be2c89b69c2b068fc378daa952ba7f163c4a11628f55a4df523b3ef958760209652828652038282205586815220818154019055604051908152a3565b60405163391434e360e21b81526001600160a01b03919091166004820152602481019190915260448101839052606490fd5b60405163ec442f0560e01b815260006004820152602490fd5b604051634b637e8f60e11b815260006004820152602490fd5b90816080910312610a9257604051906001600160401b03608083018181118482101761104b5760405281518060070b8103610a9257835260208201519081168103610a925760208301526040810151908160030b8203610a925760609160408401520151606082015290565b307f00000000000000000000000000000000000000000000000000000000000000006001600160a01b03161480614a56575b156149c0577f000000000000000000000000000000000000000000000000000000000000000090565b60405160208101907f8b73c3c69bb8fe3d512ecc4cf759cc79239f7b179b0ffacaa9a75d522b39400f82527f000000000000000000000000000000000000000000000000000000000000000060408201527f000000000000000000000000000000000000000000000000000000000000000060608201524660808201523060a082015260a08152614a5081613e8c565b51902090565b507f00000000000000000000000000000000000000000000000000000000000000004614614997565b614a95670de0b6b3a7640000916016549061419a565b0464e8d4a5100090818102918183041490151715614184576015546143bc916141ad565b6001600160a01b03169081156148c7577fddf252ad1be2c89b69c2b068fc378daa952ba7f163c4a11628f55a4df523b3ef602082614afb6000946002546143c7565b60025584845283825260408420818154019055604051908152a3565b6001600160a01b03908116918215614b915716918215614b785760207f8c5be1e5ebec7d5bd14f71427d1e84f3dd0314c0f7b2291e5b200ac8c7c3b925918360005260018252604060002085600052825280604060002055604051908152a3565b604051634a1406b160e11b815260006004820152602490fd5b60405163e602df0560e01b815260006004820152602490fd5b63ffffffff16604d811161418457600a0a90565b805160409091015160009160070b90600381900b838112614c12575090614bed614bf39263ffffffff16614baa565b9061419a565b90670de0b6b3a764000091828102928184041490151715612b6f575090565b60120193929050637fffffff19637fffffff851381861217614c8a57600385900b90828212614c5157505050614bed6143bc929363ffffffff16614baa565b908092955014614c7657614c70906143bc93940363ffffffff16614baa565b906141ad565b634e487b7160e01b84526011600452602484fd5b634e487b7160e01b82526011600452602482fd5b60ff8114614cdc5760ff811690601f8211614cca5760405191614cc083613ea7565b8252602082015290565b604051632cd44ac360e21b8152600490fd5b50604051600554816000614cef83613e37565b80835292602090600190818116908115614d7b5750600114614d1a575b50506143bc92500382613ec2565b91509260056000527f036b6384b5eca791c62761152d0c79bb0604c104a5fb6f4eb0703f3154bb3db0936000925b828410614d6357506143bc9450505081016020013880614d0c565b85548785018301529485019486945092810192614d48565b915050602092506143bc94915060ff191682840152151560051b8201013880614d0c565b60ff8114614dc15760ff811690601f8211614cca5760405191614cc083613ea7565b50604051600654816000614dd483613e37565b80835292602090600190818116908115614d7b5750600114614dfe5750506143bc92500382613ec2565b91509260066000527ff652222313e28459528d920b65115c16c04f3efc82aaedc97be59f3f377c0d3f936000925b828410614e4757506143bc9450505081016020013880614d0c565b85548785018301529485019486945092810192614e2c565b91907f7fffffffffffffffffffffffffffffff5d576e7357a4501ddfe92f46681b20a08411614ee357926020929160ff608095604051948552168484015260408301526060820152600092839182805260015afa15614ed75780516001600160a01b03811615614ece57918190565b50809160019190565b604051903d90823e3d90fd5b50505060009160039190565b6004811015614f5e5780614f01575050565b60018103614f1b5760405163f645eedf60e01b8152600490fd5b60028103614f3c5760405163fce698f760e01b815260048101839052602490fd5b600314614f465750565b602490604051906335e2f38360e21b82526004820152fd5b634e487b7160e01b600052602160045260246000fdfea2646970667358221220ff93be59ec8d86f728333d2e97753121c7f8e02b5d615e30cd6cd19bc6ac71dd64736f6c63430008180033",
  "linkReferences": {},
  "deployedLinkReferences": {}
}