{
  "_format": "hh-sol-artifact-1",
  "contractName": "HookMiner",
  "sourceName": "contracts/HookMiner.sol",
  "abi": [
    {
      "inputs": [
        {
          "internalType": "address",
          "name": "deployer",
          "type": "address"
        },
        {
          "internalType": "uint256",
          "name": "salt",
          "type": "uint256"
        },
        {
          "internalType": "bytes",
          "name": "creationCode",
          "type": "bytes"
        }
      ],
      "name": "computeAddress",
      "outputs": [
        {
          "internalType": "address",
          "name": "",
          "type": "address"
        }
      ],
      "stateMutability": "pure",
      "type": "function"
    },
    {
      "inputs": [
        {
          "internalType": "uint256",
          "name": "salt",
          "type": "uint256"
        },
        {
          "internalType": "bytes",
          "name": "creationCode",
          "type": "bytes"
        }
      ],
      "name": "deploy",
      "outputs": [
        {
          "internalType": "address",
          "name": "",
          "type": "address"
        }
      ],
      "stateMutability": "nonpayable",
      "type": "function"
    },
    {
      "inputs": [
        {
          "internalType": "address",
          "name": "deployer",
          "type": "address"
        },
        {
          "internalType": "bytes",
          "name": "creationCode",
          "type": "bytes"
        },
        {
          "internalType": "uint160",
          "name": "flags",
          "type": "uint160"
        }
      ],
      "name": "findSalt",
      "outputs": [
        {
          "internalType": "uint256",
          "name": "",
          "type": "uint256"
        },
        {
          "internalType": "address",
          "name": "",
          "type": "address"
        }
      ],
      "stateMutability": "view",
      "type": "function"
    }
  ],
  "bytecode": "0x6080806040523461001657610346908161001c8239f35b600080fdfe6080604052600436101561001257600080fd5b6000803560e01c908163013a236e1461004a57508063035bcfc614610045576361ff715f1461004057600080fd5b6101ab565b610141565b346100aa5760603660031901126100aa5760043590610068826100ad565b6044359067ffffffffffffffff82116100aa5760206100988461008e36600487016100d9565b9060243590610204565b6040516001600160a01b039091168152f35b80fd5b6001600160a01b038116036100be57565b600080fd5b634e487b7160e01b600052604160045260246000fd5b81601f820112156100be5780359067ffffffffffffffff9283831161013c5760405193601f8401601f19908116603f011685019081118582101761013c57604052828452602083830101116100be57816000926020809301838601378301015290565b6100c3565b346100be5760603660031901126100be5760043561015e816100ad565b60243567ffffffffffffffff81116100be576040916101846101969236906004016100d9565b60443591610191836100ad565b61026d565b82519182526001600160a01b03166020820152f35b346100be5760403660031901126100be5760243567ffffffffffffffff81116100be576101dc9036906004016100d9565b8051602060043592016000f5803b156100be576040516001600160a01b039091168152602090f35b90916020815191012060405192602084019260ff60f81b84526bffffffffffffffffffffffff199060601b16602185015260358401526055830152605582526080820182811067ffffffffffffffff82111761013c57604052905190206001600160a01b031690565b92919091600093845b620186a086106102bb5760405162461bcd60e51b8152602060048201526013602482015272139bc81d985b1a59081cd85b1d08199bdd5b99606a1b6044820152606490fd5b6102c6858284610204565b60ff60981b808660981b1690821614610305575060001981146102ef5760019586019501610276565b634e487b7160e01b600052601160045260246000fd5b95509250509150919056fea26469706673582212201bf1f4fbe894917fd2d9220c48d0253de37eee7d1bfa52631e90837a36d8c94c64736f6c63430008180033",
  "linkReferences": {},
  "deployedLinkReferences": {}
}