{
  "_format": "hh-sol-artifact-1",
  "contractName": "MintRelayer",
  "sourceName": "contracts/MintRelayer.sol",
  "abi": [
    {
      "inputs": [
        {
          "internalType": "address payable",
          "name": "_wrappedMonero",
          "type": "address"
        }
      ],
      "stateMutability": "nonpayable",
      "type": "constructor"
    },
    {
      "inputs": [],
      "name": "ECDSAInvalidSignature",
      "type": "error"
    },
    {
      "inputs": [
        {
          "internalType": "uint256",
          "name": "length",
          "type": "uint256"
        }
      ],
      "name": "ECDSAInvalidSignatureLength",
      "type": "error"
    },
    {
      "inputs": [
        {
          "internalType": "bytes32",
          "name": "s",
          "type": "bytes32"
        }
      ],
      "name": "ECDSAInvalidSignatureS",
      "type": "error"
    },
    {
      "inputs": [],
      "name": "InvalidShortString",
      "type": "error"
    },
    {
      "inputs": [],
      "name": "ReentrancyGuardReentrantCall",
      "type": "error"
    },
    {
      "inputs": [
        {
          "internalType": "string",
          "name": "str",
          "type": "string"
        }
      ],
      "name": "StringTooLong",
      "type": "error"
    },
    {
      "anonymous": false,
      "inputs": [],
      "name": "EIP712DomainChanged",
      "type": "event"
    },
    {
      "anonymous": false,
      "inputs": [
        {
          "indexed": true,
          "internalType": "address",
          "name": "signer",
          "type": "address"
        },
        {
          "indexed": true,
          "internalType": "address",
          "name": "recipient",
          "type": "address"
        },
        {
          "indexed": true,
          "internalType": "address",
          "name": "relayer",
          "type": "address"
        },
        {
          "indexed": false,
          "internalType": "uint256",
          "name": "amount",
          "type": "uint256"
        },
        {
          "indexed": false,
          "internalType": "uint256",
          "name": "relayerFee",
          "type": "uint256"
        }
      ],
      "name": "MintRelayed",
      "type": "event"
    },
    {
      "anonymous": false,
      "inputs": [
        {
          "indexed": false,
          "internalType": "bool",
          "name": "enabled",
          "type": "bool"
        }
      ],
      "name": "PermissionlessModeToggled",
      "type": "event"
    },
    {
      "anonymous": false,
      "inputs": [
        {
          "indexed": false,
          "internalType": "uint256",
          "name": "oldFee",
          "type": "uint256"
        },
        {
          "indexed": false,
          "internalType": "uint256",
          "name": "newFee",
          "type": "uint256"
        }
      ],
      "name": "RelayerFeeUpdated",
      "type": "event"
    },
    {
      "anonymous": false,
      "inputs": [
        {
          "indexed": true,
          "internalType": "address",
          "name": "relayer",
          "type": "address"
        },
        {
          "indexed": false,
          "internalType": "uint256",
          "name": "stake",
          "type": "uint256"
        }
      ],
      "name": "RelayerRegistered",
      "type": "event"
    },
    {
      "anonymous": false,
      "inputs": [
        {
          "indexed": true,
          "internalType": "address",
          "name": "relayer",
          "type": "address"
        },
        {
          "indexed": false,
          "internalType": "uint256",
          "name": "stake",
          "type": "uint256"
        }
      ],
      "name": "RelayerUnregistered",
      "type": "event"
    },
    {
      "inputs": [],
      "name": "MAX_INTENT_AGE",
      "outputs": [
        {
          "internalType": "uint256",
          "name": "",
          "type": "uint256"
        }
      ],
      "stateMutability": "view",
      "type": "function"
    },
    {
      "inputs": [],
      "name": "MAX_RELAYER_FEE_BPS",
      "outputs": [
        {
          "internalType": "uint256",
          "name": "",
          "type": "uint256"
        }
      ],
      "stateMutability": "view",
      "type": "function"
    },
    {
      "inputs": [
        {
          "internalType": "address",
          "name": "relayer",
          "type": "address"
        }
      ],
      "name": "authorizeRelayer",
      "outputs": [],
      "stateMutability": "nonpayable",
      "type": "function"
    },
    {
      "inputs": [
        {
          "internalType": "address",
          "name": "",
          "type": "address"
        }
      ],
      "name": "authorizedRelayers",
      "outputs": [
        {
          "internalType": "bool",
          "name": "",
          "type": "bool"
        }
      ],
      "stateMutability": "view",
      "type": "function"
    },
    {
      "inputs": [
        {
          "internalType": "address",
          "name": "lp",
          "type": "address"
        },
        {
          "internalType": "uint256",
          "name": "expectedAmount",
          "type": "uint256"
        }
      ],
      "name": "createMintIntentWithDeposit",
      "outputs": [
        {
          "internalType": "bytes32",
          "name": "intentId",
          "type": "bytes32"
        }
      ],
      "stateMutability": "payable",
      "type": "function"
    },
    {
      "inputs": [],
      "name": "eip712Domain",
      "outputs": [
        {
          "internalType": "bytes1",
          "name": "fields",
          "type": "bytes1"
        },
        {
          "internalType": "string",
          "name": "name",
          "type": "string"
        },
        {
          "internalType": "string",
          "name": "version",
          "type": "string"
        },
        {
          "internalType": "uint256",
          "name": "chainId",
          "type": "uint256"
        },
        {
          "internalType": "address",
          "name": "verifyingContract",
          "type": "address"
        },
        {
          "internalType": "bytes32",
          "name": "salt",
          "type": "bytes32"
        },
        {
          "internalType": "uint256[]",
          "name": "extensions",
          "type": "uint256[]"
        }
      ],
      "stateMutability": "view",
      "type": "function"
    },
    {
      "inputs": [],
      "name": "getDomainSeparator",
      "outputs": [
        {
          "internalType": "bytes32",
          "name": "",
          "type": "bytes32"
        }
      ],
      "stateMutability": "view",
      "type": "function"
    },
    {
      "inputs": [
        {
          "internalType": "address",
          "name": "user",
          "type": "address"
        }
      ],
      "name": "getNonce",
      "outputs": [
        {
          "internalType": "uint256",
          "name": "",
          "type": "uint256"
        }
      ],
      "stateMutability": "view",
      "type": "function"
    },
    {
      "inputs": [
        {
          "components": [
            {
              "internalType": "address",
              "name": "signer",
              "type": "address"
            },
            {
              "internalType": "address",
              "name": "recipient",
              "type": "address"
            },
            {
              "internalType": "address",
              "name": "lp",
              "type": "address"
            },
            {
              "internalType": "uint256",
              "name": "expectedAmount",
              "type": "uint256"
            },
            {
              "internalType": "uint256",
              "name": "nonce",
              "type": "uint256"
            },
            {
              "internalType": "uint256",
              "name": "deadline",
              "type": "uint256"
            },
            {
              "internalType": "uint256",
              "name": "maxRelayerFee",
              "type": "uint256"
            }
          ],
          "internalType": "struct MintRelayer.MintIntent",
          "name": "intent",
          "type": "tuple"
        }
      ],
      "name": "getTypedDataHash",
      "outputs": [
        {
          "internalType": "bytes32",
          "name": "",
          "type": "bytes32"
        }
      ],
      "stateMutability": "view",
      "type": "function"
    },
    {
      "inputs": [
        {
          "internalType": "address",
          "name": "relayer",
          "type": "address"
        }
      ],
      "name": "isAuthorizedRelayer",
      "outputs": [
        {
          "internalType": "bool",
          "name": "",
          "type": "bool"
        }
      ],
      "stateMutability": "view",
      "type": "function"
    },
    {
      "inputs": [],
      "name": "minRelayerStake",
      "outputs": [
        {
          "internalType": "uint256",
          "name": "",
          "type": "uint256"
        }
      ],
      "stateMutability": "view",
      "type": "function"
    },
    {
      "inputs": [
        {
          "internalType": "address",
          "name": "",
          "type": "address"
        }
      ],
      "name": "nonces",
      "outputs": [
        {
          "internalType": "uint256",
          "name": "",
          "type": "uint256"
        }
      ],
      "stateMutability": "view",
      "type": "function"
    },
    {
      "inputs": [],
      "name": "owner",
      "outputs": [
        {
          "internalType": "address",
          "name": "",
          "type": "address"
        }
      ],
      "stateMutability": "view",
      "type": "function"
    },
    {
      "inputs": [],
      "name": "permissionlessMode",
      "outputs": [
        {
          "internalType": "bool",
          "name": "",
          "type": "bool"
        }
      ],
      "stateMutability": "view",
      "type": "function"
    },
    {
      "inputs": [],
      "name": "registerRelayer",
      "outputs": [],
      "stateMutability": "payable",
      "type": "function"
    },
    {
      "inputs": [
        {
          "components": [
            {
              "internalType": "address",
              "name": "signer",
              "type": "address"
            },
            {
              "internalType": "address",
              "name": "recipient",
              "type": "address"
            },
            {
              "internalType": "address",
              "name": "lp",
              "type": "address"
            },
            {
              "internalType": "uint256",
              "name": "expectedAmount",
              "type": "uint256"
            },
            {
              "internalType": "uint256",
              "name": "nonce",
              "type": "uint256"
            },
            {
              "internalType": "uint256",
              "name": "deadline",
              "type": "uint256"
            },
            {
              "internalType": "uint256",
              "name": "maxRelayerFee",
              "type": "uint256"
            }
          ],
          "internalType": "struct MintRelayer.MintIntent",
          "name": "intent",
          "type": "tuple"
        },
        {
          "internalType": "bytes",
          "name": "signature",
          "type": "bytes"
        },
        {
          "internalType": "uint256[24]",
          "name": "proof",
          "type": "uint256[24]"
        },
        {
          "internalType": "uint256[70]",
          "name": "publicSignals",
          "type": "uint256[70]"
        },
        {
          "components": [
            {
              "internalType": "bytes32",
              "name": "c",
              "type": "bytes32"
            },
            {
              "internalType": "bytes32",
              "name": "s",
              "type": "bytes32"
            },
            {
              "internalType": "bytes32",
              "name": "K1",
              "type": "bytes32"
            },
            {
              "internalType": "bytes32",
              "name": "K2",
              "type": "bytes32"
            }
          ],
          "internalType": "struct WrappedMonero.DLEQProof",
          "name": "dleqProof",
          "type": "tuple"
        },
        {
          "components": [
            {
              "internalType": "bytes32",
              "name": "R_x",
              "type": "bytes32"
            },
            {
              "internalType": "bytes32",
              "name": "R_y",
              "type": "bytes32"
            },
            {
              "internalType": "bytes32",
              "name": "S_x",
              "type": "bytes32"
            },
            {
              "internalType": "bytes32",
              "name": "S_y",
              "type": "bytes32"
            },
            {
              "internalType": "bytes32",
              "name": "P_x",
              "type": "bytes32"
            },
            {
              "internalType": "bytes32",
              "name": "P_y",
              "type": "bytes32"
            },
            {
              "internalType": "bytes32",
              "name": "B_x",
              "type": "bytes32"
            },
            {
              "internalType": "bytes32",
              "name": "B_y",
              "type": "bytes32"
            },
            {
              "internalType": "bytes32",
              "name": "G_x",
              "type": "bytes32"
            },
            {
              "internalType": "bytes32",
              "name": "G_y",
              "type": "bytes32"
            },
            {
              "internalType": "bytes32",
              "name": "A_x",
              "type": "bytes32"
            },
            {
              "internalType": "bytes32",
              "name": "A_y",
              "type": "bytes32"
            }
          ],
          "internalType": "struct WrappedMonero.Ed25519Proof",
          "name": "ed25519Proof",
          "type": "tuple"
        },
        {
          "components": [
            {
              "internalType": "bytes32",
              "name": "txHash",
              "type": "bytes32"
            },
            {
              "internalType": "uint256",
              "name": "outputIndex",
              "type": "uint256"
            },
            {
              "internalType": "bytes32",
              "name": "ecdhAmount",
              "type": "bytes32"
            },
            {
              "internalType": "bytes32",
              "name": "outputPubKey",
              "type": "bytes32"
            },
            {
              "internalType": "bytes32",
              "name": "commitment",
              "type": "bytes32"
            }
          ],
          "internalType": "struct WrappedMonero.MoneroTxOutput",
          "name": "output",
          "type": "tuple"
        },
        {
          "internalType": "uint256",
          "name": "blockHeight",
          "type": "uint256"
        },
        {
          "internalType": "bytes32[]",
          "name": "txMerkleProof",
          "type": "bytes32[]"
        },
        {
          "internalType": "uint256",
          "name": "txIndex",
          "type": "uint256"
        },
        {
          "internalType": "bytes32[]",
          "name": "outputMerkleProof",
          "type": "bytes32[]"
        },
        {
          "internalType": "uint256",
          "name": "outputIndex",
          "type": "uint256"
        },
        {
          "internalType": "bytes32",
          "name": "txPublicKey",
          "type": "bytes32"
        },
        {
          "internalType": "bytes[]",
          "name": "priceUpdateData",
          "type": "bytes[]"
        }
      ],
      "name": "relayMint",
      "outputs": [],
      "stateMutability": "payable",
      "type": "function"
    },
    {
      "inputs": [],
      "name": "relayerFeeBps",
      "outputs": [
        {
          "internalType": "uint256",
          "name": "",
          "type": "uint256"
        }
      ],
      "stateMutability": "view",
      "type": "function"
    },
    {
      "inputs": [
        {
          "internalType": "address",
          "name": "",
          "type": "address"
        }
      ],
      "name": "relayerStakes",
      "outputs": [
        {
          "internalType": "uint256",
          "name": "",
          "type": "uint256"
        }
      ],
      "stateMutability": "view",
      "type": "function"
    },
    {
      "inputs": [
        {
          "internalType": "address",
          "name": "relayer",
          "type": "address"
        }
      ],
      "name": "revokeRelayer",
      "outputs": [],
      "stateMutability": "nonpayable",
      "type": "function"
    },
    {
      "inputs": [
        {
          "internalType": "uint256",
          "name": "newStake",
          "type": "uint256"
        }
      ],
      "name": "setMinRelayerStake",
      "outputs": [],
      "stateMutability": "nonpayable",
      "type": "function"
    },
    {
      "inputs": [
        {
          "internalType": "uint256",
          "name": "newFeeBps",
          "type": "uint256"
        }
      ],
      "name": "setRelayerFee",
      "outputs": [],
      "stateMutability": "nonpayable",
      "type": "function"
    },
    {
      "inputs": [],
      "name": "togglePermissionlessMode",
      "outputs": [],
      "stateMutability": "nonpayable",
      "type": "function"
    },
    {
      "inputs": [],
      "name": "unregisterRelayer",
      "outputs": [],
      "stateMutability": "nonpayable",
      "type": "function"
    },
    {
      "inputs": [],
      "name": "wrappedMonero",
      "outputs": [
        {
          "internalType": "contract WrappedMonero",
          "name": "",
          "type": "address"
        }
      ],
      "stateMutability": "view",
      "type": "function"
    },
    {
      "stateMutability": "payable",
      "type": "receive"
    }
  ],
  "bytecode": "0x610180346200021557601f6200214038819003918201601f19168301926001600160401b0392909183851183861017620001ff5781602092849260409788528339810103126200021557516001600160a01b03811690819003620002155782516200006a816200021a565b60178152602081017f486f6f6b65644d6f6e65726f4d696e7452656c6179657200000000000000000081528451620000a2816200021a565b6001815260208101603160f81b8152620000bc8462000236565b92610120938452620000ce8362000409565b94610140958652519020918260e052519020610100968188524660a05280519160208301937f8b73c3c69bb8fe3d512ecc4cf759cc79239f7b179b0ffacaa9a75d522b39400f85528284015260608301524660808301523060a083015260a0825260c082019682881090881117620001ff578690525190206080523060c0526001600255600a60065567016345785d8a0000600755610160928352600480546001600160a81b0319163360081b610100600160a81b0316179055611b899485620005b7863960805185611710015260a051856117db015260c051856116da015260e0518561175f0152518461178501525183610f4201525182610f6c015251818181610696015281816106f9015281816108d20152818161095401528181610aaa01528181610eb201526111b40152f35b634e487b7160e01b600052604160045260246000fd5b600080fd5b604081019081106001600160401b03821117620001ff57604052565b80516020919082811015620002d5575090601f8251116200027457808251920151908083106200026557501790565b82600019910360031b1b161790565b90604051809263305a27a960e01b82528060048301528251908160248401526000935b828510620002bb575050604492506000838284010152601f80199101168101030190fd5b848101820151868601604401529381019385935062000297565b6001600160401b038111620001ff576000928354926001938481811c91168015620003fe575b83821014620003ea57601f8111620003b4575b5081601f84116001146200034d5750928293918392869462000341575b50501b916000199060031b1c191617905560ff90565b0151925038806200032b565b919083601f1981168780528488209488905b888383106200039957505050106200037f575b505050811b01905560ff90565b015160001960f88460031b161c1916905538808062000372565b8587015188559096019594850194879350908101906200035f565b85805284601f848820920160051c820191601f860160051c015b828110620003de5750506200030e565b878155018590620003ce565b634e487b7160e01b86526022600452602486fd5b90607f1690620002fb565b805160209081811015620004975750601f8251116200043657808251920151908083106200026557501790565b90604051809263305a27a960e01b82528060048301528251908160248401526000935b8285106200047d575050604492506000838284010152601f80199101168101030190fd5b848101820151868601604401529381019385935062000459565b9192916001600160401b038111620001ff5760019182548381811c91168015620005ab575b828210146200059557601f81116200055c575b5080601f83116001146200050f57508192939460009262000503575b5050600019600383901b1c191690821b17905560ff90565b015190503880620004eb565b90601f198316958460005282600020926000905b8882106200054457505083859697106200037f57505050811b01905560ff90565b80878596829496860151815501950193019062000523565b8360005283601f83600020920160051c820191601f850160051c015b82811062000588575050620004cf565b6000815501849062000578565b634e487b7160e01b600052602260045260246000fd5b90607f1690620004bc56fe608080604052600436101561001d575b50361561001b57600080fd5b005b600090813560e01c9081630c0772fa146113735750806312b885ef1461135557806321ef5f8b1461130a578063268abd3c146112ee57806329d37dfe1461127757806329e295c5146112385780632d0335ab1461110e5780636ad54d131461116457806373ac2a4c146111475780637ecebe001461110e5780637ed3cda6146110db57806383302a6f1461103857806384b0196e14610f2c5780638da5cb5b14610eff57806393c79ba614610ee1578063bcbb3f2714610e9c578063d52d1e06146103ef578063dcdf1402146103cc578063e0f324d91461039e578063e6d1b2401461027e578063e738073b14610212578063ed24911d146101ef578063f82866361461017e5763f899b23c0361000f573461017b57602036600319011261017b576101476113a9565b60018060a01b03906101618260045460081c16331461143c565b168152600360205260408120805460ff1916600117905580f35b80fd5b503461017b578060031936011261017b576004547f790a7606afea8a853650e5050879bd213c4a7c671d4508e0d4de876dbb4bc4e3906020906101cf33600883901c6001600160a01b03161461143c565b60ff80821615168060ff198316176004558460405192161715158152a180f35b503461017b578060031936011261017b57602061020a6116d7565b604051908152f35b503461017b5760e036600319011261017b57602061020a610231611507565b61023961151d565b90610276610245611533565b6102686040519384928884019660c4359260a4359260843592606435928b61162c565b03601f1981018352826114e6565b5190206116b1565b503461017b578060031936011261017b57610297611690565b338152602060088152604082205490811561036f5733835260088152826040812055600381526040832060ff1981541690558280808085335af13d1561036a573d6102e181611572565b906102ef60405192836114e6565b815284833d92013e5b15610330577f1febc9d304fb99c3cd8bc5ffe8b9219d7676ffad2aa8cfa3a8286ea93092244c906040519283523392a2600160025580f35b6064906040519062461bcd60e51b82526004820152601360248201527214dd185ad9481c99599d5b990819985a5b1959606a1b6044820152fd5b6102f8565b6064906040519062461bcd60e51b8252600482015260086024820152674e6f207374616b6560c01b6044820152fd5b503461017b57602036600319011261017b5760206103c26103bd6113a9565b6115cb565b6040519015158152f35b503461017b578060031936011261017b57602060ff600454166040519015158152f35b5036600319016110408112610c0b5760e01361017b576001600160401b0360e4351161017b5736602360e43501121561017b576001600160401b0360e435600401351161017b5736602460e4356004013560e43501011161017b57366104041161017b5736610cc41161017b57608036610cc319011261017b5761018036610d4319011261017b5760a036610ec319011261017b57610f84356001600160401b038111610c0b576104a490369060040161140c565b610fc4356001600160401b038111610a67576104c490369060040161140c565b6001600160401b036110249392933511610e98576104e8366110243560040161140c565b60ff6004939293541615610e46575b338752600860205261051160408820546007541115611474565b610519611690565b6001600160a01b03610529611507565b1687526005602052604087205460843503610e11576105de6105d561059161054f611507565b61058561055a61151d565b610268610565611533565b9360405194859360c4359260a4359260843592606435926020890161162c565b602081519101206116b1565b6105a060e43560040135611572565b906105ae60405192836114e6565b60e43560048101358084529060240160208401378a602060e4356004013584010152611a02565b90929192611a3e565b6001600160a01b036105ee611507565b166001600160a01b0390911603610dd85760a4354211610da257610e104201804211610d8e5760a43511610d56576001600160a01b0361062c611507565b16875260056020526040872080546000198114610d4257600101905561271061065a60065461040435611549565b049560c4358711610d065761066d611533565b6040516308833fb560e11b81526001600160a01b039182166004820152908990829060249082907f0000000000000000000000000000000000000000000000000000000000000000165afa908115610cfb578991610c4d575b506127106106da6106e49261040435611549565b046104043561159a565b956064358710610c17576106f6611533565b937f00000000000000000000000000000000000000000000000000000000000000006001600160a01b03163b15610c13578994916108699161084c60409996959951998a9763fcd154ed60e01b895261030061010460048b01376108c06104046103048b0137610cc435610bc48a0152610ce435610be48a0152610d0435610c048a0152610d2435610c248a0152610d4435610c448a0152610d6435610c648a0152610d8435610c848a0152610da435610ca48a0152610dc435610cc48a0152610de435610ce48a0152610e0435610d048a0152610e2435610d248a0152610e4435610d448a0152610e6435610d648a0152610e8435610d848a0152610ea435610da48a0152610ec435610dc48a0152610ee435610de48a0152610f0435610e048a0152610f2435610e248a0152610f4435610e448a0152610f6435610e648a0152610f80610e848a0152610f848901916115a7565b610fa435610ea488015286810360031901610ec4880152916115a7565b90610fe435610ee485015230610f0485015260018060a01b0316610f2484015261100435610f4484015260031983820301610f64840152818152602081019160208160051b830101928686935b838510610b945750505050508192935003813460018060a01b037f0000000000000000000000000000000000000000000000000000000000000000165af18015610a7357610b65575b508180610a7e575b6109109161159a565b61094f60208261091e61151d565b60405163a9059cbb60e01b81526001600160a01b039091166004820152602481019190915291829081906044820190565b0381877f00000000000000000000000000000000000000000000000000000000000000006001600160a01b03165af1908115610a73578491610a35575b50156109f05761099a611507565b906109a361151d565b60408051928352602083019490945233936001600160a01b0391821693909116917f3dd53875eadb772818a2b802fea076dd028be2b27f1ffda38cbe3073e22086659190a4600160025580f35b60405162461bcd60e51b815260206004820152601960248201527f526563697069656e74207472616e73666572206661696c6564000000000000006044820152606490fd5b90506020813d602011610a6b575b81610a50602093836114e6565b81010312610a6757610a619061158d565b3861098c565b8380fd5b3d9150610a43565b6040513d86823e3d90fd5b5060405163a9059cbb60e01b815233600482015260248101839052602081604481876001600160a01b037f0000000000000000000000000000000000000000000000000000000000000000165af1908115610a73578491610b2b575b5015610ae65781610907565b60405162461bcd60e51b815260206004820152601b60248201527f52656c6179657220666565207472616e73666572206661696c656400000000006044820152606490fd5b90506020813d602011610b5d575b81610b46602093836114e6565b81010312610a6757610b579061158d565b38610ada565b3d9150610b39565b6001600160401b038194929411610b805760405291386108ff565b634e487b7160e01b82526041600452602482fd5b92955092955092601f198282030184528635601e1984360301811215610c0f5783018b6020823592016001600160401b038311610c0b578236038113610c0b5782845260019360209384938493829085850137838284010152601f8019910116010198019401950191948a958895929794976108b6565b5080fd5b8b80fd5b8980fd5b60405162461bcd60e51b815260206004820152600e60248201526d416d6f756e7420746f6f206c6f7760901b6044820152606490fd5b90503d808a833e610c5e81836114e6565b81019061012081830312610c135760408101519160a08201516001600160401b038111610c0f5782019281601f85011215610c0f578351610c9e81611572565b92610cac60405194856114e6565b81845260208287010111610cf75761010061271094610cdb610cee936106e4986020806106da990191016113c4565b610ce760e0820161158d565b500161158d565b509250506106c6565b8c80fd5b6040513d8b823e3d90fd5b60405162461bcd60e51b81526020600482015260146024820152730a4cad8c2f2cae440cccaca40e8dede40d0d2ced60631b6044820152606490fd5b634e487b7160e01b89526011600452602489fd5b60405162461bcd60e51b815260206004820152601060248201526f2232b0b23634b732903a37b7903330b960811b6044820152606490fd5b634e487b7160e01b88526011600452602488fd5b60405162461bcd60e51b815260206004820152600e60248201526d125b9d195b9d08195e1c1a5c995960921b6044820152606490fd5b60405162461bcd60e51b8152602060048201526011602482015270496e76616c6964207369676e617475726560781b6044820152606490fd5b60405162461bcd60e51b815260206004820152600d60248201526c496e76616c6964206e6f6e636560981b6044820152606490fd5b338752600360205260ff6040882054166104f75760405162461bcd60e51b81526020600482015260166024820152752737ba1030baba3437b934bd32b2103932b630bcb2b960511b6044820152606490fd5b8480fd5b503461017b578060031936011261017b576040517f00000000000000000000000000000000000000000000000000000000000000006001600160a01b03168152602090f35b503461017b578060031936011261017b576020600654604051908152f35b503461017b578060031936011261017b5760045460405160089190911c6001600160a01b03168152602090f35b503461017b578060031936011261017b57610f667f0000000000000000000000000000000000000000000000000000000000000000611801565b90610f907f0000000000000000000000000000000000000000000000000000000000000000611929565b906040519060209060208301938385106001600160401b03861117610b80579284926020610fee8896610fe098604052858552604051988998600f60f81b8a5260e0858b015260e08a01906113e7565b9088820360408a01526113e7565b924660608801523060808801528460a088015286840360c088015251928381520193925b82811061102157505050500390f35b835185528695509381019392810192600101611012565b503461017b57602036600319011261017b5760043561106560018060a01b0360045460081c16331461143c565b606481116110a75760407fa497e9481c8b93a7f7ebae1f6b58ab1bdd1e7af9fefac33ef9cb1a8d4cd90e9791600654908060065582519182526020820152a180f35b60405162461bcd60e51b815260206004820152600c60248201526b08ccaca40e8dede40d0d2ced60a31b6044820152606490fd5b503461017b57602036600319011261017b5761110560018060a01b0360045460081c16331461143c565b60043560075580f35b503461017b57602036600319011261017b576020906040906001600160a01b036111366113a9565b168152600583522054604051908152f35b503461017b578060031936011261017b576020604051610e108152f35b50604036600319011261017b576111af602061117e6113a9565b60405163bbbf744d60e01b81526001600160a01b039091166004820152602480359082015291829081906044820190565b0381347f00000000000000000000000000000000000000000000000000000000000000006001600160a01b03165af190811561122d5782916111f7575b602082604051908152f35b90506020813d602011611225575b81611212602093836114e6565b81010312610c0b576020915051386111ec565b3d9150611205565b6040513d84823e3d90fd5b503461017b57602036600319011261017b5760209060ff906040906001600160a01b036112636113a9565b168152600384522054166040519015158152f35b508060031936011261017b57611291600754341015611474565b3381526008602052604081208054903482018092116112da57556040513481527f193a79fd17752d71da6eaba98e99be182b006d3e3178dd96b26a52f905e23e7d60203392a280f35b634e487b7160e01b83526011600452602483fd5b503461017b578060031936011261017b57602060405160648152f35b503461017b57602036600319011261017b576113246113a9565b60018060a01b039061133e8260045460081c16331461143c565b168152600360205260408120805460ff1916905580f35b503461017b578060031936011261017b576020600754604051908152f35b905034610c0b576020366003190112610c0b576020916040906001600160a01b0361139c6113a9565b1681526008845220548152f35b600435906001600160a01b03821682036113bf57565b600080fd5b60005b8381106113d75750506000910152565b81810151838201526020016113c7565b90602091611400815180928185528580860191016113c4565b601f01601f1916010190565b9181601f840112156113bf578235916001600160401b0383116113bf576020808501948460051b0101116113bf57565b1561144357565b60405162461bcd60e51b81526020600482015260096024820152682737ba1037bbb732b960b91b6044820152606490fd5b1561147b57565b60405162461bcd60e51b8152602060048201526012602482015271496e73756666696369656e74207374616b6560701b6044820152606490fd5b604081019081106001600160401b038211176114d057604052565b634e487b7160e01b600052604160045260246000fd5b90601f801991011681019081106001600160401b038211176114d057604052565b6004356001600160a01b03811681036113bf5790565b6024356001600160a01b03811681036113bf5790565b6044356001600160a01b03811681036113bf5790565b8181029291811591840414171561155c57565b634e487b7160e01b600052601160045260246000fd5b6001600160401b0381116114d057601f01601f191660200190565b519081151582036113bf57565b9190820391821161155c57565b81835290916001600160fb1b0383116113bf5760209260051b809284830137010190565b60ff6004541661160c576001600160a01b031660009081526003602052604090205460ff16806115f85790565b506008602052604060002054600754111590565b6001600160a01b0316600090815260086020526040902054600754111590565b9390979695929160e095926101008601997f8cfea2f26719118958f49828607ead2c735f1e5f9d78ccb8323fd1fa23e150a7875260018060a01b0392838092166020890152166040870152166060850152608084015260a083015260c08201520152565b600280541461169f5760028055565b604051633ee5aeb560e01b8152600490fd5b6042906116bc6116d7565b906040519161190160f01b8352600283015260228201522090565b307f00000000000000000000000000000000000000000000000000000000000000006001600160a01b031614806117d8575b15611732577f000000000000000000000000000000000000000000000000000000000000000090565b60405160208101907f8b73c3c69bb8fe3d512ecc4cf759cc79239f7b179b0ffacaa9a75d522b39400f82527f000000000000000000000000000000000000000000000000000000000000000060408201527f000000000000000000000000000000000000000000000000000000000000000060608201524660808201523060a082015260a0815260c081018181106001600160401b038211176114d05760405251902090565b507f00000000000000000000000000000000000000000000000000000000000000004614611709565b60ff811461183f5760ff811690601f821161182d5760405191611823836114b5565b8252602082015290565b604051632cd44ac360e21b8152600490fd5b50604051600080549060018260011c906001841693841561191f575b602094858410811461190b57838752869493929181156118eb575060011461188f575b505061188c925003826114e6565b90565b60008080527f290decd9548b62a8d60345a988386fc84ba6bc95484008f6362f93160ef3e56395935091905b8183106118d357505061188c9350820101388061187e565b855487840185015294850194869450918301916118bb565b91505061188c94925060ff191682840152151560051b820101388061187e565b634e487b7160e01b85526022600452602485fd5b91607f169161185b565b60ff811461194b5760ff811690601f821161182d5760405191611823836114b5565b506040516000600190600154918260011c90600184169384156119f8575b602094858410811461190b57838752869493929181156118eb575060011461199957505061188c925003826114e6565b9093915060016000527fb10e2d527612073b26eecdfd717e6a320cf44b4afac2b0732d9fcbe2b7fa0cf6936000915b8183106119e057505061188c9350820101388061187e565b855487840185015294850194869450918301916119c8565b91607f1691611969565b8151919060418303611a3357611a2c92506020820151906060604084015193015160001a90611ac3565b9192909190565b505060009160029190565b6004811015611aad5780611a50575050565b60018103611a6a5760405163f645eedf60e01b8152600490fd5b60028103611a8b5760405163fce698f760e01b815260048101839052602490fd5b600314611a955750565b602490604051906335e2f38360e21b82526004820152fd5b634e487b7160e01b600052602160045260246000fd5b91907f7fffffffffffffffffffffffffffffff5d576e7357a4501ddfe92f46681b20a08411611b4757926020929160ff608095604051948552168484015260408301526060820152600092839182805260015afa15611b3b5780516001600160a01b03811615611b3257918190565b50809160019190565b604051903d90823e3d90fd5b5050506000916003919056fea2646970667358221220d310e2e2379c7bc2791ae255863c3d8e2653467319b82d43492f62137e7e217b64736f6c63430008180033",
  "linkReferences": {},
  "deployedLinkReferences": {}
}